{"abi":[{"type":"constructor","inputs":[{"name":"_alphaToken","type":"address","internalType":"address"},{"name":"_treasury","type":"address","internalType":"address"},{"name":"_buybackAddress","type":"address","internalType":"address"}],"stateMutability":"nonpayable"},{"type":"function","name":"DEFAULT_ADMIN_ROLE","inputs":[],"outputs":[{"name":"","type":"bytes32","internalType":"bytes32"}],"stateMutability":"view"},{"type":"function","name":"OPERATOR_ROLE","inputs":[],"outputs":[{"name":"","type":"bytes32","internalType":"bytes32"}],"stateMutability":"view"},{"type":"function","name":"POINTS_MANAGER_ROLE","inputs":[],"outputs":[{"name":"","type":"bytes32","internalType":"bytes32"}],"stateMutability":"view"},{"type":"function","name":"PRECISION","inputs":[],"outputs":[{"name":"","type":"uint256","internalType":"uint256"}],"stateMutability":"view"},{"type":"function","name":"alphaToken","inputs":[],"outputs":[{"name":"","type":"address","internalType":"contract IERC20"}],"stateMutability":"view"},{"type":"function","name":"batchGrantPoints","inputs":[{"name":"users","type":"address[]","internalType":"address[]"},{"name":"amounts","type":"uint256[]","internalType":"uint256[]"},{"name":"reason","type":"string","internalType":"string"}],"outputs":[],"stateMutability":"nonpayable"},{"type":"function","name":"burnDeadCoin","inputs":[{"name":"token","type":"address","internalType":"address"},{"name":"amount","type":"uint256","internalType":"uint256"}],"outputs":[],"stateMutability":"nonpayable"},{"type":"function","name":"burnHistory","inputs":[{"name":"","type":"address","internalType":"address"},{"name":"","type":"uint256","internalType":"uint256"}],"outputs":[{"name":"token","type":"address","internalType":"address"},{"name":"amount","type":"uint256","internalType":"uint256"},{"name":"pointsReceived","type":"uint256","internalType":"uint256"},{"name":"timestamp","type":"uint256","internalType":"uint256"}],"stateMutability":"view"},{"type":"function","name":"buybackAddress","inputs":[],"outputs":[{"name":"","type":"address","internalType":"address"}],"stateMutability":"view"},{"type":"function","name":"buybackShareRate","inputs":[],"outputs":[{"name":"","type":"uint256","internalType":"uint256"}],"stateMutability":"view"},{"type":"function","name":"claimRewards","inputs":[],"outputs":[],"stateMutability":"nonpayable"},{"type":"function","name":"completeUnstake","inputs":[],"outputs":[],"stateMutability":"nonpayable"},{"type":"function","name":"deadCoinPointRate","inputs":[],"outputs":[{"name":"","type":"uint256","internalType":"uint256"}],"stateMutability":"view"},{"type":"function","name":"deadCoinValues","inputs":[{"name":"","type":"address","internalType":"address"}],"outputs":[{"name":"","type":"uint256","internalType":"uint256"}],"stateMutability":"view"},{"type":"function","name":"distributeRevenue","inputs":[{"name":"amount","type":"uint256","internalType":"uint256"}],"outputs":[],"stateMutability":"nonpayable"},{"type":"function","name":"getBurnHistory","inputs":[{"name":"user","type":"address","internalType":"address"}],"outputs":[{"name":"","type":"tuple[]","internalType":"struct AlphaNestCore.DeadCoinBurn[]","components":[{"name":"token","type":"address","internalType":"address"},{"name":"amount","type":"uint256","internalType":"uint256"},{"name":"pointsReceived","type":"uint256","internalType":"uint256"},{"name":"timestamp","type":"uint256","internalType":"uint256"}]}],"stateMutability":"view"},{"type":"function","name":"getEstimatedAPY","inputs":[],"outputs":[{"name":"","type":"uint256","internalType":"uint256"}],"stateMutability":"view"},{"type":"function","name":"getMiningWeight","inputs":[{"name":"user","type":"address","internalType":"address"}],"outputs":[{"name":"","type":"uint256","internalType":"uint256"}],"stateMutability":"view"},{"type":"function","name":"getPointsInfo","inputs":[{"name":"user","type":"address","internalType":"address"}],"outputs":[{"name":"balance","type":"uint256","internalType":"uint256"},{"name":"totalEarned","type":"uint256","internalType":"uint256"},{"name":"totalSpent","type":"uint256","internalType":"uint256"}],"stateMutability":"view"},{"type":"function","name":"getRoleAdmin","inputs":[{"name":"role","type":"bytes32","internalType":"bytes32"}],"outputs":[{"name":"","type":"bytes32","internalType":"bytes32"}],"stateMutability":"view"},{"type":"function","name":"getStakeInfo","inputs":[{"name":"user","type":"address","internalType":"address"}],"outputs":[{"name":"stakedAmount","type":"uint256","internalType":"uint256"},{"name":"pendingRewards","type":"uint256","internalType":"uint256"},{"name":"pendingUnstakeAmount","type":"uint256","internalType":"uint256"},{"name":"unstakeUnlockTime","type":"uint256","internalType":"uint256"}],"stateMutability":"view"},{"type":"function","name":"grantPoints","inputs":[{"name":"user","type":"address","internalType":"address"},{"name":"amount","type":"uint256","internalType":"uint256"},{"name":"reason","type":"string","internalType":"string"}],"outputs":[],"stateMutability":"nonpayable"},{"type":"function","name":"grantRole","inputs":[{"name":"role","type":"bytes32","internalType":"bytes32"},{"name":"account","type":"address","internalType":"address"}],"outputs":[],"stateMutability":"nonpayable"},{"type":"function","name":"hasRole","inputs":[{"name":"role","type":"bytes32","internalType":"bytes32"},{"name":"account","type":"address","internalType":"address"}],"outputs":[{"name":"","type":"bool","internalType":"bool"}],"stateMutability":"view"},{"type":"function","name":"lastRewardTime","inputs":[],"outputs":[{"name":"","type":"uint256","internalType":"uint256"}],"stateMutability":"view"},{"type":"function","name":"minStakeAmount","inputs":[],"outputs":[{"name":"","type":"uint256","internalType":"uint256"}],"stateMutability":"view"},{"type":"function","name":"pause","inputs":[],"outputs":[],"stateMutability":"nonpayable"},{"type":"function","name":"paused","inputs":[],"outputs":[{"name":"","type":"bool","internalType":"bool"}],"stateMutability":"view"},{"type":"function","name":"pendingUnstake","inputs":[{"name":"","type":"address","internalType":"address"}],"outputs":[{"name":"","type":"uint256","internalType":"uint256"}],"stateMutability":"view"},{"type":"function","name":"points","inputs":[{"name":"","type":"address","internalType":"address"}],"outputs":[{"name":"totalEarned","type":"uint256","internalType":"uint256"},{"name":"totalSpent","type":"uint256","internalType":"uint256"},{"name":"currentBalance","type":"uint256","internalType":"uint256"},{"name":"lastUpdateTime","type":"uint256","internalType":"uint256"}],"stateMutability":"view"},{"type":"function","name":"pointsPerVerify","inputs":[],"outputs":[{"name":"","type":"uint256","internalType":"uint256"}],"stateMutability":"view"},{"type":"function","name":"removeDeadCoin","inputs":[{"name":"token","type":"address","internalType":"address"}],"outputs":[],"stateMutability":"nonpayable"},{"type":"function","name":"renounceRole","inputs":[{"name":"role","type":"bytes32","internalType":"bytes32"},{"name":"callerConfirmation","type":"address","internalType":"address"}],"outputs":[],"stateMutability":"nonpayable"},{"type":"function","name":"requestUnstake","inputs":[{"name":"amount","type":"uint256","internalType":"uint256"}],"outputs":[],"stateMutability":"nonpayable"},{"type":"function","name":"revokeRole","inputs":[{"name":"role","type":"bytes32","internalType":"bytes32"},{"name":"account","type":"address","internalType":"address"}],"outputs":[],"stateMutability":"nonpayable"},{"type":"function","name":"rewardPerShare","inputs":[],"outputs":[{"name":"","type":"uint256","internalType":"uint256"}],"stateMutability":"view"},{"type":"function","name":"setBuybackAddress","inputs":[{"name":"_buyback","type":"address","internalType":"address"}],"outputs":[],"stateMutability":"nonpayable"},{"type":"function","name":"setDeadCoinPointRate","inputs":[{"name":"rate","type":"uint256","internalType":"uint256"}],"outputs":[],"stateMutability":"nonpayable"},{"type":"function","name":"setMinStakeAmount","inputs":[{"name":"amount","type":"uint256","internalType":"uint256"}],"outputs":[],"stateMutability":"nonpayable"},{"type":"function","name":"setPointsPerVerify","inputs":[{"name":"amount","type":"uint256","internalType":"uint256"}],"outputs":[],"stateMutability":"nonpayable"},{"type":"function","name":"setShareRates","inputs":[{"name":"_stakersRate","type":"uint256","internalType":"uint256"},{"name":"_treasuryRate","type":"uint256","internalType":"uint256"},{"name":"_buybackRate","type":"uint256","internalType":"uint256"}],"outputs":[],"stateMutability":"nonpayable"},{"type":"function","name":"setTreasury","inputs":[{"name":"_treasury","type":"address","internalType":"address"}],"outputs":[],"stateMutability":"nonpayable"},{"type":"function","name":"setUnstakeCooldown","inputs":[{"name":"duration","type":"uint256","internalType":"uint256"}],"outputs":[],"stateMutability":"nonpayable"},{"type":"function","name":"spendPoints","inputs":[{"name":"user","type":"address","internalType":"address"},{"name":"amount","type":"uint256","internalType":"uint256"},{"name":"reason","type":"string","internalType":"string"}],"outputs":[],"stateMutability":"nonpayable"},{"type":"function","name":"stake","inputs":[{"name":"amount","type":"uint256","internalType":"uint256"}],"outputs":[],"stateMutability":"nonpayable"},{"type":"function","name":"stakersShareRate","inputs":[],"outputs":[{"name":"","type":"uint256","internalType":"uint256"}],"stateMutability":"view"},{"type":"function","name":"stakes","inputs":[{"name":"","type":"address","internalType":"address"}],"outputs":[{"name":"amount","type":"uint256","internalType":"uint256"},{"name":"startTime","type":"uint256","internalType":"uint256"},{"name":"lastClaimTime","type":"uint256","internalType":"uint256"},{"name":"accumulatedRewards","type":"uint256","internalType":"uint256"}],"stateMutability":"view"},{"type":"function","name":"supportsInterface","inputs":[{"name":"interfaceId","type":"bytes4","internalType":"bytes4"}],"outputs":[{"name":"","type":"bool","internalType":"bool"}],"stateMutability":"view"},{"type":"function","name":"totalStaked","inputs":[],"outputs":[{"name":"","type":"uint256","internalType":"uint256"}],"stateMutability":"view"},{"type":"function","name":"treasury","inputs":[],"outputs":[{"name":"","type":"address","internalType":"address"}],"stateMutability":"view"},{"type":"function","name":"treasuryShareRate","inputs":[],"outputs":[{"name":"","type":"uint256","internalType":"uint256"}],"stateMutability":"view"},{"type":"function","name":"unpause","inputs":[],"outputs":[],"stateMutability":"nonpayable"},{"type":"function","name":"unstakeCooldown","inputs":[],"outputs":[{"name":"","type":"uint256","internalType":"uint256"}],"stateMutability":"view"},{"type":"function","name":"unstakeRequestTime","inputs":[{"name":"","type":"address","internalType":"address"}],"outputs":[{"name":"","type":"uint256","internalType":"uint256"}],"stateMutability":"view"},{"type":"function","name":"verifyAndEarn","inputs":[{"name":"user","type":"address","internalType":"address"}],"outputs":[],"stateMutability":"nonpayable"},{"type":"function","name":"whitelistDeadCoin","inputs":[{"name":"token","type":"address","internalType":"address"},{"name":"pointValue","type":"uint256","internalType":"uint256"}],"outputs":[],"stateMutability":"nonpayable"},{"type":"function","name":"whitelistedDeadCoins","inputs":[{"name":"","type":"address","internalType":"address"}],"outputs":[{"name":"","type":"bool","internalType":"bool"}],"stateMutability":"view"},{"type":"event","name":"ConfigUpdated","inputs":[{"name":"param","type":"string","indexed":false,"internalType":"string"},{"name":"value","type":"uint256","indexed":false,"internalType":"uint256"}],"anonymous":false},{"type":"event","name":"DeadCoinBurned","inputs":[{"name":"user","type":"address","indexed":true,"internalType":"address"},{"name":"token","type":"address","indexed":true,"internalType":"address"},{"name":"amount","type":"uint256","indexed":false,"internalType":"uint256"},{"name":"pointsReceived","type":"uint256","indexed":false,"internalType":"uint256"}],"anonymous":false},{"type":"event","name":"DeadCoinRemoved","inputs":[{"name":"token","type":"address","indexed":true,"internalType":"address"}],"anonymous":false},{"type":"event","name":"DeadCoinWhitelisted","inputs":[{"name":"token","type":"address","indexed":true,"internalType":"address"},{"name":"pointValue","type":"uint256","indexed":false,"internalType":"uint256"}],"anonymous":false},{"type":"event","name":"Paused","inputs":[{"name":"account","type":"address","indexed":false,"internalType":"address"}],"anonymous":false},{"type":"event","name":"PointsEarned","inputs":[{"name":"user","type":"address","indexed":true,"internalType":"address"},{"name":"amount","type":"uint256","indexed":false,"internalType":"uint256"},{"name":"reason","type":"string","indexed":false,"internalType":"string"}],"anonymous":false},{"type":"event","name":"PointsSpent","inputs":[{"name":"user","type":"address","indexed":true,"internalType":"address"},{"name":"amount","type":"uint256","indexed":false,"internalType":"uint256"},{"name":"reason","type":"string","indexed":false,"internalType":"string"}],"anonymous":false},{"type":"event","name":"RewardsClaimed","inputs":[{"name":"user","type":"address","indexed":true,"internalType":"address"},{"name":"amount","type":"uint256","indexed":false,"internalType":"uint256"}],"anonymous":false},{"type":"event","name":"RewardsDistributed","inputs":[{"name":"stakersAmount","type":"uint256","indexed":false,"internalType":"uint256"},{"name":"treasuryAmount","type":"uint256","indexed":false,"internalType":"uint256"},{"name":"buybackAmount","type":"uint256","indexed":false,"internalType":"uint256"}],"anonymous":false},{"type":"event","name":"RoleAdminChanged","inputs":[{"name":"role","type":"bytes32","indexed":true,"internalType":"bytes32"},{"name":"previousAdminRole","type":"bytes32","indexed":true,"internalType":"bytes32"},{"name":"newAdminRole","type":"bytes32","indexed":true,"internalType":"bytes32"}],"anonymous":false},{"type":"event","name":"RoleGranted","inputs":[{"name":"role","type":"bytes32","indexed":true,"internalType":"bytes32"},{"name":"account","type":"address","indexed":true,"internalType":"address"},{"name":"sender","type":"address","indexed":true,"internalType":"address"}],"anonymous":false},{"type":"event","name":"RoleRevoked","inputs":[{"name":"role","type":"bytes32","indexed":true,"internalType":"bytes32"},{"name":"account","type":"address","indexed":true,"internalType":"address"},{"name":"sender","type":"address","indexed":true,"internalType":"address"}],"anonymous":false},{"type":"event","name":"Staked","inputs":[{"name":"user","type":"address","indexed":true,"internalType":"address"},{"name":"amount","type":"uint256","indexed":false,"internalType":"uint256"},{"name":"totalStaked","type":"uint256","indexed":false,"internalType":"uint256"}],"anonymous":false},{"type":"event","name":"Unpaused","inputs":[{"name":"account","type":"address","indexed":false,"internalType":"address"}],"anonymous":false},{"type":"event","name":"UnstakeRequested","inputs":[{"name":"user","type":"address","indexed":true,"internalType":"address"},{"name":"amount","type":"uint256","indexed":false,"internalType":"uint256"},{"name":"unlockTime","type":"uint256","indexed":false,"internalType":"uint256"}],"anonymous":false},{"type":"event","name":"Unstaked","inputs":[{"name":"user","type":"address","indexed":true,"internalType":"address"},{"name":"amount","type":"uint256","indexed":false,"internalType":"uint256"}],"anonymous":false},{"type":"error","name":"AccessControlBadConfirmation","inputs":[]},{"type":"error","name":"AccessControlUnauthorizedAccount","inputs":[{"name":"account","type":"address","internalType":"address"},{"name":"neededRole","type":"bytes32","internalType":"bytes32"}]},{"type":"error","name":"EnforcedPause","inputs":[]},{"type":"error","name":"ExpectedPause","inputs":[]},{"type":"error","name":"ReentrancyGuardReentrantCall","inputs":[]},{"type":"error","name":"SafeERC20FailedOperation","inputs":[{"name":"token","type":"address","internalType":"address"}]}],"bytecode":{"object":"0x6080346200020157601f6200269638819003918201601f191683019291906001600160401b03841183851017620002055781606092849260409687528339810103126200020157620000518162000219565b906200006d83620000656020840162000219565b920162000219565b60017f9b779b17422d0df92223018b32b4d1fa46e071723d6817e2486d003becc55f0055906001600160a01b039083821615620001cd578116918215620001965716918215620001605760018054610100600160a81b031916600892831b610100600160a81b0316179055600a80546001600160a01b03199081169093179055600b8054909216929092179055610bb86007819055610fa090915560095568056bc75e2d6310000060055562093a806006556064600c556103e8600d554260045562000139336200022e565b5062000145336200029e565b5062000151336200033e565b505161227d9081620003d98239f35b835162461bcd60e51b815260206004820152600f60248201526e496e76616c6964206275796261636b60881b6044820152606490fd5b845162461bcd60e51b815260206004820152601060248201526f496e76616c696420747265617375727960801b6044820152606490fd5b845162461bcd60e51b815260206004820152600d60248201526c24b73b30b634b2103a37b5b2b760991b6044820152606490fd5b5f80fd5b634e487b7160e01b5f52604160045260245ffd5b51906001600160a01b03821682036200020157565b6001600160a01b03165f8181525f8051602062002676833981519152602052604090205460ff1662000299575f8181525f805160206200267683398151915260205260408120805460ff191660011790553391905f80516020620026568339815191528180a4600190565b505f90565b6001600160a01b03165f8181527fee57cd81e84075558e8fcc182a1f4393f91fc97f963a136e66b7f949a62f319f60205260409020547f97667070c54ef182b0f5858b034beac1b6f3089aa2d3188bb1e8929f4fa9b929919060ff166200033857815f525f60205260405f20815f5260205260405f20600160ff1982541617905533915f80516020620026568339815191525f80a4600190565b50505f90565b6001600160a01b03165f8181527f983ad7d188e2a8f3d90bf7b2a44192accda8be665696b90cf91a811adb981a1260205260409020547f37e4b824e59bee324bf3e1f542c9302c3cdd84b277661804b995339af33b7fdf919060ff166200033857815f525f60205260405f20815f5260205260405f20600160ff1982541617905533915f80516020620026568339815191525f80a460019056fe6080604090808252600480361015610015575f80fd5b5f3560e01c91826301ffc9a71461199a575081630259946e1461193d57816306aef70c146118ed5781630ca8e2bb146118cf5781630cdde260146117d557816316934fc41461176f578163204a1e2e1461173857816322d6c4331461171357816323095721146115d9578163248a9ca3146115b05781632f2ff15d14611588578163311598cc1461156a578163358b81661461150457816336568abe146114c0578163372500ab146113ec5781633890b152146113b55781633c2f3653146111745781633f4ba83a1461110d57816341c64f8d146110d1578163446a2ec8146110b35781634a7713541461101657816356d6ea4f14610fdf57816359fde1e014610e0d5781635c975abb14610dea57816361d027b314610dc257816362970f9b14610c9f578163634257ce14610c1f57816363803b2314610afa5781636605f54b14610a8b57816370b4c9e014610a5f57816374aa9b3c14610a055781637e88880d146109b95781637eefd5ae1461099b578163817b1cd21461097d5781638456cb59146109255781638b4023e31461090757816391d14854146108c45781639231cf74146108a8578163a217fddf1461088e578163a3158b5314610831578163a3ab4d6514610813578163a694fc3a1461070b578163aaf5eb68146106e9578163b5a62d6814610670578163b6a80273146105ff578163bf8c77cc146105c5578163c345315314610533578163cc2fbd661461050b578163ccaad55d146104e8578163d547741f146104af578163e049d09b146103e3578163eb46b790146103b4578163eb4af0451461035857508063ee3604d41461033a578063f0f44260146102ee578063f1887684146102d05763f5b541a614610293575f80fd5b346102cc575f3660031901126102cc57602090517f97667070c54ef182b0f5858b034beac1b6f3089aa2d3188bb1e8929f4fa9b9298152f35b5f80fd5b50346102cc575f3660031901126102cc576020906005549051908152f35b346102cc5760203660031901126102cc576103076119ec565b61030f611d46565b6001600160a01b0316610323811515611cbe565b6001600160601b0360a01b600a541617600a555f80f35b50346102cc575f3660031901126102cc576020906008549051908152f35b9050346102cc5760203660031901126102cc575f805160206122088339815191529160809135610386611d46565b80600555600e8251928084528301526d1b5a5b94dd185ad9505b5bdd5b9d60921b60608301526020820152a1005b346102cc576103e16103db6103c836611aa4565b6103d494929394611d9c565b3691611b75565b91611ee1565b005b9050346102cc576103f66103c836611aa4565b9160018060a01b031692835f52600f602052845f209060028201908154908482106104765750917f0d6e500ce6f2791fe11feca693b058130186e53bd7f0dc5b621fa72f5764d2f095969161045f856104719560018501610458838254611bea565b9055611bb6565b90556003429101555192839283611e91565b0390a2005b606490602089519162461bcd60e51b83528201526013602482015272496e73756666696369656e7420706f696e747360681b6044820152fd5b82346102cc57806003193601126102cc576103e191356104e360016104d2611a02565b93835f525f6020525f200154611e70565b61203c565b82346102cc575f3660031901126102cc57602090610504611cfc565b9051908152f35b82346102cc575f3660031901126102cc57600b5490516001600160a01b039091168152602090f35b82346102cc5760203660031901126102cc5761054d6119ec565b6105a45f60018060a01b03831693845f52600e602052610570815f2054946121b4565b945f526011602052805f205490816105a8575b51948594859094939260609260808301968352602083015260408201520152565b0390f35b915060126020526105bf825f205460065490611bea565b91610583565b82346102cc575f3660031901126102cc57602090517f37e4b824e59bee324bf3e1f542c9302c3cdd84b277661804b995339af33b7fdf8152f35b82346102cc57806003193601126102cc576106186119ec565b6024359160018060a01b038092165f526010602052805f2080548410156102cc5760809361064591611a77565b5091825416916001810154916003600283015492015492815194855260208501528301526060820152f35b82346102cc57806003193601126102cc577f816db26c6f6a046ec448b1795610d47f27228bd21f86a9343b38e5a99e1fcf9160206106ac6119ec565b602435906106b8611e15565b6001600160a01b03165f81815260138452858120805460ff19166001179055601484528590208290559351908152a2005b82346102cc575f3660031901126102cc5760209051670de0b6b3a76400008152f35b82346102cc5760203660031901126102cc57813591610728611f52565b61073061212c565b60055483106107db57507f1449c6dd7851abc30abf37f57715f492010519147cc2652fbc38202c18a6ee909061076533611f81565b6001546107839084903090339060081c6001600160a01b031661214a565b335f52600e602052805f20610799848254611bea565b9055335f52600e602052426001825f2001556107b783600254611bea565b80600255815193845260208401523392a260015f8051602061222883398151915255005b6020606492519162461bcd60e51b8352820152601360248201527242656c6f77206d696e696d756d207374616b6560681b6044820152fd5b82346102cc575f3660031901126102cc576020906007549051908152f35b9050346102cc5760203660031901126102cc575f80516020612208833981519152916080913561085f611d46565b80600655600f8251928084528301526e3ab739ba30b5b2a1b7b7b63237bbb760891b60608301526020820152a1005b82346102cc575f3660031901126102cc57602090515f8152f35b82346102cc575f3660031901126102cc57602091549051908152f35b82346102cc57806003193601126102cc576020916108e0611a02565b90355f525f8352815f209060018060a01b03165f52825260ff815f20541690519015158152f35b82346102cc575f3660031901126102cc576020906009549051908152f35b82346102cc575f3660031901126102cc5760207f62e78cea01bee320cd4e420270b5ea74000d11b0c9f74754ebdbfc544b05a25891610962611d46565b61096a61212c565b600160ff198154161760015551338152a1005b82346102cc575f3660031901126102cc576020906002549051908152f35b82346102cc575f3660031901126102cc576020906006549051908152f35b346102cc5760203660031901126102cc576109d26119ec565b6109da611d46565b6001600160a01b03166109ee811515611cbe565b6001600160601b0360a01b600b541617600b555f80f35b82346102cc5760203660031901126102cc576001600160a01b03610a276119ec565b165f52600f602052805f20906105a4600283015491600184549401549051938493846040919493926060820195825260208201520152565b82346102cc575f3660031901126102cc57600154905160089190911c6001600160a01b03168152602090f35b82346102cc5760203660031901126102cc575f610aa66119ec565b610aae611e15565b6001600160a01b031680825260136020908152838320805460ff1916905560149052918120557f956a76bb478bb3f4f0b17fa7cebdfdafd2fd4f82e9afbf9daafcd2acad4364075f80a2005b9050346102cc575f3660031901126102cc57610b14611f52565b335f52602060118152825f2054918215610be957335f5260128252610b3f845f205460065490611bea565b4210610bb057507f0f5bb82176feb1b5e747e28471aa92156a04d9f3ab9f45f28e2d704232b93f759192335f52601182525f81812055601282525f81812055610b96843360018060a01b0360015460081c166120ae565b519283523392a260015f8051602061222883398151915255005b60649184519162461bcd60e51b8352820152601560248201527410dbdbdb191bdddb881b9bdd08199a5b9a5cda1959605a1b6044820152fd5b60649184519162461bcd60e51b835282015260126024820152714e6f2070656e64696e6720756e7374616b6560701b6044820152fd5b9050346102cc5760603660031901126102cc5780356024359160443593610c44611d46565b612710610c5a86610c558787611bea565b611bea565b03610c6c575050600755600855600955005b906020606492519162461bcd60e51b8352820152600d60248201526c496e76616c696420726174657360981b6044820152fd5b9050346102cc576020806003193601126102cc576001600160a01b039182610cc56119ec565b165f5260108252835f2091825467ffffffffffffffff8111610daf57610cf382826005979594971b01611b3f565b9181835285830180955f52865f205f915b848310610d6a575050505050845193808501918186525180925285850193925f905b838210610d335786860387f35b8451805182168752808401518785015288810151898801526060908101519087015260809095019493820193600190910190610d26565b8389600192610d7b9b98999b611aeb565b8c865416815284860154838201528d6002870154908201526003860154606082015281520192019201919097959497610d04565b604183634e487b7160e01b5f525260245ffd5b82346102cc575f3660031901126102cc57600a5490516001600160a01b039091168152602090f35b82346102cc575f3660031901126102cc5760209060ff6001541690519015158152f35b82346102cc5760203660031901126102cc57610e8f90823590610e2e611e15565b610e36611f52565b610e41821515611c7d565b6001546001600160a01b039190610e629084903090339060081c861661214a565b610e946127109384610e7660075483611bd7565b04958695610e8660085484611bd7565b04968792611bb6565b611bb6565b916002548015801580610fd6575b610f4e575b5050907f6ae8ee960d83517f7fa993ad7a0e16e33d9655a23ff41eefc62bdb289c7a8e5f95610efe939286610f32575b8380610f14575b505042905551938493846040919493926060820195825260208201520152565b0390a160015f8051602061222883398151915255005b81610f2b9260015460081c1690600b5416906120ae565b8783610ede565b610f49878260015460081c1683600a5416906120ae565b610ed7565b670de0b6b3a764000090818702918783041487151715610fc357610fb05791610fa27f6ae8ee960d83517f7fa993ad7a0e16e33d9655a23ff41eefc62bdb289c7a8e5f9892610efe96959404600354611bea565b600355919293819750610ea7565b601288634e487b7160e01b5f525260245ffd5b601189634e487b7160e01b5f525260245ffd5b50851515610ea2565b82346102cc5760203660031901126102cc576020906001600160a01b036110046119ec565b165f5260118252805f20549051908152f35b9050346102cc5760203660031901126102cc57803590611034611d46565b6127108211611080575f805160206122088339815191526080848480600d5560118251928084528301527064656164436f696e506f696e745261746560781b60608301526020820152a1005b606490602084519162461bcd60e51b8352820152600d60248201526c0a4c2e8ca40e8dede40d0d2ced609b1b6044820152fd5b82346102cc575f3660031901126102cc576020906003549051908152f35b82346102cc5760203660031901126102cc576020906001600160a01b036110f66119ec565b165f526013825260ff815f20541690519015158152f35b82346102cc575f3660031901126102cc57611126611d46565b6001549160ff831615611166577f5db9ee0a495bf2e6ff9c91a7834c1ba4fdd244a5e8aa4e537bd38aeae4b073aa6020838560ff191660015551338152a1005b9051638dfc202b60e01b8152fd5b9050346102cc57816003193601126102cc5761118e6119ec565b9160249081359161119d611f52565b6111a561212c565b60018060a01b0380951693845f526020906013825260ff845f2054161561137d576111d1851515611c7d565b83516323b872dd60e01b5f5233825261dead845285604452825f606481808b5af160015f511481161561135e575b8186525f6060521561134c5750855f526014825269021e19e0c9bab240000061123761122e865f205488611bd7565b600d5490611bd7565b0492611265611244611b1f565b600e81526d3232b0b22fb1b7b4b72fb13ab93760911b858201528533611ee1565b335f5260108352845f2097611278611aeb565b908882528482019188835287810193878552606082019b428d528054906801000000000000000082101561133a57906112b691600182018155611a77565b96909661132a57505091600393917f9c16e705c1876c75e8e91173f1d0b4db34185d36893fb0cf874e513cde26d8aa999a9b9351166001600160601b0360a01b8654161785555160018501555160028401555191015582519485528401523392a360015f8051602061222883398151915255005b5f90634e487b7160e01b8252525ffd5b82604189634e487b7160e01b5f52525ffd5b868492635274afe760e01b8352820152fd5b600181151661137457873b15153d1516166111ff565b503d5f823e3d90fd5b925162461bcd60e51b81529283015260159082015274151bdad95b881b9bdd081dda1a5d195b1a5cdd1959605a1b6044820152606490fd5b82346102cc5760203660031901126102cc576020906001600160a01b036113da6119ec565b165f5260128252805f20549051908152f35b82346102cc575f3660031901126102cc57611405611f52565b61140e33611f81565b335f52600e6020526003815f2001549182156114915750335f52600e602052805f205f6003820155600242910155611454823360018060a01b0360015460081c166120ae565b519081527ffc30cddea38e2bf4d6ea7d3f9ed3b6ad7f176419f4963bd81318067a4aee73fe60203392a260015f8051602061222883398151915255005b6020606492519162461bcd60e51b8352820152600a6024820152694e6f207265776172647360b01b6044820152fd5b82346102cc57806003193601126102cc576114d9611a02565b90336001600160a01b038316036114f557506103e1913561203c565b5163334bd91960e11b81529050fd5b82346102cc5760203660031901126102cc576001600160a01b036115266119ec565b165f52600f602052805f20906105a4825491600184015493600360028201549101549151948594859094939260609260808301968352602083015260408201520152565b82346102cc575f3660031901126102cc57602090600d549051908152f35b82346102cc57806003193601126102cc576103e191356115ab60016104d2611a02565b611fc6565b82346102cc5760203660031901126102cc57602091355f525f82526001815f2001549051908152f35b82346102cc57602090816003193601126102cc578235916115f8611f52565b335f52600e8152815f2093838554106116dd57335f5260118252825f20546116a357507f57e41df54512c76148b5ba9b643d149752b0d35e493b969bd017d0a3fe5228cf929361164733611f81565b611652858254611bb6565b905561166084600254611bb6565b600255335f526011815283825f20556012815242825f205561168460065442611bea565b9082519485528401523392a260015f8051602061222883398151915255005b915162461bcd60e51b815291820152601660248201527550656e64696e6720756e7374616b652065786973747360501b6044820152606490fd5b915162461bcd60e51b8152918201526012602482015271496e73756666696369656e74207374616b6560701b6044820152606490fd5b82346102cc5760203660031901126102cc576020906105046117336119ec565b611bf7565b82346102cc5760203660031901126102cc576020906001600160a01b0361175d6119ec565b165f5260148252805f20549051908152f35b82346102cc5760203660031901126102cc576001600160a01b036117916119ec565b165f52600e602052805f20906105a4825491600184015493600360028201549101549151948594859094939260609260808301968352602083015260408201520152565b9050346102cc5760603660031901126102cc5767ffffffffffffffff81358181116102cc576118079036908401611a18565b9190926024358281116102cc576118219036908301611a18565b9390926044359081116102cc5761183b9036908401611a49565b929096611846611d9c565b85830361189a5750505f5b81811061185a57005b611865818388611b65565b35906001600160a01b03821682036102cc57611894600192611888838989611b65565b356103db36888d611b75565b01611851565b906020606492519162461bcd60e51b8352820152600f60248201526e098cadccee8d040dad2e6dac2e8c6d608b1b6044820152fd5b82346102cc575f3660031901126102cc57602090600c549051908152f35b346102cc5760203660031901126102cc576103e16119096119ec565b611911611d9c565b600c5461191c611b1f565b91600e83526d7665726966795f686f6c64696e6760901b6020840152611ee1565b9050346102cc5760203660031901126102cc575f80516020612208833981519152916080913561196b611d46565b80600c55600f8251928084528301526e706f696e747350657256657269667960881b60608301526020820152a1005b90346102cc5760203660031901126102cc57359063ffffffff60e01b82168092036102cc57602091637965db0b60e01b81149081156119db575b5015158152f35b6301ffc9a760e01b149050836119d4565b600435906001600160a01b03821682036102cc57565b602435906001600160a01b03821682036102cc57565b9181601f840112156102cc5782359167ffffffffffffffff83116102cc576020808501948460051b0101116102cc57565b9181601f840112156102cc5782359167ffffffffffffffff83116102cc57602083818601950101116102cc57565b8054821015611a90575f5260205f209060021b01905f90565b634e487b7160e01b5f52603260045260245ffd5b60606003198201126102cc576004356001600160a01b03811681036102cc5791602435916044359067ffffffffffffffff82116102cc57611ae791600401611a49565b9091565b604051906080820182811067ffffffffffffffff821117611b0b57604052565b634e487b7160e01b5f52604160045260245ffd5b604051906040820182811067ffffffffffffffff821117611b0b57604052565b6040519190601f01601f1916820167ffffffffffffffff811183821017611b0b57604052565b9190811015611a905760051b0190565b92919267ffffffffffffffff8211611b0b57611b9a601f8301601f1916602001611b3f565b93828552828201116102cc57815f926020928387013784010152565b91908203918211611bc357565b634e487b7160e01b5f52601160045260245ffd5b81810292918115918404141715611bc357565b91908201809211611bc357565b6001600160a01b03165f908152600e602052604090208054908115611c77576001611c2491015442611bb6565b90670de0b6b3a76400009182810290808204841490151715611bc3576301e1338090048201808311611bc357611c6b91671bc16d674ec80000808311611c6f575b50611bd7565b0490565b91505f611c65565b50505f90565b15611c8457565b60405162461bcd60e51b81526020600482015260126024820152710416d6f756e74206d757374206265203e20360741b6044820152606490fd5b15611cc557565b60405162461bcd60e51b815260206004820152600f60248201526e496e76616c6964206164647265737360881b6044820152606490fd5b60025415611d42576003546301e1338090818102918183041481151715611bc35764496cebb80002908082046127101490151715611bc357670de0b6b3a7640000900490565b5f90565b335f9081527fad3228b676f7d3cd4284a5443f17f1962b36e491b30a40b2405849e597ba5fb5602052604090205460ff1615611d7e57565b60405163e2517d3f60e01b81523360048201525f6024820152604490fd5b335f9081527f983ad7d188e2a8f3d90bf7b2a44192accda8be665696b90cf91a811adb981a1260205260409020547f37e4b824e59bee324bf3e1f542c9302c3cdd84b277661804b995339af33b7fdf9060ff1615611df75750565b6044906040519063e2517d3f60e01b82523360048301526024820152fd5b335f9081527fee57cd81e84075558e8fcc182a1f4393f91fc97f963a136e66b7f949a62f319f60205260409020547f97667070c54ef182b0f5858b034beac1b6f3089aa2d3188bb1e8929f4fa9b9299060ff1615611df75750565b805f525f60205260405f20335f5260205260ff60405f20541615611df75750565b909291928152602092604060208301528051908160408401525f5b828110611ecd57505060609293505f838284010152601f8019910116010190565b818101860151848201606001528501611eac565b917fb51b16cb4103a8ce441e52afe5cfabab49df83ba6b570adcde7724f975bdf7d0919260018060a01b031692835f52600f60205260405f20611f25828254611bea565b815560028101611f36838254611bea565b9055600342910155611f4d60405192839283611e91565b0390a2565b5f805160206122288339815191526002815414611f6f5760029055565b604051633ee5aeb560e01b8152600490fd5b60018060a01b0381165f52600e60205260405f20908154611fa6575b50600242910155565b611faf906121b4565b611fbe60038301918254611bea565b90555f611f9d565b90815f525f60205260405f209060018060a01b031690815f5260205260ff60405f205416155f14611c7757815f525f60205260405f20815f5260205260405f20600160ff1982541617905533917f2f8788117e7eff1d82e926ec794901d17c78024a50270940304540a733656f0d5f80a4600190565b90815f525f60205260405f209060018060a01b031690815f5260205260ff60405f2054165f14611c7757815f525f60205260405f20815f5260205260405f2060ff19815416905533917ff6391f5c32d9c69d2a47ea670b442974b53935d1edc7fd64eb21e047a839171b5f80a4600190565b60405163a9059cbb60e01b5f9081526001600160a01b039384166004526024949094529260209060448180855af160015f511481161561210d575b83604052156120f757505050565b635274afe760e01b835216600482015260249150fd5b600181151661212357813b15153d1516166120e9565b833d5f823e3d90fd5b60ff6001541661213857565b60405163d93c066560e01b8152600490fd5b6040516323b872dd60e01b5f9081526001600160a01b03938416600452938316602452604494909452909160209060648180855af160015f511481161561219e575b836040525f606052156120f757505050565b600181151661212357813b15153d15161661218c565b6001600160a01b03165f908152600e602052604090208054908115611c7757612204916121fd670de0b6b3a7640000916002836121f360035484611bd7565b0494015490611bd7565b0490611bb6565b9056fe12c9dccd129ff783f1c8228eacdfa8e334ddecb7ec5c9a79ec662a4aed3d012a9b779b17422d0df92223018b32b4d1fa46e071723d6817e2486d003becc55f00a26469706673582212201645ed7b52b75882787922387fb58d1f479dcb99619ff4d79e5c1cb8f024e99b64736f6c634300081800332f8788117e7eff1d82e926ec794901d17c78024a50270940304540a733656f0dad3228b676f7d3cd4284a5443f17f1962b36e491b30a40b2405849e597ba5fb5","linkReferences":{}},"methodIdentifiers":{"DEFAULT_ADMIN_ROLE()":"a217fddf","OPERATOR_ROLE()":"f5b541a6","POINTS_MANAGER_ROLE()":"bf8c77cc","PRECISION()":"aaf5eb68","alphaToken()":"70b4c9e0","batchGrantPoints(address[],uint256[],string)":"0cdde260","burnDeadCoin(address,uint256)":"3c2f3653","burnHistory(address,uint256)":"b6a80273","buybackAddress()":"cc2fbd66","buybackShareRate()":"8b4023e3","claimRewards()":"372500ab","completeUnstake()":"63803b23","deadCoinPointRate()":"311598cc","deadCoinValues(address)":"204a1e2e","distributeRevenue(uint256)":"59fde1e0","getBurnHistory(address)":"62970f9b","getEstimatedAPY()":"ccaad55d","getMiningWeight(address)":"22d6c433","getPointsInfo(address)":"74aa9b3c","getRoleAdmin(bytes32)":"248a9ca3","getStakeInfo(address)":"c3453153","grantPoints(address,uint256,string)":"eb46b790","grantRole(bytes32,address)":"2f2ff15d","hasRole(bytes32,address)":"91d14854","lastRewardTime()":"9231cf74","minStakeAmount()":"f1887684","pause()":"8456cb59","paused()":"5c975abb","pendingUnstake(address)":"56d6ea4f","points(address)":"358b8166","pointsPerVerify()":"0ca8e2bb","removeDeadCoin(address)":"6605f54b","renounceRole(bytes32,address)":"36568abe","requestUnstake(uint256)":"23095721","revokeRole(bytes32,address)":"d547741f","rewardPerShare()":"446a2ec8","setBuybackAddress(address)":"7e88880d","setDeadCoinPointRate(uint256)":"4a771354","setMinStakeAmount(uint256)":"eb4af045","setPointsPerVerify(uint256)":"0259946e","setShareRates(uint256,uint256,uint256)":"634257ce","setTreasury(address)":"f0f44260","setUnstakeCooldown(uint256)":"a3158b53","spendPoints(address,uint256,string)":"e049d09b","stake(uint256)":"a694fc3a","stakersShareRate()":"a3ab4d65","stakes(address)":"16934fc4","supportsInterface(bytes4)":"01ffc9a7","totalStaked()":"817b1cd2","treasury()":"61d027b3","treasuryShareRate()":"ee3604d4","unpause()":"3f4ba83a","unstakeCooldown()":"7eefd5ae","unstakeRequestTime(address)":"3890b152","verifyAndEarn(address)":"06aef70c","whitelistDeadCoin(address,uint256)":"b5a62d68","whitelistedDeadCoins(address)":"41c64f8d"},"id":54}