{"abi":[{"type":"constructor","inputs":[{"name":"_admin","type":"address","internalType":"address"}],"stateMutability":"nonpayable"},{"type":"function","name":"DEFAULT_ADMIN_ROLE","inputs":[],"outputs":[{"name":"","type":"bytes32","internalType":"bytes32"}],"stateMutability":"view"},{"type":"function","name":"REPORTER_ROLE","inputs":[],"outputs":[{"name":"","type":"bytes32","internalType":"bytes32"}],"stateMutability":"view"},{"type":"function","name":"RESOLVER_ROLE","inputs":[],"outputs":[{"name":"","type":"bytes32","internalType":"bytes32"}],"stateMutability":"view"},{"type":"function","name":"alphaGuard","inputs":[],"outputs":[{"name":"","type":"address","internalType":"address"}],"stateMutability":"view"},{"type":"function","name":"autoDetectRug","inputs":[{"name":"token","type":"address","internalType":"address"},{"name":"liquidityDrop","type":"uint256","internalType":"uint256"},{"name":"priceDrop","type":"uint256","internalType":"uint256"},{"name":"evidence","type":"string","internalType":"string"}],"outputs":[{"name":"reportId","type":"uint256","internalType":"uint256"}],"stateMutability":"nonpayable"},{"type":"function","name":"disputeCounter","inputs":[],"outputs":[{"name":"","type":"uint256","internalType":"uint256"}],"stateMutability":"view"},{"type":"function","name":"disputePeriod","inputs":[],"outputs":[{"name":"","type":"uint256","internalType":"uint256"}],"stateMutability":"view"},{"type":"function","name":"disputes","inputs":[{"name":"","type":"uint256","internalType":"uint256"}],"outputs":[{"name":"reportId","type":"uint256","internalType":"uint256"},{"name":"disputer","type":"address","internalType":"address"},{"name":"reason","type":"string","internalType":"string"},{"name":"disputedAt","type":"uint256","internalType":"uint256"},{"name":"resolved","type":"bool","internalType":"bool"}],"stateMutability":"view"},{"type":"function","name":"fileDispute","inputs":[{"name":"reportId","type":"uint256","internalType":"uint256"},{"name":"reason","type":"string","internalType":"string"}],"outputs":[{"name":"disputeId","type":"uint256","internalType":"uint256"}],"stateMutability":"nonpayable"},{"type":"function","name":"finalizeAndNotify","inputs":[{"name":"reportId","type":"uint256","internalType":"uint256"},{"name":"poolId","type":"uint256","internalType":"uint256"}],"outputs":[],"stateMutability":"nonpayable"},{"type":"function","name":"getReport","inputs":[{"name":"reportId","type":"uint256","internalType":"uint256"}],"outputs":[{"name":"","type":"tuple","internalType":"struct AlphaGuardOracle.TokenReport","components":[{"name":"token","type":"address","internalType":"address"},{"name":"status","type":"uint8","internalType":"enum AlphaGuardOracle.TokenStatus"},{"name":"reportedAt","type":"uint256","internalType":"uint256"},{"name":"resolvedAt","type":"uint256","internalType":"uint256"},{"name":"reporter","type":"address","internalType":"address"},{"name":"evidence","type":"string","internalType":"string"},{"name":"liquidityDrop","type":"uint256","internalType":"uint256"},{"name":"priceDrop","type":"uint256","internalType":"uint256"}]}],"stateMutability":"view"},{"type":"function","name":"getReportDisputes","inputs":[{"name":"reportId","type":"uint256","internalType":"uint256"}],"outputs":[{"name":"","type":"uint256[]","internalType":"uint256[]"}],"stateMutability":"view"},{"type":"function","name":"getRoleAdmin","inputs":[{"name":"role","type":"bytes32","internalType":"bytes32"}],"outputs":[{"name":"","type":"bytes32","internalType":"bytes32"}],"stateMutability":"view"},{"type":"function","name":"getTokenStatus","inputs":[{"name":"token","type":"address","internalType":"address"}],"outputs":[{"name":"","type":"uint8","internalType":"enum AlphaGuardOracle.TokenStatus"}],"stateMutability":"view"},{"type":"function","name":"grantRole","inputs":[{"name":"role","type":"bytes32","internalType":"bytes32"},{"name":"account","type":"address","internalType":"address"}],"outputs":[],"stateMutability":"nonpayable"},{"type":"function","name":"hasRole","inputs":[{"name":"role","type":"bytes32","internalType":"bytes32"},{"name":"account","type":"address","internalType":"address"}],"outputs":[{"name":"","type":"bool","internalType":"bool"}],"stateMutability":"view"},{"type":"function","name":"isRugged","inputs":[{"name":"token","type":"address","internalType":"address"}],"outputs":[{"name":"","type":"bool","internalType":"bool"}],"stateMutability":"view"},{"type":"function","name":"pause","inputs":[],"outputs":[],"stateMutability":"nonpayable"},{"type":"function","name":"paused","inputs":[],"outputs":[{"name":"","type":"bool","internalType":"bool"}],"stateMutability":"view"},{"type":"function","name":"renounceRole","inputs":[{"name":"role","type":"bytes32","internalType":"bytes32"},{"name":"callerConfirmation","type":"address","internalType":"address"}],"outputs":[],"stateMutability":"nonpayable"},{"type":"function","name":"reportCounter","inputs":[],"outputs":[{"name":"","type":"uint256","internalType":"uint256"}],"stateMutability":"view"},{"type":"function","name":"reportDisputes","inputs":[{"name":"","type":"uint256","internalType":"uint256"},{"name":"","type":"uint256","internalType":"uint256"}],"outputs":[{"name":"","type":"uint256","internalType":"uint256"}],"stateMutability":"view"},{"type":"function","name":"reportToken","inputs":[{"name":"token","type":"address","internalType":"address"},{"name":"status","type":"uint8","internalType":"enum AlphaGuardOracle.TokenStatus"},{"name":"evidence","type":"string","internalType":"string"},{"name":"liquidityDrop","type":"uint256","internalType":"uint256"},{"name":"priceDrop","type":"uint256","internalType":"uint256"}],"outputs":[{"name":"reportId","type":"uint256","internalType":"uint256"}],"stateMutability":"nonpayable"},{"type":"function","name":"reports","inputs":[{"name":"","type":"uint256","internalType":"uint256"}],"outputs":[{"name":"token","type":"address","internalType":"address"},{"name":"status","type":"uint8","internalType":"enum AlphaGuardOracle.TokenStatus"},{"name":"reportedAt","type":"uint256","internalType":"uint256"},{"name":"resolvedAt","type":"uint256","internalType":"uint256"},{"name":"reporter","type":"address","internalType":"address"},{"name":"evidence","type":"string","internalType":"string"},{"name":"liquidityDrop","type":"uint256","internalType":"uint256"},{"name":"priceDrop","type":"uint256","internalType":"uint256"}],"stateMutability":"view"},{"type":"function","name":"resolveDispute","inputs":[{"name":"disputeId","type":"uint256","internalType":"uint256"},{"name":"accepted","type":"bool","internalType":"bool"},{"name":"finalStatus","type":"uint8","internalType":"enum AlphaGuardOracle.TokenStatus"}],"outputs":[],"stateMutability":"nonpayable"},{"type":"function","name":"revokeRole","inputs":[{"name":"role","type":"bytes32","internalType":"bytes32"},{"name":"account","type":"address","internalType":"address"}],"outputs":[],"stateMutability":"nonpayable"},{"type":"function","name":"rugThresholdLiquidity","inputs":[],"outputs":[{"name":"","type":"uint256","internalType":"uint256"}],"stateMutability":"view"},{"type":"function","name":"rugThresholdPrice","inputs":[],"outputs":[{"name":"","type":"uint256","internalType":"uint256"}],"stateMutability":"view"},{"type":"function","name":"setAlphaGuard","inputs":[{"name":"_alphaGuard","type":"address","internalType":"address"}],"outputs":[],"stateMutability":"nonpayable"},{"type":"function","name":"setDisputePeriod","inputs":[{"name":"_period","type":"uint256","internalType":"uint256"}],"outputs":[],"stateMutability":"nonpayable"},{"type":"function","name":"setThresholds","inputs":[{"name":"_liquidityThreshold","type":"uint256","internalType":"uint256"},{"name":"_priceThreshold","type":"uint256","internalType":"uint256"}],"outputs":[],"stateMutability":"nonpayable"},{"type":"function","name":"supportsInterface","inputs":[{"name":"interfaceId","type":"bytes4","internalType":"bytes4"}],"outputs":[{"name":"","type":"bool","internalType":"bool"}],"stateMutability":"view"},{"type":"function","name":"tokenLatestReport","inputs":[{"name":"","type":"address","internalType":"address"}],"outputs":[{"name":"","type":"uint256","internalType":"uint256"}],"stateMutability":"view"},{"type":"function","name":"unpause","inputs":[],"outputs":[],"stateMutability":"nonpayable"},{"type":"event","name":"AlphaGuardUpdated","inputs":[{"name":"newAlphaGuard","type":"address","indexed":true,"internalType":"address"}],"anonymous":false},{"type":"event","name":"DisputeFiled","inputs":[{"name":"disputeId","type":"uint256","indexed":true,"internalType":"uint256"},{"name":"reportId","type":"uint256","indexed":true,"internalType":"uint256"},{"name":"disputer","type":"address","indexed":false,"internalType":"address"},{"name":"reason","type":"string","indexed":false,"internalType":"string"}],"anonymous":false},{"type":"event","name":"DisputeResolved","inputs":[{"name":"disputeId","type":"uint256","indexed":true,"internalType":"uint256"},{"name":"accepted","type":"bool","indexed":false,"internalType":"bool"}],"anonymous":false},{"type":"event","name":"Paused","inputs":[{"name":"account","type":"address","indexed":false,"internalType":"address"}],"anonymous":false},{"type":"event","name":"RoleAdminChanged","inputs":[{"name":"role","type":"bytes32","indexed":true,"internalType":"bytes32"},{"name":"previousAdminRole","type":"bytes32","indexed":true,"internalType":"bytes32"},{"name":"newAdminRole","type":"bytes32","indexed":true,"internalType":"bytes32"}],"anonymous":false},{"type":"event","name":"RoleGranted","inputs":[{"name":"role","type":"bytes32","indexed":true,"internalType":"bytes32"},{"name":"account","type":"address","indexed":true,"internalType":"address"},{"name":"sender","type":"address","indexed":true,"internalType":"address"}],"anonymous":false},{"type":"event","name":"RoleRevoked","inputs":[{"name":"role","type":"bytes32","indexed":true,"internalType":"bytes32"},{"name":"account","type":"address","indexed":true,"internalType":"address"},{"name":"sender","type":"address","indexed":true,"internalType":"address"}],"anonymous":false},{"type":"event","name":"ThresholdsUpdated","inputs":[{"name":"liquidityThreshold","type":"uint256","indexed":false,"internalType":"uint256"},{"name":"priceThreshold","type":"uint256","indexed":false,"internalType":"uint256"}],"anonymous":false},{"type":"event","name":"TokenReported","inputs":[{"name":"reportId","type":"uint256","indexed":true,"internalType":"uint256"},{"name":"token","type":"address","indexed":true,"internalType":"address"},{"name":"status","type":"uint8","indexed":false,"internalType":"enum AlphaGuardOracle.TokenStatus"},{"name":"reporter","type":"address","indexed":false,"internalType":"address"},{"name":"evidence","type":"string","indexed":false,"internalType":"string"}],"anonymous":false},{"type":"event","name":"TokenStatusUpdated","inputs":[{"name":"reportId","type":"uint256","indexed":true,"internalType":"uint256"},{"name":"token","type":"address","indexed":true,"internalType":"address"},{"name":"oldStatus","type":"uint8","indexed":false,"internalType":"enum AlphaGuardOracle.TokenStatus"},{"name":"newStatus","type":"uint8","indexed":false,"internalType":"enum AlphaGuardOracle.TokenStatus"}],"anonymous":false},{"type":"event","name":"Unpaused","inputs":[{"name":"account","type":"address","indexed":false,"internalType":"address"}],"anonymous":false},{"type":"error","name":"AccessControlBadConfirmation","inputs":[]},{"type":"error","name":"AccessControlUnauthorizedAccount","inputs":[{"name":"account","type":"address","internalType":"address"},{"name":"neededRole","type":"bytes32","internalType":"bytes32"}]},{"type":"error","name":"EnforcedPause","inputs":[]},{"type":"error","name":"ExpectedPause","inputs":[]}],"bytecode":{"object":"0x6080346200009b57601f6200220c38819003918201601f19168301916001600160401b038311848410176200009f578084926020946040528339810103126200009b57516001600160a01b03811681036200009b5780620000646200007792620000b3565b50620000708162000123565b50620001c3565b50611f4060045561232860055562015180600655604051611f6e90816200025e8239f35b5f80fd5b634e487b7160e01b5f52604160045260245ffd5b6001600160a01b03165f8181525f80516020620021ec833981519152602052604090205460ff166200011e575f8181525f80516020620021ec83398151915260205260408120805460ff191660011790553391905f80516020620021cc8339815191528180a4600190565b505f90565b6001600160a01b03165f8181527f4cc0a64818843a39e4cd2f1885e814e78757c2ef3df4dd05f82735613da08b1160205260409020547f3204c940063673962b481a0395619b3dbbd137589c419e993978c1c71bcf68ec919060ff16620001bd57815f525f60205260405f20815f5260205260405f20600160ff1982541617905533915f80516020620021cc8339815191525f80a4600190565b50505f90565b6001600160a01b03165f8181527f40da0f42a661166d5434d4603ecbff423639c47e2526ad0538d7c3517a62389060205260409020547f92a19c77d2ea87c7f81d50c74403cb2f401780f3ad919571121efe2bdb427eb1919060ff16620001bd57815f525f60205260405f20815f5260205260405f20600160ff1982541617905533915f80516020620021cc8339815191525f80a460019056fe6080806040526004361015610012575f80fd5b5f905f3560e01c90816301ffc9a7146117f7575080631ca22f6a146117ca578063248a9ca31461179e5780632f0a551d1461162f5780632f2ff15d146115f357806336568abe146115aa5780633f4ba83a146115415780633f60d7991461150757806341f948f8146112265780634e7f9b19146110df578063564a565d146110615780635bf31d4d146110445780635c975abb14611022578063789b93b314610e5e57806378fab26014610e235780637d36f4d314610e055780638243af1d14610a21578063824b18371461096b5780638456cb591461091157806391d14854146108c857806398cf7511146108aa578063a217fddf1461088e578063a3ff31b514610859578063a83ba53e14610836578063b9bc38f214610818578063c3187e84146107d8578063c79647e81461079f578063c942adf7146106f7578063d547741f146106b6578063e3064a771461060b578063e682c01514610285578063e931eed814610258578063f1f276501461023a5763f8f619b114610194575f80fd5b3461023757602080600319360112610233576004358252600a81526040822060405192838383549182815201908193835284832090835b81811061021f57505050846101e1910385611955565b60405193838594850191818652518092526040850193925b82811061020857505050500390f35b8351855286955093810193928101926001016101f9565b8254845292860192600192830192016101cb565b5080fd5b80fd5b50346102375780600319360112610237576020600454604051908152f35b503461023757806003193601126102375760015460405160089190911c6001600160a01b03168152602090f35b50346102375760a03660031901126102375761029f61184a565b90600460243510156102375767ffffffffffffffff90604435828111610233576102cd903690600401611876565b9390916102d8611d90565b6102e0611efa565b6001600160a01b038216156105d6576102fa6024356118a4565b6103076024351515611b01565b841561059d576002549361031a85611b62565b60025560405161032981611938565b6001600160a01b038416815260208101916103456024356118a4565b602435835260408201924284526060830190858252608084019033825261036d368c8b611b84565b9260a0860193845260643560c087015260843560e08701528a8852600760205260408820966103c860018060a01b03885116936bffffffffffffffffffffffff60a01b94858b5416178a55516103c2816118a4565b89611b3e565b51600188015551600287015590516003860180549092166001600160a01b0391909116179055518051918211610589576104056004850154611900565b601f8111610545575b509187959391859360209a96508a90601f83116001146104b75760e06040948488958c98956006955f80516020611f198339815191529d9c9b926104ac575b50508160011b915f199060031b1c19161760048501555b60c0810151600585015501519101556001600160a01b039390931680845260088a529220556040519094909182916104a191903360243585611bea565b0390a3604051908152f35b015190505f8061044d565b97969594939291906004840185528b852098855b601f198416811061052b57508899936001845f80516020611f198339815191529b989660069560e09560409a98601f19811610610513575b505050811b016004850155610464565b01515f1960f88460031b161c191690555f8080610503565b828201518b556001909a01998c9950918d01918d016104cb565b60048501865260208620601f840160051c810160208510610582575b601f830160051c8201811061057757505061040e565b5f8155600101610561565b5080610561565b634e487b7160e01b85526041600452602485fd5b60405162461bcd60e51b8152602060048201526011602482015270115d9a59195b98d9481c995c5d5a5c9959607a1b6044820152606490fd5b60405162461bcd60e51b815260206004820152600d60248201526c24b73b30b634b2103a37b5b2b760991b6044820152606490fd5b50346102375761061a36611a19565b610622611d3a565b6127108083111590816106ab575b501561067157816040917fd081f5afbf5e2859f2be3d6c573e1cdd6c8fb93b18ec6145427882fe51507b6a936004558060055582519182526020820152a180f35b60405162461bcd60e51b8152602060048201526012602482015271496e76616c6964207468726573686f6c647360701b6044820152606490fd5b90508111155f610630565b5034610237576040366003190112610237576106f36004356106d6611860565b90808452836020526106ee6001604086200154611deb565b611e88565b5080f35b503461023757602036600319011261023757604090600435815260076020522080549060018060a01b039060ff8360a01c16926107906001830154916002840154908560038601541661074c60048701611977565b926006600588015497015495604051998a9961010095168a5261076e816118a4565b60208a01526040890152606088015260808701528060a08701528501906118c2565b9160c084015260e08301520390f35b5034610237576020366003190112610237576020906040906001600160a01b036107c761184a565b168152600883522054604051908152f35b5034610237576107e736611a19565b91908152600a6020526040812090815483101561023757602061080a8484611a2f565b90546040519160031b1c8152f35b50346102375780600319360112610237576020600254604051908152f35b503461023757602036600319011261023757610850611d3a565b60043560065580f35b503461023757602036600319011261023757602061087d61087861184a565b611c68565b6040519061088a816118a4565b8152f35b5034610237578060031936011261023757602090604051908152f35b50346102375780600319360112610237576020600554604051908152f35b50346102375760403660031901126102375760406108e4611860565b91600435815280602052209060018060a01b03165f52602052602060ff60405f2054166040519015158152f35b503461023757806003193601126102375761092a611d3a565b610932611efa565b600160ff19815416176001557f62e78cea01bee320cd4e420270b5ea74000d11b0c9f74754ebdbfc544b05a2586020604051338152a180f35b50346102375760203660031901126102375761098561184a565b61098d611d3a565b6001600160a01b0381169081156109ea5760018054610100600160a81b03191660089290921b610100600160a81b03169190911790557fc5b28b5e7c2f533cc5a7e4f0dbc31ecae9346229948d3b247c36447ccee2fb178280a280f35b60405162461bcd60e51b815260206004820152600f60248201526e496e76616c6964206164647265737360881b6044820152606490fd5b50346102375760403660031901126102375767ffffffffffffffff602435818111610e0157610a54903690600401611876565b9092610a5e611efa565b610a6d60025460043510611c1c565b6004358152600760205260408120610a89600282015415611ac2565b610a9a600182015460065490611c5b565b4211610dc5578215610d8e57805460ff8160a01c16610ab8816118a4565b60038103610d2c575b50505060035492610ad184611b62565b6003556040519060a0820182811082821117610d185760405260043582526020820190338252610b02368689611b84565b604084810191825242606086015260808501869052878652600960205285208451815592516001840180546001600160a01b0319166001600160a01b039290921691909117905551805191821161058957610b606002840154611900565b601f8111610cd4575b50602090601f8311600114610c66579180608094926004948892610c5b575b50508160011b915f199060031b1c19161760028201555b6060840151600382015501910151151560ff801983541691161790556004358152600a6020526040812080549168010000000000000000831015610c4757506104a1602095610c16847f436e94ee8d1a47178f6f9c4004853a84b8ae47ed07f1d4a70623925bf7cc22489460018997018155611a2f565b81549060031b9086821b915f19901b1916179055604051918291338352604089840152600435966040840191611bca565b634e487b7160e01b81526041600452602490fd5b015190505f80610b88565b600284018652602086209190601f198416875b818110610cbc57509260019285926004966080989610610ca4575b505050811b016002820155610b9f565b01515f1960f88460031b161c191690555f8080610c94565b92936020600181928786015181550195019301610c79565b60028401865260208620601f840160051c810160208510610d11575b601f830160051c82018110610d06575050610b69565b5f8155600101610cf0565b5080610cf0565b634e487b7160e01b5f52604160045260245ffd5b60405190610d39816118a4565b8152600360208201526001600160a01b03821690600435907f45210b2c5921d492f42c0b17204ae9797bd2e28ce32bf0aa0b34751335c763dc90604090a360ff60a01b1916600360a01b1790555f8080610ac1565b60405162461bcd60e51b815260206004820152600f60248201526e1499585cdbdb881c995c5d5a5c9959608a1b6044820152606490fd5b60405162461bcd60e51b8152602060048201526014602482015273111a5cdc1d5d19481c195c9a5bd908195b99195960621b6044820152606490fd5b8280fd5b50346102375780600319360112610237576020600354604051908152f35b503461023757806003193601126102375760206040517f92a19c77d2ea87c7f81d50c74403cb2f401780f3ad919571121efe2bdb427eb18152f35b5034610f7257610e6d36611a19565b90610e76611cc1565b610e836002548210611c1c565b5f52600760205260405f209060ff825460a01c1691610ea1836118a4565b600283149081801561100f575b15610fda5760028101908154158091811591610fc0575b5015610f8857610f7f575b5060015460081c6001600160a01b03169283610eea578480f35b610ef3906118a4565b15610f765760ff60015b16610f07816118a4565b823b15610f725760445f92836040519586948593635b5baf2360e11b85526004850152610f33816118a4565b60248401525af18015610f6757610f4c575b8080808480f35b905067ffffffffffffffff8111610d18576040525f80610f45565b6040513d5f823e3d90fd5b5f80fd5b60ff6002610efd565b4290555f610ed0565b60405162461bcd60e51b815260206004820152601060248201526f5374696c6c20696e206469737075746560801b6044820152606490fd5b610fd291506001015460065490611c5b565b42115f610ec5565b60405162461bcd60e51b815260206004820152600d60248201526c139bdd08199a5b985b1a5e9959609a1b6044820152606490fd5b50611019846118a4565b60018414610eae565b34610f72575f366003190112610f7257602060ff600154166040519015158152f35b34610f72575f366003190112610f72576020600654604051908152f35b34610f72576020366003190112610f72576004355f908152600960205260409020805460018201546001600160a01b03169161109f60028201611977565b6110ce60ff6004600385015494015416916040519586958652602086015260a0604086015260a08501906118c2565b916060840152151560808301520390f35b34610f7257602080600319360112610f72576004355f60e060405161110381611938565b8281528285820152826040820152826060820152826080820152606060a08201528260c082015201526111396002548210611c1c565b5f526007815260405f206040519061115082611938565b80546001600160a01b03808216845293908382019060a01c60ff16611174816118a4565b8152846001840154604086019081526002850154606087019081528260038701541691608088019283526111aa60048801611977565b9460a08901958652600660058901549860c08b01998a5201549660e08a019788526040519a8b9a828c525116908a0152516111e4816118a4565b6040890152516060880152516080870152511660a08501525190611216610100928360c08701526101208601906118c2565b925160e085015251908301520390f35b34610f72576080366003190112610f725761123f61184a565b67ffffffffffffffff90606435828111610f7257611261903690600401611876565b919061126b611d90565b611273611efa565b600191600454602435108015906114f9575b6114f0575b6002549361129785611b62565b6002556112a3846118a4565b600184036114ea57425b85604051916112bb83611938565b6001600160a01b03858116845298899160208501906112d98a6118a4565b89825260408601914283526060870191825260808701913383526112fe368a8d611b84565b9360a0890194855261135460c08a0197602435895260e08b01996044358b525f52600760205260405f209a5116936bffffffffffffffffffffffff60a01b94858c5416178b555161134e816118a4565b8a611b3e565b5160018901555160028801558c6003880192511690825416179055518051918211610d18576113866004860154611900565b601f81116114a2575b509160209a9593918a9795938c90601f83116001146114175792826006935f80516020611f198339815191529b9c96936104a19998965f9261140c575b50508160011b915f199060031b1c19161760048501555b516005840155519101558484165f5260088a528660405f20556040519485941697339085611bea565b015190505f806113cc565b999493929190600485015f528d5f209a5f5b601f19841681106114885750825f80516020611f198339815191529b9c600695936001936104a19b9a999896601f19811610611470575b505050811b0160048501556113e3565b01515f1960f88460031b161c191690555f8080611460565b828201518d556001909c019b8e9b50918f01918f01611429565b600486015f5260205f20601f840160051c810191602085106114e0575b601f0160051c01905b8181106114d5575061138f565b5f81556001016114c8565b90915081906114bf565b5f6112ad565b6002925061128a565b506005546044351015611285565b34610f72575f366003190112610f725760206040517f3204c940063673962b481a0395619b3dbbd137589c419e993978c1c71bcf68ec8152f35b34610f72575f366003190112610f7257611559611d3a565b60015460ff8116156115985760ff19166001557f5db9ee0a495bf2e6ff9c91a7834c1ba4fdd244a5e8aa4e537bd38aeae4b073aa6020604051338152a1005b604051638dfc202b60e01b8152600490fd5b34610f72576040366003190112610f72576115c3611860565b336001600160a01b038216036115e1576115df90600435611e88565b005b60405163334bd91960e11b8152600490fd5b34610f72576040366003190112610f72576115df600435611612611860565b90805f525f60205261162a600160405f200154611deb565b611e0c565b34610f72576060366003190112610f7257600435602435801515809103610f72576044356004811015610f7257611664611cc1565b600354831015611765577f5a87909bff68caaaaf0b3fd9c74eeccc928832f879315e5c6fb7a73612f26c0c91602091845f526009835261174260405f2060048101600181546116b660ff821615611ac2565b6116bf866118a4565b85151580611751575b6116d190611b01565b60ff19161790555491825f526007855260405f20928354907f45210b2c5921d492f42c0b17204ae9797bd2e28ce32bf0aa0b34751335c763dc604060ff8460a01c1693815194611720816118a4565b855261172b866118a4565b848a018690526001600160a01b031693a382611b3e565b600242910155604051908152a2005b5061175b866118a4565b60038614156116c8565b60405162461bcd60e51b8152602060048201526011602482015270111a5cdc1d5d19481b9bdd08199bdd5b99607a1b6044820152606490fd5b34610f72576020366003190112610f72576004355f525f6020526020600160405f200154604051908152f35b34610f72576020366003190112610f725760206117ed6117e861184a565b611a58565b6040519015158152f35b34610f72576020366003190112610f72576004359063ffffffff60e01b8216809203610f7257602091637965db0b60e01b8114908115611839575b5015158152f35b6301ffc9a760e01b14905083611832565b600435906001600160a01b0382168203610f7257565b602435906001600160a01b0382168203610f7257565b9181601f84011215610f725782359167ffffffffffffffff8311610f725760208381860195010111610f7257565b600411156118ae57565b634e487b7160e01b5f52602160045260245ffd5b91908251928382525f5b8481106118ec575050825f602080949584010152601f8019910116010190565b6020818301810151848301820152016118cc565b90600182811c9216801561192e575b602083101461191a57565b634e487b7160e01b5f52602260045260245ffd5b91607f169161190f565b610100810190811067ffffffffffffffff821117610d1857604052565b90601f8019910116810190811067ffffffffffffffff821117610d1857604052565b9060405191825f825461198981611900565b908184526020946001916001811690815f146119f757506001146119b9575b5050506119b792500383611955565b565b5f90815285812095935091905b8183106119df5750506119b793508201015f80806119a8565b855488840185015294850194879450918301916119c6565b925050506119b794925060ff191682840152151560051b8201015f80806119a8565b6040906003190112610f72576004359060243590565b8054821015611a44575f5260205f2001905f90565b634e487b7160e01b5f52603260045260245ffd5b6001600160a01b039081165f81815260086020526040902054918215919082611aa8575b5050611aa3575f526007602052600260ff60405f205460a01c16611a9f816118a4565b1490565b505f90565b9091505f8052600760205260405f20541614155f80611a7c565b15611ac957565b60405162461bcd60e51b815260206004820152601060248201526f105b1c9958591e481c995cdbdb1d995960821b6044820152606490fd5b15611b0857565b60405162461bcd60e51b815260206004820152600e60248201526d496e76616c69642073746174757360901b6044820152606490fd5b90611b48816118a4565b815460ff60a01b191660a09190911b60ff60a01b16179055565b5f198114611b705760010190565b634e487b7160e01b5f52601160045260245ffd5b92919267ffffffffffffffff8211610d185760405191611bae601f8201601f191660200184611955565b829481845281830111610f72578281602093845f960137010152565b908060209392818452848401375f828201840152601f01601f1916010190565b611c199492606092611bfb816118a4565b82526001600160a01b03166020820152604081018290520191611bca565b90565b15611c2357565b60405162461bcd60e51b815260206004820152601060248201526f14995c1bdc9d081b9bdd08199bdd5b9960821b6044820152606490fd5b91908201809211611b7057565b6001600160a01b039081165f81815260086020526040902054918215919082611ca7575b5050611aa3575f52600760205260ff60405f205460a01c1690565b9091505f8052600760205260405f20541614155f80611c8c565b335f9081527f40da0f42a661166d5434d4603ecbff423639c47e2526ad0538d7c3517a62389060205260409020547f92a19c77d2ea87c7f81d50c74403cb2f401780f3ad919571121efe2bdb427eb19060ff1615611d1c5750565b6044906040519063e2517d3f60e01b82523360048301526024820152fd5b335f9081527fad3228b676f7d3cd4284a5443f17f1962b36e491b30a40b2405849e597ba5fb5602052604090205460ff1615611d7257565b60405163e2517d3f60e01b81523360048201525f6024820152604490fd5b335f9081527f4cc0a64818843a39e4cd2f1885e814e78757c2ef3df4dd05f82735613da08b1160205260409020547f3204c940063673962b481a0395619b3dbbd137589c419e993978c1c71bcf68ec9060ff1615611d1c5750565b805f525f60205260405f20335f5260205260ff60405f20541615611d1c5750565b90815f525f60205260405f209060018060a01b031690815f5260205260ff60405f205416155f14611e8257815f525f60205260405f20815f5260205260405f20600160ff1982541617905533917f2f8788117e7eff1d82e926ec794901d17c78024a50270940304540a733656f0d5f80a4600190565b50505f90565b90815f525f60205260405f209060018060a01b031690815f5260205260ff60405f2054165f14611e8257815f525f60205260405f20815f5260205260405f2060ff19815416905533917ff6391f5c32d9c69d2a47ea670b442974b53935d1edc7fd64eb21e047a839171b5f80a4600190565b60ff60015416611f0657565b60405163d93c066560e01b8152600490fdfeb3579ff552be9e1307faafdc5f812c04411b601f2fab788060ba42993becd2eea2646970667358221220e24477e3a747cb0e186111db0f2982a1e3ad434295ad3626c61b152425d275d964736f6c634300081800332f8788117e7eff1d82e926ec794901d17c78024a50270940304540a733656f0dad3228b676f7d3cd4284a5443f17f1962b36e491b30a40b2405849e597ba5fb5","linkReferences":{}},"methodIdentifiers":{"DEFAULT_ADMIN_ROLE()":"a217fddf","REPORTER_ROLE()":"3f60d799","RESOLVER_ROLE()":"78fab260","alphaGuard()":"e931eed8","autoDetectRug(address,uint256,uint256,string)":"41f948f8","disputeCounter()":"7d36f4d3","disputePeriod()":"5bf31d4d","disputes(uint256)":"564a565d","fileDispute(uint256,string)":"8243af1d","finalizeAndNotify(uint256,uint256)":"789b93b3","getReport(uint256)":"4e7f9b19","getReportDisputes(uint256)":"f8f619b1","getRoleAdmin(bytes32)":"248a9ca3","getTokenStatus(address)":"a3ff31b5","grantRole(bytes32,address)":"2f2ff15d","hasRole(bytes32,address)":"91d14854","isRugged(address)":"1ca22f6a","pause()":"8456cb59","paused()":"5c975abb","renounceRole(bytes32,address)":"36568abe","reportCounter()":"b9bc38f2","reportDisputes(uint256,uint256)":"c3187e84","reportToken(address,uint8,string,uint256,uint256)":"e682c015","reports(uint256)":"c942adf7","resolveDispute(uint256,bool,uint8)":"2f0a551d","revokeRole(bytes32,address)":"d547741f","rugThresholdLiquidity()":"f1f27650","rugThresholdPrice()":"98cf7511","setAlphaGuard(address)":"824b1837","setDisputePeriod(uint256)":"a83ba53e","setThresholds(uint256,uint256)":"e3064a77","supportsInterface(bytes4)":"01ffc9a7","tokenLatestReport(address)":"c79647e8","unpause()":"3f4ba83a"},"id":53}