{"abi":[{"type":"constructor","inputs":[],"stateMutability":"nonpayable"},{"type":"function","name":"DEFAULT_ADMIN_ROLE","inputs":[],"outputs":[{"name":"","type":"bytes32","internalType":"bytes32"}],"stateMutability":"view"},{"type":"function","name":"OPERATOR_ROLE","inputs":[],"outputs":[{"name":"","type":"bytes32","internalType":"bytes32"}],"stateMutability":"view"},{"type":"function","name":"VERIFIER_ROLE","inputs":[],"outputs":[{"name":"","type":"bytes32","internalType":"bytes32"}],"stateMutability":"view"},{"type":"function","name":"addRelatedWallet","inputs":[{"name":"dev","type":"address","internalType":"address"},{"name":"wallet","type":"address","internalType":"address"}],"outputs":[],"stateMutability":"nonpayable"},{"type":"function","name":"approveVerification","inputs":[{"name":"dev","type":"address","internalType":"address"}],"outputs":[],"stateMutability":"nonpayable"},{"type":"function","name":"batchUpdateScores","inputs":[{"name":"devs","type":"address[]","internalType":"address[]"},{"name":"scores","type":"uint256[]","internalType":"uint256[]"}],"outputs":[],"stateMutability":"nonpayable"},{"type":"function","name":"blacklistAddress","inputs":[{"name":"addr","type":"address","internalType":"address"},{"name":"reason","type":"string","internalType":"string"}],"outputs":[],"stateMutability":"nonpayable"},{"type":"function","name":"blacklistReasons","inputs":[{"name":"","type":"address","internalType":"address"}],"outputs":[{"name":"","type":"string","internalType":"string"}],"stateMutability":"view"},{"type":"function","name":"blacklistedAddresses","inputs":[{"name":"","type":"address","internalType":"address"}],"outputs":[{"name":"","type":"bool","internalType":"bool"}],"stateMutability":"view"},{"type":"function","name":"bronzeThreshold","inputs":[],"outputs":[{"name":"","type":"uint256","internalType":"uint256"}],"stateMutability":"view"},{"type":"function","name":"devCounter","inputs":[],"outputs":[{"name":"","type":"uint256","internalType":"uint256"}],"stateMutability":"view"},{"type":"function","name":"devLaunches","inputs":[{"name":"","type":"address","internalType":"address"},{"name":"","type":"uint256","internalType":"uint256"}],"outputs":[{"name":"token","type":"address","internalType":"address"},{"name":"chain","type":"uint256","internalType":"uint256"},{"name":"launchTime","type":"uint256","internalType":"uint256"},{"name":"initialLiquidity","type":"uint256","internalType":"uint256"},{"name":"athMarketCap","type":"uint256","internalType":"uint256"},{"name":"currentMarketCap","type":"uint256","internalType":"uint256"},{"name":"isRugged","type":"bool","internalType":"bool"},{"name":"isGraduated","type":"bool","internalType":"bool"},{"name":"holderCount","type":"uint256","internalType":"uint256"}],"stateMutability":"view"},{"type":"function","name":"devList","inputs":[{"name":"","type":"uint256","internalType":"uint256"}],"outputs":[{"name":"","type":"address","internalType":"address"}],"stateMutability":"view"},{"type":"function","name":"devProfiles","inputs":[{"name":"","type":"address","internalType":"address"}],"outputs":[{"name":"wallet","type":"address","internalType":"address"},{"name":"devAlias","type":"string","internalType":"string"},{"name":"score","type":"uint256","internalType":"uint256"},{"name":"tier","type":"uint8","internalType":"enum ReputationRegistry.Tier"},{"name":"verification","type":"uint8","internalType":"enum ReputationRegistry.VerificationStatus"},{"name":"verificationStake","type":"uint256","internalType":"uint256"},{"name":"totalLaunches","type":"uint256","internalType":"uint256"},{"name":"successfulLaunches","type":"uint256","internalType":"uint256"},{"name":"rugCount","type":"uint256","internalType":"uint256"},{"name":"totalVolume","type":"uint256","internalType":"uint256"},{"name":"avgAthMultiplier","type":"uint256","internalType":"uint256"},{"name":"createdAt","type":"uint256","internalType":"uint256"},{"name":"updatedAt","type":"uint256","internalType":"uint256"},{"name":"riskLevel","type":"uint8","internalType":"enum ReputationRegistry.RiskLevel"}],"stateMutability":"view"},{"type":"function","name":"devSubscribers","inputs":[{"name":"","type":"address","internalType":"address"},{"name":"","type":"uint256","internalType":"uint256"}],"outputs":[{"name":"","type":"uint256","internalType":"uint256"}],"stateMutability":"view"},{"type":"function","name":"diamondThreshold","inputs":[],"outputs":[{"name":"","type":"uint256","internalType":"uint256"}],"stateMutability":"view"},{"type":"function","name":"getDevLaunches","inputs":[{"name":"dev","type":"address","internalType":"address"}],"outputs":[{"name":"","type":"tuple[]","internalType":"struct ReputationRegistry.LaunchRecord[]","components":[{"name":"token","type":"address","internalType":"address"},{"name":"chain","type":"uint256","internalType":"uint256"},{"name":"launchTime","type":"uint256","internalType":"uint256"},{"name":"initialLiquidity","type":"uint256","internalType":"uint256"},{"name":"athMarketCap","type":"uint256","internalType":"uint256"},{"name":"currentMarketCap","type":"uint256","internalType":"uint256"},{"name":"isRugged","type":"bool","internalType":"bool"},{"name":"isGraduated","type":"bool","internalType":"bool"},{"name":"holderCount","type":"uint256","internalType":"uint256"}]}],"stateMutability":"view"},{"type":"function","name":"getDevList","inputs":[{"name":"offset","type":"uint256","internalType":"uint256"},{"name":"limit","type":"uint256","internalType":"uint256"}],"outputs":[{"name":"","type":"address[]","internalType":"address[]"}],"stateMutability":"view"},{"type":"function","name":"getDevProfile","inputs":[{"name":"dev","type":"address","internalType":"address"}],"outputs":[{"name":"","type":"tuple","internalType":"struct ReputationRegistry.DevProfile","components":[{"name":"wallet","type":"address","internalType":"address"},{"name":"devAlias","type":"string","internalType":"string"},{"name":"score","type":"uint256","internalType":"uint256"},{"name":"tier","type":"uint8","internalType":"enum ReputationRegistry.Tier"},{"name":"verification","type":"uint8","internalType":"enum ReputationRegistry.VerificationStatus"},{"name":"verificationStake","type":"uint256","internalType":"uint256"},{"name":"totalLaunches","type":"uint256","internalType":"uint256"},{"name":"successfulLaunches","type":"uint256","internalType":"uint256"},{"name":"rugCount","type":"uint256","internalType":"uint256"},{"name":"totalVolume","type":"uint256","internalType":"uint256"},{"name":"avgAthMultiplier","type":"uint256","internalType":"uint256"},{"name":"createdAt","type":"uint256","internalType":"uint256"},{"name":"updatedAt","type":"uint256","internalType":"uint256"},{"name":"riskLevel","type":"uint8","internalType":"enum ReputationRegistry.RiskLevel"}]}],"stateMutability":"view"},{"type":"function","name":"getDevSubscribers","inputs":[{"name":"dev","type":"address","internalType":"address"}],"outputs":[{"name":"","type":"uint256[]","internalType":"uint256[]"}],"stateMutability":"view"},{"type":"function","name":"getRelatedWallets","inputs":[{"name":"dev","type":"address","internalType":"address"}],"outputs":[{"name":"","type":"address[]","internalType":"address[]"}],"stateMutability":"view"},{"type":"function","name":"getRoleAdmin","inputs":[{"name":"role","type":"bytes32","internalType":"bytes32"}],"outputs":[{"name":"","type":"bytes32","internalType":"bytes32"}],"stateMutability":"view"},{"type":"function","name":"getTotalDevCount","inputs":[],"outputs":[{"name":"","type":"uint256","internalType":"uint256"}],"stateMutability":"view"},{"type":"function","name":"getUserSubscriptions","inputs":[{"name":"user","type":"address","internalType":"address"}],"outputs":[{"name":"","type":"uint256[]","internalType":"uint256[]"}],"stateMutability":"view"},{"type":"function","name":"getWinRate","inputs":[{"name":"dev","type":"address","internalType":"address"}],"outputs":[{"name":"","type":"uint256","internalType":"uint256"}],"stateMutability":"view"},{"type":"function","name":"goldThreshold","inputs":[],"outputs":[{"name":"","type":"uint256","internalType":"uint256"}],"stateMutability":"view"},{"type":"function","name":"grantRole","inputs":[{"name":"role","type":"bytes32","internalType":"bytes32"},{"name":"account","type":"address","internalType":"address"}],"outputs":[],"stateMutability":"nonpayable"},{"type":"function","name":"hasRole","inputs":[{"name":"role","type":"bytes32","internalType":"bytes32"},{"name":"account","type":"address","internalType":"address"}],"outputs":[{"name":"","type":"bool","internalType":"bool"}],"stateMutability":"view"},{"type":"function","name":"isRegisteredDev","inputs":[{"name":"","type":"address","internalType":"address"}],"outputs":[{"name":"","type":"bool","internalType":"bool"}],"stateMutability":"view"},{"type":"function","name":"isSubscribed","inputs":[{"name":"","type":"address","internalType":"address"},{"name":"","type":"address","internalType":"address"}],"outputs":[{"name":"","type":"bool","internalType":"bool"}],"stateMutability":"view"},{"type":"function","name":"launchCounter","inputs":[],"outputs":[{"name":"","type":"uint256","internalType":"uint256"}],"stateMutability":"view"},{"type":"function","name":"minScoreForVerification","inputs":[],"outputs":[{"name":"","type":"uint256","internalType":"uint256"}],"stateMutability":"view"},{"type":"function","name":"pause","inputs":[],"outputs":[],"stateMutability":"nonpayable"},{"type":"function","name":"paused","inputs":[],"outputs":[{"name":"","type":"bool","internalType":"bool"}],"stateMutability":"view"},{"type":"function","name":"platinumThreshold","inputs":[],"outputs":[{"name":"","type":"uint256","internalType":"uint256"}],"stateMutability":"view"},{"type":"function","name":"recordLaunch","inputs":[{"name":"dev","type":"address","internalType":"address"},{"name":"token","type":"address","internalType":"address"},{"name":"chainId","type":"uint256","internalType":"uint256"},{"name":"initialLiquidity","type":"uint256","internalType":"uint256"}],"outputs":[],"stateMutability":"nonpayable"},{"type":"function","name":"registerDev","inputs":[{"name":"dev","type":"address","internalType":"address"},{"name":"devAlias_","type":"string","internalType":"string"}],"outputs":[],"stateMutability":"nonpayable"},{"type":"function","name":"relatedWallets","inputs":[{"name":"","type":"address","internalType":"address"},{"name":"","type":"uint256","internalType":"uint256"}],"outputs":[{"name":"","type":"address","internalType":"address"}],"stateMutability":"view"},{"type":"function","name":"renounceRole","inputs":[{"name":"role","type":"bytes32","internalType":"bytes32"},{"name":"callerConfirmation","type":"address","internalType":"address"}],"outputs":[],"stateMutability":"nonpayable"},{"type":"function","name":"requestVerification","inputs":[{"name":"dev","type":"address","internalType":"address"}],"outputs":[],"stateMutability":"nonpayable"},{"type":"function","name":"revokeRole","inputs":[{"name":"role","type":"bytes32","internalType":"bytes32"},{"name":"account","type":"address","internalType":"address"}],"outputs":[],"stateMutability":"nonpayable"},{"type":"function","name":"revokeVerification","inputs":[{"name":"dev","type":"address","internalType":"address"},{"name":"reason","type":"string","internalType":"string"}],"outputs":[],"stateMutability":"nonpayable"},{"type":"function","name":"setMinScoreForVerification","inputs":[{"name":"score","type":"uint256","internalType":"uint256"}],"outputs":[],"stateMutability":"nonpayable"},{"type":"function","name":"setRiskLevel","inputs":[{"name":"dev","type":"address","internalType":"address"},{"name":"level","type":"uint8","internalType":"enum ReputationRegistry.RiskLevel"}],"outputs":[],"stateMutability":"nonpayable"},{"type":"function","name":"setTierThresholds","inputs":[{"name":"_bronze","type":"uint256","internalType":"uint256"},{"name":"_silver","type":"uint256","internalType":"uint256"},{"name":"_gold","type":"uint256","internalType":"uint256"},{"name":"_platinum","type":"uint256","internalType":"uint256"},{"name":"_diamond","type":"uint256","internalType":"uint256"}],"outputs":[],"stateMutability":"nonpayable"},{"type":"function","name":"setVerificationStakeAmount","inputs":[{"name":"amount","type":"uint256","internalType":"uint256"}],"outputs":[],"stateMutability":"nonpayable"},{"type":"function","name":"silverThreshold","inputs":[],"outputs":[{"name":"","type":"uint256","internalType":"uint256"}],"stateMutability":"view"},{"type":"function","name":"subscribe","inputs":[{"name":"subscriber","type":"address","internalType":"address"},{"name":"dev","type":"address","internalType":"address"},{"name":"notifyTelegram","type":"bool","internalType":"bool"},{"name":"notifyDiscord","type":"bool","internalType":"bool"},{"name":"autoBuyEnabled","type":"bool","internalType":"bool"},{"name":"autoBuyAmount","type":"uint256","internalType":"uint256"}],"outputs":[{"name":"subscriptionId","type":"uint256","internalType":"uint256"}],"stateMutability":"nonpayable"},{"type":"function","name":"subscriptionCounter","inputs":[],"outputs":[{"name":"","type":"uint256","internalType":"uint256"}],"stateMutability":"view"},{"type":"function","name":"subscriptions","inputs":[{"name":"","type":"uint256","internalType":"uint256"}],"outputs":[{"name":"subscriber","type":"address","internalType":"address"},{"name":"dev","type":"address","internalType":"address"},{"name":"subscribedAt","type":"uint256","internalType":"uint256"},{"name":"notifyTelegram","type":"bool","internalType":"bool"},{"name":"notifyDiscord","type":"bool","internalType":"bool"},{"name":"autoBuyEnabled","type":"bool","internalType":"bool"},{"name":"autoBuyAmount","type":"uint256","internalType":"uint256"}],"stateMutability":"view"},{"type":"function","name":"supportsInterface","inputs":[{"name":"interfaceId","type":"bytes4","internalType":"bytes4"}],"outputs":[{"name":"","type":"bool","internalType":"bool"}],"stateMutability":"view"},{"type":"function","name":"unpause","inputs":[],"outputs":[],"stateMutability":"nonpayable"},{"type":"function","name":"unsubscribe","inputs":[{"name":"subscriber","type":"address","internalType":"address"},{"name":"dev","type":"address","internalType":"address"}],"outputs":[],"stateMutability":"nonpayable"},{"type":"function","name":"updateLaunchStatus","inputs":[{"name":"dev","type":"address","internalType":"address"},{"name":"launchIndex","type":"uint256","internalType":"uint256"},{"name":"athMarketCap","type":"uint256","internalType":"uint256"},{"name":"currentMarketCap","type":"uint256","internalType":"uint256"},{"name":"holderCount","type":"uint256","internalType":"uint256"},{"name":"isRugged","type":"bool","internalType":"bool"},{"name":"isGraduated","type":"bool","internalType":"bool"}],"outputs":[],"stateMutability":"nonpayable"},{"type":"function","name":"updateScore","inputs":[{"name":"dev","type":"address","internalType":"address"},{"name":"newScore","type":"uint256","internalType":"uint256"}],"outputs":[],"stateMutability":"nonpayable"},{"type":"function","name":"updateSubscription","inputs":[{"name":"subscriptionId","type":"uint256","internalType":"uint256"},{"name":"notifyTelegram","type":"bool","internalType":"bool"},{"name":"notifyDiscord","type":"bool","internalType":"bool"},{"name":"autoBuyEnabled","type":"bool","internalType":"bool"},{"name":"autoBuyAmount","type":"uint256","internalType":"uint256"}],"outputs":[],"stateMutability":"nonpayable"},{"type":"function","name":"userSubscriptions","inputs":[{"name":"","type":"address","internalType":"address"},{"name":"","type":"uint256","internalType":"uint256"}],"outputs":[{"name":"","type":"uint256","internalType":"uint256"}],"stateMutability":"view"},{"type":"function","name":"verificationStakeAmount","inputs":[],"outputs":[{"name":"","type":"uint256","internalType":"uint256"}],"stateMutability":"view"},{"type":"function","name":"whitelistAddress","inputs":[{"name":"addr","type":"address","internalType":"address"}],"outputs":[],"stateMutability":"nonpayable"},{"type":"event","name":"AddressBlacklisted","inputs":[{"name":"addr","type":"address","indexed":true,"internalType":"address"},{"name":"reason","type":"string","indexed":false,"internalType":"string"}],"anonymous":false},{"type":"event","name":"AddressWhitelisted","inputs":[{"name":"addr","type":"address","indexed":true,"internalType":"address"}],"anonymous":false},{"type":"event","name":"DevRegistered","inputs":[{"name":"dev","type":"address","indexed":true,"internalType":"address"},{"name":"devAlias","type":"string","indexed":false,"internalType":"string"}],"anonymous":false},{"type":"event","name":"DevScoreUpdated","inputs":[{"name":"dev","type":"address","indexed":true,"internalType":"address"},{"name":"oldScore","type":"uint256","indexed":false,"internalType":"uint256"},{"name":"newScore","type":"uint256","indexed":false,"internalType":"uint256"},{"name":"newTier","type":"uint8","indexed":false,"internalType":"enum ReputationRegistry.Tier"}],"anonymous":false},{"type":"event","name":"LaunchRecorded","inputs":[{"name":"dev","type":"address","indexed":true,"internalType":"address"},{"name":"token","type":"address","indexed":true,"internalType":"address"},{"name":"chainId","type":"uint256","indexed":false,"internalType":"uint256"}],"anonymous":false},{"type":"event","name":"LaunchUpdated","inputs":[{"name":"dev","type":"address","indexed":true,"internalType":"address"},{"name":"token","type":"address","indexed":true,"internalType":"address"},{"name":"isRugged","type":"bool","indexed":false,"internalType":"bool"},{"name":"isGraduated","type":"bool","indexed":false,"internalType":"bool"}],"anonymous":false},{"type":"event","name":"Paused","inputs":[{"name":"account","type":"address","indexed":false,"internalType":"address"}],"anonymous":false},{"type":"event","name":"RelatedWalletAdded","inputs":[{"name":"dev","type":"address","indexed":true,"internalType":"address"},{"name":"wallet","type":"address","indexed":true,"internalType":"address"}],"anonymous":false},{"type":"event","name":"RoleAdminChanged","inputs":[{"name":"role","type":"bytes32","indexed":true,"internalType":"bytes32"},{"name":"previousAdminRole","type":"bytes32","indexed":true,"internalType":"bytes32"},{"name":"newAdminRole","type":"bytes32","indexed":true,"internalType":"bytes32"}],"anonymous":false},{"type":"event","name":"RoleGranted","inputs":[{"name":"role","type":"bytes32","indexed":true,"internalType":"bytes32"},{"name":"account","type":"address","indexed":true,"internalType":"address"},{"name":"sender","type":"address","indexed":true,"internalType":"address"}],"anonymous":false},{"type":"event","name":"RoleRevoked","inputs":[{"name":"role","type":"bytes32","indexed":true,"internalType":"bytes32"},{"name":"account","type":"address","indexed":true,"internalType":"address"},{"name":"sender","type":"address","indexed":true,"internalType":"address"}],"anonymous":false},{"type":"event","name":"Subscribed","inputs":[{"name":"subscriber","type":"address","indexed":true,"internalType":"address"},{"name":"dev","type":"address","indexed":true,"internalType":"address"},{"name":"subscriptionId","type":"uint256","indexed":false,"internalType":"uint256"}],"anonymous":false},{"type":"event","name":"SubscriptionUpdated","inputs":[{"name":"subscriptionId","type":"uint256","indexed":true,"internalType":"uint256"}],"anonymous":false},{"type":"event","name":"Unpaused","inputs":[{"name":"account","type":"address","indexed":false,"internalType":"address"}],"anonymous":false},{"type":"event","name":"Unsubscribed","inputs":[{"name":"subscriber","type":"address","indexed":true,"internalType":"address"},{"name":"dev","type":"address","indexed":true,"internalType":"address"}],"anonymous":false},{"type":"event","name":"VerificationApproved","inputs":[{"name":"dev","type":"address","indexed":true,"internalType":"address"}],"anonymous":false},{"type":"event","name":"VerificationRequested","inputs":[{"name":"dev","type":"address","indexed":true,"internalType":"address"},{"name":"stakeAmount","type":"uint256","indexed":false,"internalType":"uint256"}],"anonymous":false},{"type":"event","name":"VerificationRevoked","inputs":[{"name":"dev","type":"address","indexed":true,"internalType":"address"},{"name":"reason","type":"string","indexed":false,"internalType":"string"}],"anonymous":false},{"type":"error","name":"AccessControlBadConfirmation","inputs":[]},{"type":"error","name":"AccessControlUnauthorizedAccount","inputs":[{"name":"account","type":"address","internalType":"address"},{"name":"neededRole","type":"bytes32","internalType":"bytes32"}]},{"type":"error","name":"EnforcedPause","inputs":[]},{"type":"error","name":"ExpectedPause","inputs":[]}],"bytecode":{"object":"0x6080604052346200006a5769021e19e0c9bab2400000600555603c60065560146007556028600855603c6009556050600a55605f600b5562000041336200006e565b506200004d33620000de565b5062000059336200017e565b50604051612f4e9081620002198239f35b5f80fd5b6001600160a01b03165f8181525f8051602062003187833981519152602052604090205460ff16620000d9575f8181525f805160206200318783398151915260205260408120805460ff191660011790553391905f80516020620031678339815191528180a4600190565b505f90565b6001600160a01b03165f8181527fee57cd81e84075558e8fcc182a1f4393f91fc97f963a136e66b7f949a62f319f60205260409020547f97667070c54ef182b0f5858b034beac1b6f3089aa2d3188bb1e8929f4fa9b929919060ff166200017857815f525f60205260405f20815f5260205260405f20600160ff1982541617905533915f80516020620031678339815191525f80a4600190565b50505f90565b6001600160a01b03165f8181527f1da0b5176dfe03406af5a6eed66ca01dda9b45ac4da671c3fa379cb93717ef8160205260409020547f0ce23c3e399818cfee81a7ab0880f714e53d7672b08df0fa62f2843416e1ea09919060ff166200017857815f525f60205260405f20815f5260205260405f20600160ff1982541617905533915f80516020620031678339815191525f80a460019056fe6080806040526004361015610012575f80fd5b5f3560e01c90816301ffc9a71461260c57508063083be0d9146125b557806311c6adc2146124af57806322c652f1146120d657806323183cde14612078578063248a9ca31461204c5780632d5bbf6014611fcc5780632e6ca58814611f565780632f2ff15d14611f1a578063330ca16d14611ed1578063340458da14611d1657806336568abe14611ccf5780633a7e7c8a14611a9a5780633dfd46e914611a7d5780633f4ba83a14611a145780633f7fb53b1461193c578063415665851461189857806346434f2b1461181f5780635c975abb146117fd5780635da736a7146117e057806365d97724146116ed57806367315b3e146116725780636a4ea98f14611644578063703304881461162757806371f8fa04146114c857806379beef701461134d5780637bb3c0be146113015780638456cb591461129557806386fb2b85146111ed5780638821d8fe146111d05780638c81136d146111935780638cafef3814611176578063903a829814611159578063914a1e761461112e57806391d14854146110e6578063923363d5146110c5578063a217fddf146110ab578063a9da2a6c14610f0e578063aeafc60114610e5a578063c6d410f914610e3d578063c8b5f76a14610c6e578063c95d6edc14610c17578063d36afe6614610bd5578063d547741f14610b97578063d5749d4214610b5a578063d5b2c19114610b3d578063dcf82c0814610b20578063dd305c5a14610a0d578063e135532c1461093c578063e6eb0ab314610710578063e7705db6146106d6578063f0618ef81461059b578063f3db468a146104e8578063f4396a02146104cb578063f5b541a614610491578063f6416ef61461043f578063f65d083414610422578063f883e4781461032f5763f8b7c449146102a5575f80fd5b3461032b5760208060031936011261032b576001600160a01b036102c761265f565b165f52601460205260405f20906040519081602084549182815201935f5260205f20915f905b82821061031457610310856103048189038261275b565b604051918291826128e1565b0390f35b8354865294850194600193840193909101906102ed565b5f80fd5b3461032b5761033d36612884565b91610346612d62565b60018060a01b031691825f52600d60205261036760ff60405f205416612adc565b825f52600c60205260405f2091600383019283549360ff8560081c16600481101561040e576002036103da576103007f3b56c041a4c2e60799edf637b19f958011d99c582ce76af1d7de3b1c73436f859561ff001916179055600b429101556103d560405192839283612a73565b0390a2005b60405162461bcd60e51b815260206004820152600c60248201526b139bdd081d995c9a599a595960a21b6044820152606490fd5b634e487b7160e01b5f52602160045260245ffd5b3461032b575f36600319011261032b576020600354604051908152f35b3461032b57604036600319011261032b5761045861265f565b610460612675565b9060018060a01b038091165f52601560205260405f2091165f52602052602060ff60405f2054166040519015158152f35b3461032b575f36600319011261032b5760206040517f97667070c54ef182b0f5858b034beac1b6f3089aa2d3188bb1e8929f4fa9b9298152f35b3461032b575f36600319011261032b576020600554604051908152f35b3461032b57604036600319011261032b5761050161265f565b6024359060018060a01b038091165f52600e60205260405f20805483101561032b5761012092610530916129af565b50908154169060ff600182015491600281015460038201546004830154906005840154926007600686015495015496604051988952602089015260408801526060870152608086015260a0850152818116151560c085015260081c16151560e0830152610100820152f35b3461032b5760208060031936011261032b576105b561265f565b6105bd612c93565b6001600160a01b03165f818152600d835260409020546105df9060ff16612adc565b805f52600c825260405f2091600383019283549360ff8560081c16600481101561040e576106915760028201546006541161065c576101007fb4610031e95bec0846790f85fa67e369f500cabbda9395ea19a5fb5e427d27d8949561ff0019161790556005546004820155600b42910155600554604051908152a2005b60405162461bcd60e51b815260048101849052600d60248201526c53636f726520746f6f206c6f7760981b6044820152606490fd5b60405162461bcd60e51b815260048101849052601a60248201527f416c7265616479207265717565737465642f76657269666965640000000000006044820152606490fd5b3461032b575f36600319011261032b5760206040517f0ce23c3e399818cfee81a7ab0880f714e53d7672b08df0fa62f2843416e1ea098152f35b3461032b57602036600319011261032b5761072961265f565b5f6101a060405161073981612721565b828152606060208201528260408201528260608201528260808201528260a08201528260c08201528260e08201528261010082015282610120820152826101408201528261016082015282610180820152015260018060a01b03165f52600c60205260405f20604051906107ac82612721565b80546001600160a01b031682526107c56001820161277d565b602083015260028101546040830152600381015460ff811690600682101561040e5760ff91606085015260081c16600481101561040e5760ff91600c916080850152600481015460a0850152600581015460c0850152600681015460e0850152600781015461010085015260088101546101208501526009810154610140850152600a810154610160850152600b810154610180850152015416600581101561040e576101a082015260405180916020825260018060a01b0381511660208301526103106101a06108a760208401516101c060408701526101e086019061281f565b92604081015160608601526108c46060820151608087019061285d565b6108d6608082015160a087019061286a565b60a081015160c086015260c081015160e086015260e08101516101008601526101008101516101208601526101208101516101408601526101408101516101608601526101608101516101808601526101808101518286015201516101c0840190612877565b3461032b57604036600319011261032b5761095561265f565b61095d612675565b90610966612c93565b60018060a01b0380911690815f52601560205260405f20921691825f5260205260ff60405f205416156109d757805f52601560205260405f20825f5260205260405f2060ff1981541690557f7773c30acd0762ed6b4b92a9aa2c6b3c074e29ad93b334cbed8ba807c596f13a5f80a3005b60405162461bcd60e51b815260206004820152600e60248201526d139bdd081cdd589cd8dc9a58995960921b6044820152606490fd5b3461032b5760a036600319011261032b57600435602435801515810361032b57610a3561294d565b610a3d61295c565b610a45612c93565b5f84815260126020526040902080549093906001600160a01b031615610ae457610a9c610ab693610a866003870193849060ff801983541691151516179055565b825461ff00191690151560081b61ff0016178255565b9062ff0000825491151560101b169062ff00001916179055565b60046084359101557f770280f0e1a3503cfc1a2352eef56f82744bd52392fcb0195f4433001a55f48f5f80a2005b60405162461bcd60e51b815260206004820152601460248201527324b73b30b634b21039bab139b1b934b83a34b7b760611b6044820152606490fd5b3461032b575f36600319011261032b576020600654604051908152f35b3461032b575f36600319011261032b576020600a54604051908152f35b3461032b57602036600319011261032b576001600160a01b03610b7b61265f565b165f526010602052602060ff60405f2054166040519015158152f35b3461032b57604036600319011261032b57610bd3600435610bb6612675565b90805f525f602052610bce600160405f200154612dbd565b612ea6565b005b3461032b57602036600319011261032b5760043560165481101561032b57610bfe60209161268b565b905460405160039290921b1c6001600160a01b03168152f35b3461032b57604036600319011261032b57610c3061265f565b6001600160a01b03165f9081526013602052604090208054602435919082101561032b57602091610c60916126d4565b90546040519160031b1c8152f35b3461032b57608036600319011261032b57610c8761265f565b610c8f612675565b60443590610c9b612c93565b60018060a01b0380931691825f52602090600d8252610cc060ff60405f205416612adc565b835f52600e825260405f20928560405191610cda8361273e565b169586825283820194838652604083019242845260608101606435815260808201905f825260a083015f815260c08401925f845260e08501925f84526101008601965f88528054600160401b811015610e2957610d3c916001820181556129af565b999099610e16577fec706004106adf040da9d2019b94f3ec98cf7f373454a83c39842ad664053e069c600799610dd19851166001600160601b0360a01b8c5416178b555160018b01555160028a0155516003890155516004880155516005870155610dba6006870192511515839060ff801983541691151516179055565b51815461ff00191690151560081b61ff0016179055565b51910155835f52600c8252600560405f2001610ded8154612a51565b9055835f52600c825242600b60405f200155610e0a600354612a51565b600355604051908152a3005b634e487b7160e01b5f525f60045260245ffd5b634e487b7160e01b5f52604160045260245ffd5b3461032b575f36600319011261032b576020600954604051908152f35b3461032b57604036600319011261032b57610e7361265f565b610e7b612675565b610e83612c93565b60018060a01b0380921690815f52600d602052610ea660ff60405f205416612adc565b815f52600f60205260405f20805490600160401b821015610e295781610ed291600187940181556126d4565b949092169382549060031b9185831b921b19161790557fac1049cf51a3fbda57b94985f1de6671eb2a1be09d0289832d7c019c9096a6635f80a3005b3461032b5760e036600319011261032b57610f2761265f565b6024359060a4358015159081810361032b5760c435928315159182850361032b57610f50612c93565b60018060a01b0380921694855f52602096600e885260405f205481101561107657917f02a545e483f0b17c1d3857586fb635a7ce50ad98b1e78d1b292f84b46cdee060959391610fac60409694895f52600e8b52875f206129af565b509160443560048401556064356005840155608435600784015580611067575b61103a575b80611028575b610ff9575b865f52600c885242600b865f2001555416958351928352820152a3005b6006810161010061ff0019825416179055865f52600c88526006855f20016110218154612a51565b9055610fdc565b5060ff600682015460081c1615610fd7565b60068201600160ff19825416179055875f52600c89526007865f20016110608154612a51565b9055610fd1565b5060ff60068301541615610fcc565b60405162461bcd60e51b815260048101899052600d60248201526c092dcecc2d8d2c840d2dcc8caf609b1b6044820152606490fd5b3461032b575f36600319011261032b5760206040515f8152f35b3461032b57602036600319011261032b576110de612d0c565b600435600555005b3461032b57604036600319011261032b576110ff612675565b6004355f525f60205260405f209060018060a01b03165f52602052602060ff60405f2054166040519015158152f35b3461032b57602036600319011261032b57602061115161114c61265f565b612c4f565b604051908152f35b3461032b575f36600319011261032b576020600454604051908152f35b3461032b575f36600319011261032b576020600254604051908152f35b3461032b57602036600319011261032b576001600160a01b036111b461265f565b165f52600d602052602060ff60405f2054166040519015158152f35b3461032b575f36600319011261032b576020600b54604051908152f35b3461032b5760a036600319011261032b57608435606435604435602435600435611215612d0c565b8181108061128c575b80611283575b8061127a575b1561124057600755600855600955600a55600b55005b60405162461bcd60e51b8152602060048201526012602482015271496e76616c6964207468726573686f6c647360701b6044820152606490fd5b5084841061122a565b50838310611224565b5082821061121e565b3461032b575f36600319011261032b576112ad612d0c565b60015460ff81166112ef5760019060ff1916176001557f62e78cea01bee320cd4e420270b5ea74000d11b0c9f74754ebdbfc544b05a2586020604051338152a1005b60405163d93c066560e01b8152600490fd5b3461032b57602036600319011261032b576001600160a01b0361132261265f565b165f52601160205261031061133960405f2061277d565b60405191829160208352602083019061281f565b3461032b5760208060031936011261032b576001600160a01b03908161137161265f565b165f52600e815260405f2080549161138883612b51565b92611396604051948561275b565b80845281840180935f52825f205f915b83831061144357505050506040519281840190828552518091526040840192915f5b8281106113d55785850386f35b8351805188168652808301518684015260408082015190870152606080820151908701526080808201519087015260a0808201519087015260c08082015115159087015260e080820151151590870152610100908101519086015261012090940193928101926001016113c8565b60019085604098969851916114578361273e565b8a85541683528385015482840152600285015460408401526003850154606084015260048501546080840152600585015460a084015260068501549260ff808516151560c0830152600894851c16151560e082015260078601546101008201528152019201920191909593956113a6565b3461032b576114d636612884565b90916114e0612c93565b60018060a01b031690815f52602092601060205260405f2093600194600160ff19825416179055601160205260405f209067ffffffffffffffff8411610e29576115348461152e84546126e9565b846129de565b5f95601f85116001146115a257505061158583807fddbfcbca8a6ec25cc3e99e3a7ddc04420eaa6749c91bffcd405e0c3ecc42d9f496975f91611597575b508160011b915f199060031b1c19161790565b90555b6103d560405192839283612a73565b905084013588611572565b95601f19851696835f5260205f20925f915b89831061161057505050847fddbfcbca8a6ec25cc3e99e3a7ddc04420eaa6749c91bffcd405e0c3ecc42d9f49697106115f7575b5050600183811b019055611588565b8301355f19600386901b60f8161c1916905585806115e8565b8684013585559384019392810192918101916115b4565b3461032b575f36600319011261032b576020600854604051908152f35b3461032b57604036600319011261032b57610310611666602435600435612b76565b6040519182918261296b565b3461032b57604036600319011261032b5761168b61265f565b60243590600582101561032b576116d9906116a4612c93565b60018060a01b031691825f52600d6020526116c560ff60405f205416612adc565b825f52600c602052600c60405f2001612a39565b5f52600c60205242600b60405f2001555f80f35b3461032b57604036600319011261032b5761170661265f565b60243590611712612c93565b60018060a01b031690815f52600d60205261173360ff60405f205416612adc565b606481116117a4577fcf2819d210e9bf43f3ab201358ebb525d733598a39b30c5994d667329b76008d90825f52600c60205260405f206103d560ff6002830192848454945561178185612e54565b90611790600382019283612a21565b600b42910155541660405193849384612abe565b60405162461bcd60e51b8152602060048201526014602482015273053636f7265206d757374206265203c3d203130360641b6044820152606490fd5b3461032b575f36600319011261032b576020600754604051908152f35b3461032b575f36600319011261032b57602060ff600154166040519015158152f35b3461032b5760208060031936011261032b576001600160a01b038061184261265f565b165f52600f60205260405f20916040518092602085549283815201945f5260205f20925f915b83831061187f5761031086611666818a038261275b565b8454811687529581019560019485019490920191611868565b3461032b57602036600319011261032b576118b161265f565b6118b9612c93565b6001600160a01b03165f818152601060209081526040808320805460ff191690556011909152812080546118ec906126e9565b601f811161191d575b50557f4f783c179409b4127238bc9c990bc99b9a651666a0d20b51d6c42849eb88466d5f80a2005b8183526020832061193691601f0160051c8101906129c8565b836118f5565b3461032b57602036600319011261032b5761195561265f565b61195d612d62565b6001600160a01b03165f818152600d60205260409020546119809060ff16612adc565b805f52600c60205260405f2060038101805460ff8160081c16600481101561040e576001036119e1576102009061ff001916179055600b429101557fc08f4058f0b8ad2f4d0a56d453ba6498de665affab33a6f78d7d5ff85cbabcc55f80a2005b60405162461bcd60e51b815260206004820152600b60248201526a4e6f742070656e64696e6760a81b6044820152606490fd5b3461032b575f36600319011261032b57611a2c612d0c565b60015460ff811615611a6b5760ff19166001557f5db9ee0a495bf2e6ff9c91a7834c1ba4fdd244a5e8aa4e537bd38aeae4b073aa6020604051338152a1005b604051638dfc202b60e01b8152600490fd5b3461032b575f36600319011261032b576020601654604051908152f35b3461032b5760c036600319011261032b57611ab361265f565b611abb612675565b611ac361294d565b90611acc61295c565b6084359283151580940361032b57611ae2612c93565b60018060a01b0380931692835f5280602096600d8852611b0860ff60405f205416612adc565b1692835f526015875260405f20855f52875260ff60405f205416611c955760045495611b3387612a51565b6004556040519360e085019185831067ffffffffffffffff841117610e2957611c0089948b600497611c19966040528a8a52818a01908c8252601260408c019342855260608d01981515895260808d01951515865260a08d0197885260c08d019a60a4358c525f52528060405f209b5116906001600160601b0360a01b91828d5416178c5560018c0192511690825416179055516002890155611be96003890194511515859060ff801983541691151516179055565b51835461ff00191690151560081b61ff0016178355565b51815462ff0000191690151560101b62ff000016179055565b51910155805f5260138452611c318360405f20612b1d565b815f5260148452611c458360405f20612b1d565b805f526015845260405f20825f52845260405f20600160ff198254161790557f1299b0ad0a8e7c2403716ae6507195ba96bd8cac7f49d8c129e18f9ae51374f084604051858152a3604051908152f35b60405162461bcd60e51b8152600481018890526012602482015271105b1c9958591e481cdd589cd8dc9a58995960721b6044820152606490fd5b3461032b57604036600319011261032b57611ce8612675565b336001600160a01b03821603611d0457610bd390600435612ea6565b60405163334bd91960e11b8152600490fd5b3461032b57604036600319011261032b5767ffffffffffffffff60043581811161032b57611d4890369060040161291c565b9160243590811161032b57611d6190369060040161291c565b611d69612c93565b808403611e9a575f5b848110611d7b57005b60019083816001600160a01b0380611d9c611d97848c8c612a9a565b612aaa565b165f526020600d815289878a60ff938460405f20541680611e84575b611dcb575b505050505050505001611d72565b868483600c611d97948a611e0a611d977fcf2819d210e9bf43f3ab201358ebb525d733598a39b30c5994d667329b76008d9e611e749c611e559b612a9a565b165f5252611e3b611e358460405f209860028a019e8f549f611e2d848484612a9a565b359055612a9a565b35612e54565b95611e4a600382019788612a21565b600b42910155612a9a565b92611e61888b8d612a9a565b3591541690604051948594169684612abe565b0390a28381888089878a83611dbd565b506064611e9288858b612a9a565b351115611db8565b60405162461bcd60e51b815260206004820152600f60248201526e098cadccee8d040dad2e6dac2e8c6d608b1b6044820152606490fd5b3461032b57604036600319011261032b57611eea61265f565b6001600160a01b03165f9081526014602052604090208054602435919082101561032b57602091610c60916126d4565b3461032b57604036600319011261032b57610bd3600435611f39612675565b90805f525f602052611f51600160405f200154612dbd565b612dde565b3461032b5760208060031936011261032b576001600160a01b03611f7861265f565b165f52601360205260405f20906040519081602084549182815201935f5260205f20915f905b828210611fb557610310856103048189038261275b565b835486529485019460019384019390910190611f9e565b3461032b57602036600319011261032b576004355f52601260205260e060405f2060018060a01b039060ff828254169260018301541691600281015460046003830154920154936040519586526020860152604085015281811615156060850152818160081c161515608085015260101c16151560a083015260c0820152f35b3461032b57602036600319011261032b576004355f525f6020526020600160405f200154604051908152f35b3461032b57602036600319011261032b57600435612094612d0c565b606481116120a157600655005b60405162461bcd60e51b815260206004820152600d60248201526c496e76616c69642073636f726560981b6044820152606490fd5b3461032b576120e436612884565b6120ef929192612c93565b6001600160a01b0382165f908152600d602052604090205460ff16612471576001600160a01b0382161561243a5760405161212981612721565b6001600160a01b038316815267ffffffffffffffff8211610e295760405161215b601f8401601f19166020018261275b565b828152368386011161032b57828560208301375f60208483010152602082015260326040820152600160608201525f60808201525f60a08201525f60c08201525f60e08201525f6101008201525f6101208201525f61014082015242610160820152426101808201525f6101a082015260018060a01b0383165f52600c60205260405f209060018060a01b038151166001600160601b0360a01b835416178255602081015180519067ffffffffffffffff8211610e295761222c8261222360018701546126e9565b600187016129de565b602090601f83116001146123cc5761225b92915f91836123c1575b50508160011b915f199060031b1c19161790565b60018301555b6040810151600283015560038201906060810151600681101561040e576122889083612a21565b608081015191600483101561040e576101a09261ff0082549160081b169061ff00191617905560a0810151600484015560c0810151600584015560e08101516006840155610100810151600784015561012081015160088401556101408101516009840155610160810151600a840155610180810151600b8401550151600581101561040e57600c61231a9201612a39565b6001600160a01b0382165f908152600d60205260409020805460ff1916600117905560165491600160401b831015610e295761237d8360017f3aba431bb4cb7a523a1bbc4a8c56eef5c43f1911fdd33c86f0cb5806eb265bd6950160165561268b565b81546001600160a01b0384811660039390931b92831b921b19161790556002546123a690612a51565b6002556103d560405192839260018060a01b03169583612a73565b015190508880612247565b9190600185015f5260205f20905f935b601f198416851061241f576001945083601f19811610612407575b505050811b016001830155612261565b01515f1960f88460031b161c191690558780806123f7565b818101518355602094850194600190930192909101906123dc565b60405162461bcd60e51b815260206004820152600f60248201526e496e76616c6964206164647265737360881b6044820152606490fd5b60405162461bcd60e51b815260206004820152601660248201527511195d88185b1c9958591e481c9959da5cdd195c995960521b6044820152606490fd5b3461032b57602036600319011261032b576001600160a01b03806124d161265f565b165f52600c60205260405f2090815416600182016124ee9061277d565b916002810154906003810154906004810154600582015460068301546007840154600885015491600986015493600a87015495600b88015497600c015460ff16986040519c8d809d6101c09182918152602001528d0161254d9161281f565b9a60408d015260608c0160ff8216906125659161285d565b60808c019060081c60ff169061257a9161286a565b60a08b015260c08a015260e08901526101008801526101208701526101408601526101608501526101808401526101a0830161031091612877565b3461032b57604036600319011261032b576125ce61265f565b6024359060018060a01b038091165f52600f60205260405f20805483101561032b576020926125fc916126d4565b9190546040519260031b1c168152f35b3461032b57602036600319011261032b576004359063ffffffff60e01b821680920361032b57602091637965db0b60e01b811490811561264e575b5015158152f35b6301ffc9a760e01b14905083612647565b600435906001600160a01b038216820361032b57565b602435906001600160a01b038216820361032b57565b6016548110156126c05760165f527fd833147d7dc355ba459fc788f669e58cfaf9dc25ddcd0702e87d69c7b512428901905f90565b634e487b7160e01b5f52603260045260245ffd5b80548210156126c0575f5260205f2001905f90565b90600182811c92168015612717575b602083101461270357565b634e487b7160e01b5f52602260045260245ffd5b91607f16916126f8565b6101c0810190811067ffffffffffffffff821117610e2957604052565b610120810190811067ffffffffffffffff821117610e2957604052565b90601f8019910116810190811067ffffffffffffffff821117610e2957604052565b9060405191825f825461278f816126e9565b908184526020946001916001811690815f146127fd57506001146127bf575b5050506127bd9250038361275b565b565b5f90815285812095935091905b8183106127e55750506127bd93508201015f80806127ae565b855488840185015294850194879450918301916127cc565b925050506127bd94925060ff191682840152151560051b8201015f80806127ae565b91908251928382525f5b848110612849575050825f602080949584010152601f8019910116010190565b602081830181015184830182015201612829565b90600682101561040e5752565b90600482101561040e5752565b90600582101561040e5752565b604060031982011261032b576004356001600160a01b038116810361032b579160243567ffffffffffffffff9283821161032b578060238301121561032b57816004013593841161032b576024848301011161032b576024019190565b60209060206040818301928281528551809452019301915f5b828110612908575050505090565b8351855293810193928101926001016128fa565b9181601f8401121561032b5782359167ffffffffffffffff831161032b576020808501948460051b01011161032b57565b60443590811515820361032b57565b60643590811515820361032b57565b60209060206040818301928281528551809452019301915f5b828110612992575050505090565b83516001600160a01b031685529381019392810192600101612984565b80548210156126c0575f5260205f209060031b01905f90565b8181106129d3575050565b5f81556001016129c8565b9190601f81116129ed57505050565b6127bd925f5260205f20906020601f840160051c83019310612a17575b601f0160051c01906129c8565b9091508190612a0a565b90600681101561040e5760ff80198354169116179055565b90600581101561040e5760ff80198354169116179055565b5f198114612a5f5760010190565b634e487b7160e01b5f52601160045260245ffd5b90918060409360208452816020850152848401375f828201840152601f01601f1916010190565b91908110156126c05760051b0190565b356001600160a01b038116810361032b5790565b6040906127bd9395949295606082019682526020820152019061285d565b15612ae357565b60405162461bcd60e51b815260206004820152601260248201527111195d881b9bdd081c9959da5cdd195c995960721b6044820152606490fd5b8054600160401b811015610e2957612b3a916001820181556126d4565b819291549060031b91821b915f19901b1916179055565b67ffffffffffffffff8111610e295760051b60200190565b91908203918211612a5f57565b6016549182821015612c2557810191828211612a5f57808311612c1d575b50612b9f8183612b69565b91612bc2612bac84612b51565b93612bba604051958661275b565b808552612b51565b602090601f19013685830137825b828110612bde575050505090565b612be78161268b565b919054612bf48683612b69565b9087518210156126c0576001938591858060a01b039160031b1c169160051b8801015201612bd0565b91505f612b94565b5050506040516020810181811067ffffffffffffffff821117610e29576040525f81525f36813790565b6001600160a01b03165f908152600c602052604090206005810154908115612c8d576006015461271090818102918183041490151715612a5f570490565b50505f90565b335f9081527fee57cd81e84075558e8fcc182a1f4393f91fc97f963a136e66b7f949a62f319f60205260409020547f97667070c54ef182b0f5858b034beac1b6f3089aa2d3188bb1e8929f4fa9b9299060ff1615612cee5750565b6044906040519063e2517d3f60e01b82523360048301526024820152fd5b335f9081527fad3228b676f7d3cd4284a5443f17f1962b36e491b30a40b2405849e597ba5fb5602052604090205460ff1615612d4457565b60405163e2517d3f60e01b81523360048201525f6024820152604490fd5b335f9081527f1da0b5176dfe03406af5a6eed66ca01dda9b45ac4da671c3fa379cb93717ef8160205260409020547f0ce23c3e399818cfee81a7ab0880f714e53d7672b08df0fa62f2843416e1ea099060ff1615612cee5750565b805f525f60205260405f20335f5260205260ff60405f20541615612cee5750565b90815f525f60205260405f209060018060a01b031690815f5260205260ff60405f205416155f14612c8d57815f525f60205260405f20815f5260205260405f20600160ff1982541617905533917f2f8788117e7eff1d82e926ec794901d17c78024a50270940304540a733656f0d5f80a4600190565b600b54811015612ea057600a54811015612e9a57600954811015612e9457600854811015612e8e576007541115612e89575f90565b600190565b50600290565b50600390565b50600490565b50600590565b90815f525f60205260405f209060018060a01b031690815f5260205260ff60405f2054165f14612c8d57815f525f60205260405f20815f5260205260405f2060ff19815416905533917ff6391f5c32d9c69d2a47ea670b442974b53935d1edc7fd64eb21e047a839171b5f80a460019056fea2646970667358221220659b7de1cf1cde71812ac86f3fb59543bbf40ab6d5c0e35b68edc16dae81211364736f6c634300081800332f8788117e7eff1d82e926ec794901d17c78024a50270940304540a733656f0dad3228b676f7d3cd4284a5443f17f1962b36e491b30a40b2405849e597ba5fb5","linkReferences":{}},"methodIdentifiers":{"DEFAULT_ADMIN_ROLE()":"a217fddf","OPERATOR_ROLE()":"f5b541a6","VERIFIER_ROLE()":"e7705db6","addRelatedWallet(address,address)":"aeafc601","approveVerification(address)":"3f7fb53b","batchUpdateScores(address[],uint256[])":"340458da","blacklistAddress(address,string)":"71f8fa04","blacklistReasons(address)":"7bb3c0be","blacklistedAddresses(address)":"d5749d42","bronzeThreshold()":"5da736a7","devCounter()":"8cafef38","devLaunches(address,uint256)":"f3db468a","devList(uint256)":"d36afe66","devProfiles(address)":"11c6adc2","devSubscribers(address,uint256)":"330ca16d","diamondThreshold()":"8821d8fe","getDevLaunches(address)":"79beef70","getDevList(uint256,uint256)":"6a4ea98f","getDevProfile(address)":"e6eb0ab3","getDevSubscribers(address)":"f8b7c449","getRelatedWallets(address)":"46434f2b","getRoleAdmin(bytes32)":"248a9ca3","getTotalDevCount()":"3dfd46e9","getUserSubscriptions(address)":"2e6ca588","getWinRate(address)":"914a1e76","goldThreshold()":"c6d410f9","grantRole(bytes32,address)":"2f2ff15d","hasRole(bytes32,address)":"91d14854","isRegisteredDev(address)":"8c81136d","isSubscribed(address,address)":"f6416ef6","launchCounter()":"f65d0834","minScoreForVerification()":"dcf82c08","pause()":"8456cb59","paused()":"5c975abb","platinumThreshold()":"d5b2c191","recordLaunch(address,address,uint256,uint256)":"c8b5f76a","registerDev(address,string)":"22c652f1","relatedWallets(address,uint256)":"083be0d9","renounceRole(bytes32,address)":"36568abe","requestVerification(address)":"f0618ef8","revokeRole(bytes32,address)":"d547741f","revokeVerification(address,string)":"f883e478","setMinScoreForVerification(uint256)":"23183cde","setRiskLevel(address,uint8)":"67315b3e","setTierThresholds(uint256,uint256,uint256,uint256,uint256)":"86fb2b85","setVerificationStakeAmount(uint256)":"923363d5","silverThreshold()":"70330488","subscribe(address,address,bool,bool,bool,uint256)":"3a7e7c8a","subscriptionCounter()":"903a8298","subscriptions(uint256)":"2d5bbf60","supportsInterface(bytes4)":"01ffc9a7","unpause()":"3f4ba83a","unsubscribe(address,address)":"e135532c","updateLaunchStatus(address,uint256,uint256,uint256,uint256,bool,bool)":"a9da2a6c","updateScore(address,uint256)":"65d97724","updateSubscription(uint256,bool,bool,bool,uint256)":"dd305c5a","userSubscriptions(address,uint256)":"c95d6edc","verificationStakeAmount()":"f4396a02","whitelistAddress(address)":"41566585"},"id":57}