{"abi":[{"type":"constructor","inputs":[{"name":"name_","type":"string","internalType":"string"},{"name":"symbol_","type":"string","internalType":"string"},{"name":"totalSupply_","type":"uint256","internalType":"uint256"},{"name":"creator_","type":"address","internalType":"address"}],"stateMutability":"nonpayable"},{"type":"function","name":"allowance","inputs":[{"name":"owner","type":"address","internalType":"address"},{"name":"spender","type":"address","internalType":"address"}],"outputs":[{"name":"","type":"uint256","internalType":"uint256"}],"stateMutability":"view"},{"type":"function","name":"approve","inputs":[{"name":"spender","type":"address","internalType":"address"},{"name":"value","type":"uint256","internalType":"uint256"}],"outputs":[{"name":"","type":"bool","internalType":"bool"}],"stateMutability":"nonpayable"},{"type":"function","name":"balanceOf","inputs":[{"name":"account","type":"address","internalType":"address"}],"outputs":[{"name":"","type":"uint256","internalType":"uint256"}],"stateMutability":"view"},{"type":"function","name":"burn","inputs":[{"name":"value","type":"uint256","internalType":"uint256"}],"outputs":[],"stateMutability":"nonpayable"},{"type":"function","name":"burnFrom","inputs":[{"name":"account","type":"address","internalType":"address"},{"name":"value","type":"uint256","internalType":"uint256"}],"outputs":[],"stateMutability":"nonpayable"},{"type":"function","name":"createdAt","inputs":[],"outputs":[{"name":"","type":"uint256","internalType":"uint256"}],"stateMutability":"view"},{"type":"function","name":"creator","inputs":[],"outputs":[{"name":"","type":"address","internalType":"address"}],"stateMutability":"view"},{"type":"function","name":"decimals","inputs":[],"outputs":[{"name":"","type":"uint8","internalType":"uint8"}],"stateMutability":"view"},{"type":"function","name":"factory","inputs":[],"outputs":[{"name":"","type":"address","internalType":"address"}],"stateMutability":"view"},{"type":"function","name":"name","inputs":[],"outputs":[{"name":"","type":"string","internalType":"string"}],"stateMutability":"view"},{"type":"function","name":"symbol","inputs":[],"outputs":[{"name":"","type":"string","internalType":"string"}],"stateMutability":"view"},{"type":"function","name":"totalSupply","inputs":[],"outputs":[{"name":"","type":"uint256","internalType":"uint256"}],"stateMutability":"view"},{"type":"function","name":"transfer","inputs":[{"name":"to","type":"address","internalType":"address"},{"name":"value","type":"uint256","internalType":"uint256"}],"outputs":[{"name":"","type":"bool","internalType":"bool"}],"stateMutability":"nonpayable"},{"type":"function","name":"transferFrom","inputs":[{"name":"from","type":"address","internalType":"address"},{"name":"to","type":"address","internalType":"address"},{"name":"value","type":"uint256","internalType":"uint256"}],"outputs":[{"name":"","type":"bool","internalType":"bool"}],"stateMutability":"nonpayable"},{"type":"event","name":"Approval","inputs":[{"name":"owner","type":"address","indexed":true,"internalType":"address"},{"name":"spender","type":"address","indexed":true,"internalType":"address"},{"name":"value","type":"uint256","indexed":false,"internalType":"uint256"}],"anonymous":false},{"type":"event","name":"Transfer","inputs":[{"name":"from","type":"address","indexed":true,"internalType":"address"},{"name":"to","type":"address","indexed":true,"internalType":"address"},{"name":"value","type":"uint256","indexed":false,"internalType":"uint256"}],"anonymous":false},{"type":"error","name":"ERC20InsufficientAllowance","inputs":[{"name":"spender","type":"address","internalType":"address"},{"name":"allowance","type":"uint256","internalType":"uint256"},{"name":"needed","type":"uint256","internalType":"uint256"}]},{"type":"error","name":"ERC20InsufficientBalance","inputs":[{"name":"sender","type":"address","internalType":"address"},{"name":"balance","type":"uint256","internalType":"uint256"},{"name":"needed","type":"uint256","internalType":"uint256"}]},{"type":"error","name":"ERC20InvalidApprover","inputs":[{"name":"approver","type":"address","internalType":"address"}]},{"type":"error","name":"ERC20InvalidReceiver","inputs":[{"name":"receiver","type":"address","internalType":"address"}]},{"type":"error","name":"ERC20InvalidSender","inputs":[{"name":"sender","type":"address","internalType":"address"}]},{"type":"error","name":"ERC20InvalidSpender","inputs":[{"name":"spender","type":"address","internalType":"address"}]}],"bytecode":{"object":"0x604060e0815234620003c25762000cda803803806200001e81620003c6565b9283398101608082820312620003c25781516001600160401b039290838111620003c2578262000050918301620003ec565b6020928383015190858211620003c2576200006d918401620003ec565b906060868401519301519060018060a01b03821695868303620003c2578151818111620002cb576003908154906001948583811c93168015620003b7575b8a841014620003a3578190601f9384811162000350575b508a90848311600114620002eb575f92620002df575b50505f1982851b1c191690851b1782555b8551928311620002cb5760049586548581811c91168015620002c0575b8a821014620002ad5782811162000265575b5088918411600114620001fe579383949184925f95620001f2575b50501b925f19911b1c19161782555b6080523360a0524260c0528315620001dc5760025490828201809211620001c957506002555f8381528083528481208054830190558451918252917fddf252ad1be2c89b69c2b068fc378daa952ba7f163c4a11628f55a4df523b3ef91a35161087d90816200045d82396080518161055f015260a05181610154015260c0518161011d0152f35b601190634e487b7160e01b5f525260245ffd5b6024905f86519163ec442f0560e01b8352820152fd5b015193505f8062000133565b9190601f19841692875f52848a5f20945f5b8c898383106200024d575050501062000233575b50505050811b01825562000142565b01519060f8845f19921b161c191690555f80808062000224565b86860151895590970196948501948893500162000210565b875f52895f208380870160051c8201928c8810620002a3575b0160051c019086905b8281106200029757505062000118565b5f815501869062000287565b925081926200027e565b602288634e487b7160e01b5f525260245ffd5b90607f169062000106565b634e487b7160e01b5f52604160045260245ffd5b015190505f80620000d8565b5f8681528c8120899550929190601f198516908e5b82821062000338575050841162000320575b505050811b018255620000e9565b01515f1983871b60f8161c191690555f808062000312565b8385015186558b979095019493840193018e62000300565b909150845f528a5f208480850160051c8201928d861062000399575b918991869594930160051c01915b8281106200038a575050620000c2565b5f81558594508991016200037a565b925081926200036c565b634e487b7160e01b5f52602260045260245ffd5b92607f1692620000ab565b5f80fd5b6040519190601f01601f191682016001600160401b03811183821017620002cb57604052565b919080601f84011215620003c25782516001600160401b038111620002cb5760209062000422601f8201601f19168301620003c6565b92818452828287010111620003c2575f5b818110620004485750825f9394955001015290565b85810183015184820184015282016200043356fe6080604090808252600480361015610015575f80fd5b5f3560e01c91826302d05d3f1461054d5750816306fdde0314610472578163095ea7b3146103ca57816318160ddd146103ac57816323b872dd14610370578163313ce5671461035557816342966c681461033957816370a082311461030357816379cc6790146102d257816395d89b41146101b357508063a9059cbb14610183578063c45a015514610140578063cf09e0d0146101065763dd62ed3e146100ba575f80fd5b346101025780600319360112610102576020906100d56105d5565b6100dd6105eb565b9060018060a01b038091165f5260018452825f2091165f528252805f20549051908152f35b5f80fd5b5034610102575f36600319011261010257602090517f00000000000000000000000000000000000000000000000000000000000000008152f35b5034610102575f36600319011261010257517f00000000000000000000000000000000000000000000000000000000000000006001600160a01b03168152602090f35b50346101025780600319360112610102576020906101ac6101a26105d5565b60243590336106ce565b5160018152f35b8234610102575f366003190112610102578051905f835460018160011c90600183169283156102c8575b60209384841081146102b5578388529081156102995750600114610245575b505050829003601f01601f191682019267ffffffffffffffff841183851017610232575082918261022e92528261058e565b0390f35b604190634e487b7160e01b5f525260245ffd5b5f878152929350837f8a35acfbc15ff81a39ae7d344fd709f28e8600b4aa8c65c6b64bfe7fe36bd19b5b83851061028557505050508301018480806101fc565b80548886018301529301928490820161026f565b60ff1916878501525050151560051b84010190508480806101fc565b602289634e487b7160e01b5f525260245ffd5b91607f16916101dd565b823461010257366003190112610102576103016102ed6105d5565b602435906102fc823383610601565b6107a8565b005b8234610102576020366003190112610102576020906001600160a01b036103286105d5565b165f525f8252805f20549051908152f35b34610102576020366003190112610102576103019035336107a8565b8234610102575f366003190112610102576020905160128152f35b8234610102576060366003190112610102576020906101ac6103906105d5565b6103986105eb565b604435916103a7833383610601565b6106ce565b8234610102575f366003190112610102576020906002549051908152f35b82346101025780600319360112610102576103e36105d5565b60243590331561045c576001600160a01b03169081156104465760209350335f5260018452825f20825f52845280835f205582519081527f8c5be1e5ebec7d5bd14f71427d1e84f3dd0314c0f7b2291e5b200ac8c7c3b925843392a35160018152f35b8251634a1406b160e11b81525f81860152602490fd5b825163e602df0560e01b81525f81860152602490fd5b8234610102575f366003190112610102578051905f60035460018160011c9060018316928315610543575b60209384841081146102b55783885290811561029957506001146104ed57505050829003601f01601f191682019267ffffffffffffffff841183851017610232575082918261022e92528261058e565b60035f908152929350837fc2575a0e9e593c00f959f8c92f12db2869c3395a3b0502d05e2516446f71f85b5b83851061052f57505050508301018480806101fc565b805488860183015293019284908201610519565b91607f169161049d565b34610102575f366003190112610102577f00000000000000000000000000000000000000000000000000000000000000006001600160a01b03168152602090f35b602080825282518183018190529093925f5b8281106105c157505060409293505f838284010152601f8019910116010190565b8181018601518482016040015285016105a0565b600435906001600160a01b038216820361010257565b602435906001600160a01b038216820361010257565b919060018060a01b0380931692835f526001602052604093845f2091831691825f52602052845f2054925f19841061063c575b505050505050565b84841061069e57508015610687578115610670575f526001602052835f20905f5260205203905f20555f8080808080610634565b8451634a1406b160e11b81525f6004820152602490fd5b845163e602df0560e01b81525f6004820152602490fd5b8551637dc7a0d960e11b81526001600160a01b039190911660048201526024810184905260448101859052606490fd5b916001600160a01b03808416928315610790571692831561077857825f525f60205260405f2054908282106107465750817fddf252ad1be2c89b69c2b068fc378daa952ba7f163c4a11628f55a4df523b3ef92602092855f525f84520360405f2055845f5260405f20818154019055604051908152a3565b60405163391434e360e21b81526001600160a01b03919091166004820152602481019190915260448101829052606490fd5b60405163ec442f0560e01b81525f6004820152602490fd5b604051634b637e8f60e11b81525f6004820152602490fd5b91906001600160a01b03831690811561079057815f525f60205260405f20549381851061081557506020817fddf252ad1be2c89b69c2b068fc378daa952ba7f163c4a11628f55a4df523b3ef925f95968587528684520360408620558060025403600255604051908152a3565b60405163391434e360e21b81526001600160a01b03919091166004820152602481018590526044810191909152606490fdfea2646970667358221220c3272d40ee08fa698fa3847555179e9d5fd74b847ca14ae4c5b7b5240b0a24a764736f6c63430008180033","linkReferences":{}},"methodIdentifiers":{"allowance(address,address)":"dd62ed3e","approve(address,uint256)":"095ea7b3","balanceOf(address)":"70a08231","burn(uint256)":"42966c68","burnFrom(address,uint256)":"79cc6790","createdAt()":"cf09e0d0","creator()":"02d05d3f","decimals()":"313ce567","factory()":"c45a0155","name()":"06fdde03","symbol()":"95d89b41","totalSupply()":"18160ddd","transfer(address,uint256)":"a9059cbb","transferFrom(address,address,uint256)":"23b872dd"},"id":58}