{"abi":[{"type":"constructor","inputs":[{"name":"_feeRecipient","type":"address","internalType":"address"}],"stateMutability":"nonpayable"},{"type":"function","name":"DEFAULT_ADMIN_ROLE","inputs":[],"outputs":[{"name":"","type":"bytes32","internalType":"bytes32"}],"stateMutability":"view"},{"type":"function","name":"OPERATOR_ROLE","inputs":[],"outputs":[{"name":"","type":"bytes32","internalType":"bytes32"}],"stateMutability":"view"},{"type":"function","name":"allTokens","inputs":[{"name":"","type":"uint256","internalType":"uint256"}],"outputs":[{"name":"","type":"address","internalType":"address"}],"stateMutability":"view"},{"type":"function","name":"calculateFee","inputs":[{"name":"creator","type":"address","internalType":"address"}],"outputs":[{"name":"","type":"uint256","internalType":"uint256"}],"stateMutability":"view"},{"type":"function","name":"createToken","inputs":[{"name":"name_","type":"string","internalType":"string"},{"name":"symbol_","type":"string","internalType":"string"},{"name":"totalSupply_","type":"uint256","internalType":"uint256"}],"outputs":[{"name":"tokenAddress","type":"address","internalType":"address"}],"stateMutability":"payable"},{"type":"function","name":"createTokenFree","inputs":[{"name":"name_","type":"string","internalType":"string"},{"name":"symbol_","type":"string","internalType":"string"},{"name":"totalSupply_","type":"uint256","internalType":"uint256"},{"name":"creator_","type":"address","internalType":"address"}],"outputs":[{"name":"tokenAddress","type":"address","internalType":"address"}],"stateMutability":"nonpayable"},{"type":"function","name":"creatorTokens","inputs":[{"name":"","type":"address","internalType":"address"},{"name":"","type":"uint256","internalType":"uint256"}],"outputs":[{"name":"","type":"address","internalType":"address"}],"stateMutability":"view"},{"type":"function","name":"feeRecipient","inputs":[],"outputs":[{"name":"","type":"address","internalType":"address"}],"stateMutability":"view"},{"type":"function","name":"getAllTokens","inputs":[{"name":"offset","type":"uint256","internalType":"uint256"},{"name":"limit","type":"uint256","internalType":"uint256"}],"outputs":[{"name":"","type":"address[]","internalType":"address[]"}],"stateMutability":"view"},{"type":"function","name":"getCreatorTokens","inputs":[{"name":"creator","type":"address","internalType":"address"}],"outputs":[{"name":"","type":"address[]","internalType":"address[]"}],"stateMutability":"view"},{"type":"function","name":"getRoleAdmin","inputs":[{"name":"role","type":"bytes32","internalType":"bytes32"}],"outputs":[{"name":"","type":"bytes32","internalType":"bytes32"}],"stateMutability":"view"},{"type":"function","name":"getTokenInfo","inputs":[{"name":"tokenAddress","type":"address","internalType":"address"}],"outputs":[{"name":"","type":"tuple","internalType":"struct TokenFactory.TokenInfo","components":[{"name":"tokenAddress","type":"address","internalType":"address"},{"name":"name","type":"string","internalType":"string"},{"name":"symbol","type":"string","internalType":"string"},{"name":"totalSupply","type":"uint256","internalType":"uint256"},{"name":"creator","type":"address","internalType":"address"},{"name":"createdAt","type":"uint256","internalType":"uint256"},{"name":"launchFee","type":"uint256","internalType":"uint256"},{"name":"isVerified","type":"bool","internalType":"bool"}]}],"stateMutability":"view"},{"type":"function","name":"getTotalTokenCount","inputs":[],"outputs":[{"name":"","type":"uint256","internalType":"uint256"}],"stateMutability":"view"},{"type":"function","name":"grantRole","inputs":[{"name":"role","type":"bytes32","internalType":"bytes32"},{"name":"account","type":"address","internalType":"address"}],"outputs":[],"stateMutability":"nonpayable"},{"type":"function","name":"hasRole","inputs":[{"name":"role","type":"bytes32","internalType":"bytes32"},{"name":"account","type":"address","internalType":"address"}],"outputs":[{"name":"","type":"bool","internalType":"bool"}],"stateMutability":"view"},{"type":"function","name":"isSymbolAvailable","inputs":[{"name":"symbol_","type":"string","internalType":"string"}],"outputs":[{"name":"","type":"bool","internalType":"bool"}],"stateMutability":"view"},{"type":"function","name":"launchConfig","inputs":[],"outputs":[{"name":"minSupply","type":"uint256","internalType":"uint256"},{"name":"maxSupply","type":"uint256","internalType":"uint256"},{"name":"baseFee","type":"uint256","internalType":"uint256"},{"name":"verifiedDevDiscount","type":"uint256","internalType":"uint256"},{"name":"requireVerification","type":"bool","internalType":"bool"}],"stateMutability":"view"},{"type":"function","name":"pause","inputs":[],"outputs":[],"stateMutability":"nonpayable"},{"type":"function","name":"paused","inputs":[],"outputs":[{"name":"","type":"bool","internalType":"bool"}],"stateMutability":"view"},{"type":"function","name":"renounceRole","inputs":[{"name":"role","type":"bytes32","internalType":"bytes32"},{"name":"callerConfirmation","type":"address","internalType":"address"}],"outputs":[],"stateMutability":"nonpayable"},{"type":"function","name":"reputationRegistry","inputs":[],"outputs":[{"name":"","type":"address","internalType":"address"}],"stateMutability":"view"},{"type":"function","name":"revokeRole","inputs":[{"name":"role","type":"bytes32","internalType":"bytes32"},{"name":"account","type":"address","internalType":"address"}],"outputs":[],"stateMutability":"nonpayable"},{"type":"function","name":"setFeeRecipient","inputs":[{"name":"_feeRecipient","type":"address","internalType":"address"}],"outputs":[],"stateMutability":"nonpayable"},{"type":"function","name":"setLaunchConfig","inputs":[{"name":"minSupply","type":"uint256","internalType":"uint256"},{"name":"maxSupply","type":"uint256","internalType":"uint256"},{"name":"baseFee","type":"uint256","internalType":"uint256"},{"name":"verifiedDevDiscount","type":"uint256","internalType":"uint256"},{"name":"requireVerification","type":"bool","internalType":"bool"}],"outputs":[],"stateMutability":"nonpayable"},{"type":"function","name":"setReputationRegistry","inputs":[{"name":"_registry","type":"address","internalType":"address"}],"outputs":[],"stateMutability":"nonpayable"},{"type":"function","name":"supportsInterface","inputs":[{"name":"interfaceId","type":"bytes4","internalType":"bytes4"}],"outputs":[{"name":"","type":"bool","internalType":"bool"}],"stateMutability":"view"},{"type":"function","name":"symbolExists","inputs":[{"name":"","type":"string","internalType":"string"}],"outputs":[{"name":"","type":"bool","internalType":"bool"}],"stateMutability":"view"},{"type":"function","name":"tokenCounter","inputs":[],"outputs":[{"name":"","type":"uint256","internalType":"uint256"}],"stateMutability":"view"},{"type":"function","name":"tokens","inputs":[{"name":"","type":"address","internalType":"address"}],"outputs":[{"name":"tokenAddress","type":"address","internalType":"address"},{"name":"name","type":"string","internalType":"string"},{"name":"symbol","type":"string","internalType":"string"},{"name":"totalSupply","type":"uint256","internalType":"uint256"},{"name":"creator","type":"address","internalType":"address"},{"name":"createdAt","type":"uint256","internalType":"uint256"},{"name":"launchFee","type":"uint256","internalType":"uint256"},{"name":"isVerified","type":"bool","internalType":"bool"}],"stateMutability":"view"},{"type":"function","name":"totalFeesCollected","inputs":[],"outputs":[{"name":"","type":"uint256","internalType":"uint256"}],"stateMutability":"view"},{"type":"function","name":"unpause","inputs":[],"outputs":[],"stateMutability":"nonpayable"},{"type":"function","name":"verifyToken","inputs":[{"name":"tokenAddress","type":"address","internalType":"address"}],"outputs":[],"stateMutability":"nonpayable"},{"type":"event","name":"ConfigUpdated","inputs":[{"name":"param","type":"string","indexed":false,"internalType":"string"}],"anonymous":false},{"type":"event","name":"FeeRecipientUpdated","inputs":[{"name":"newRecipient","type":"address","indexed":true,"internalType":"address"}],"anonymous":false},{"type":"event","name":"Paused","inputs":[{"name":"account","type":"address","indexed":false,"internalType":"address"}],"anonymous":false},{"type":"event","name":"RoleAdminChanged","inputs":[{"name":"role","type":"bytes32","indexed":true,"internalType":"bytes32"},{"name":"previousAdminRole","type":"bytes32","indexed":true,"internalType":"bytes32"},{"name":"newAdminRole","type":"bytes32","indexed":true,"internalType":"bytes32"}],"anonymous":false},{"type":"event","name":"RoleGranted","inputs":[{"name":"role","type":"bytes32","indexed":true,"internalType":"bytes32"},{"name":"account","type":"address","indexed":true,"internalType":"address"},{"name":"sender","type":"address","indexed":true,"internalType":"address"}],"anonymous":false},{"type":"event","name":"RoleRevoked","inputs":[{"name":"role","type":"bytes32","indexed":true,"internalType":"bytes32"},{"name":"account","type":"address","indexed":true,"internalType":"address"},{"name":"sender","type":"address","indexed":true,"internalType":"address"}],"anonymous":false},{"type":"event","name":"TokenCreated","inputs":[{"name":"tokenAddress","type":"address","indexed":true,"internalType":"address"},{"name":"creator","type":"address","indexed":true,"internalType":"address"},{"name":"name","type":"string","indexed":false,"internalType":"string"},{"name":"symbol","type":"string","indexed":false,"internalType":"string"},{"name":"totalSupply","type":"uint256","indexed":false,"internalType":"uint256"},{"name":"fee","type":"uint256","indexed":false,"internalType":"uint256"}],"anonymous":false},{"type":"event","name":"TokenVerified","inputs":[{"name":"tokenAddress","type":"address","indexed":true,"internalType":"address"}],"anonymous":false},{"type":"event","name":"Unpaused","inputs":[{"name":"account","type":"address","indexed":false,"internalType":"address"}],"anonymous":false},{"type":"error","name":"AccessControlBadConfirmation","inputs":[]},{"type":"error","name":"AccessControlUnauthorizedAccount","inputs":[{"name":"account","type":"address","internalType":"address"},{"name":"neededRole","type":"bytes32","internalType":"bytes32"}]},{"type":"error","name":"EnforcedPause","inputs":[]},{"type":"error","name":"ExpectedPause","inputs":[]},{"type":"error","name":"ReentrancyGuardReentrantCall","inputs":[]}],"bytecode":{"object":"0x6080346200018357601f6200323138819003918201601f19168301926001600160401b03929091838511838610176200012b5781602092849260409788528339810103126200018357516001600160a01b03811690819003620001835760017f9b779b17422d0df92223018b32b4d1fa46e071723d6817e2486d003becc55f005580156200013f57600780546001600160a01b03191691909117905581519060a08201908111828210176200012b57825269d3c21bcecceda10000008082526c0c9f2c9cd04674edea40000000806020840152662386f26fc100009182858501525f608061138895866060820152015260025560035560045560055560ff1960065416600655620001103362000187565b506200011c33620001f7565b5051612f599081620002988239f35b634e487b7160e01b5f52604160045260245ffd5b825162461bcd60e51b815260206004820152601560248201527f496e76616c69642066656520726563697069656e7400000000000000000000006044820152606490fd5b5f80fd5b6001600160a01b03165f8181525f8051602062003211833981519152602052604090205460ff16620001f2575f8181525f805160206200321183398151915260205260408120805460ff191660011790553391905f80516020620031f18339815191528180a4600190565b505f90565b6001600160a01b03165f8181527fee57cd81e84075558e8fcc182a1f4393f91fc97f963a136e66b7f949a62f319f60205260409020547f97667070c54ef182b0f5858b034beac1b6f3089aa2d3188bb1e8929f4fa9b929919060ff166200029157815f525f60205260405f20815f5260205260405f20600160ff1982541617905533915f80516020620031f18339815191525f80a4600190565b50505f9056fe608080604052600436101562000013575f80fd5b5f3560e01c90816301ffc9a71462001a2c575080631f69565f14620018ce578063248a9ca314620018a05780632f2ff15d146200185c57806336568abe146200180e5780633f0ce71414620017c55780633f4ba83a14620017575780634130276b1462001697578063465f5eb8146200166c5780634690484014620016425780635293fc6f14620015fc5780635972006114620014a05780635b0605301462000d5f5780635c975abb1462000d3b57806360c6d8ae1462000d1c578063634282af1462000cd557806374abfa541462000c535780638456cb591462000bf55780638c659fb81462000b7b57806391d148541462000b2f5780639a0438321462000af7578063a217fddf1462000adb578063c8db44e31462000ab1578063d082e3811462000a92578063d547741f1462000a4c578063db3fa4cc14620009ee578063e48603391462000926578063e53626671462000907578063e74b981b1462000861578063ebe4f36a1462000807578063f05ff50514620001dd5763f5b541a6146200019d575f80fd5b34620001d9575f366003190112620001d95760206040517f97667070c54ef182b0f5858b034beac1b6f3089aa2d3188bb1e8929f4fa9b9298152f35b5f80fd5b34620001d9576080366003190112620001d9576004356001600160401b038111620001d9576200021290369060040162001afc565b6024356001600160401b038111620001d9576200023490369060040162001afc565b9190606435906001600160a01b0382168203620001d957620002556200209e565b82151580620007fb575b6200026a9062001d51565b83151580620007ef575b6200027f9062001d8d565b620002a360ff60405186848237602081888101600d81520301902054161562001dcb565b6001600160a01b03821615620007b857604051610cda8082018281106001600160401b03821117620006c55784620002eb9184936200224a85398886898c6044359462001e28565b03905ff0938415620007ad5760405195620003068762001bd2565b6001600160a01b03861687526200031f36868362001c2d565b60208801526200033136838562001c2d565b60408881019190915260443560608901526001600160a01b0385811660808a01524260a08a01525f60c08a01819052600160e08b01528882168152600b6020908152929020895181546001600160a01b0319169216919091178155908801518051906001600160401b038211620006c5578190620003b3600185015462001c68565b601f811162000758575b50602090601f8311600114620006e5575f92620006d9575b50508160011b915f199060031b1c19161760018201555b60408801519788516001600160401b038111620006c55762000412600284015462001c68565b99601f8b116200067c575b60209a508a90601f8311600114620005d75793600760e06200055a95857fc12630d761ddbf18b9530f31d91e67493535a2b635711bcff59fded8bf381cce9b9996620004df96620005689c9a5f92620005cb575b50508160011b915f199060031b1c19161760028501555b606081015160038501556004840160018060a01b036080830151166001600160601b0360a01b82541617905560a0810151600585015560c081015160068501550151151591019060ff801983541691151516179055565b6001600160a01b038781165f908152600c8c526040902062000504918b169062001eae565b620005186001600160a01b038a1662001e6e565b604051838582378a81858101600d815203019020600160ff198254161790556200054460095462001ece565b6009556040519760808952608089019162001e08565b918683038988015262001e08565b60443560408501525f60608501526001600160a01b0392831693928516929081900390a3604051906001600160a01b0381167f62f9febaf4690d6df2716e783e6c2352e1fa133b117d53882d323c316161464b5f80a26001600160a01b03168152f35b015190505f8062000471565b90600285015f528b5f20915f5b601f198516811062000664575060e06200055a95600186620004df96620005689c9a966007967fc12630d761ddbf18b9530f31d91e67493535a2b635711bcff59fded8bf381cce9f9d9a601f198116106200064b575b505050811b01600285015562000488565b01515f1960f88460031b161c191690555f80806200063a565b91928d600181928685015181550194019201620005e4565b600284015f5260205f20601f830160051c810160208410620006bd575b601f8d0160051c82018110620006b15750506200041d565b5f815560010162000699565b508062000699565b634e487b7160e01b5f52604160045260245ffd5b015190508a80620003d5565b9250600184015f5260205f20905f935b601f19841685106200073c576001945083601f1981161062000723575b505050811b016001820155620003ec565b01515f1960f88460031b161c191690558a808062000712565b81810151835560209485019460019093019290910190620006f5565b909150600184015f5260205f20601f840160051c810160208510620007a5575b90849392915b601f830160051c8201811062000796575050620003bd565b5f81558594506001016200077e565b508062000778565b6040513d5f823e3d90fd5b60405162461bcd60e51b815260206004820152600f60248201526e24b73b30b634b21031b932b0ba37b960891b6044820152606490fd5b50600a84111562000274565b5060208311156200025f565b34620001d9576020366003190112620001d9576004356001600160401b038111620001d95760ff6020620008418193369060040162001afc565b91908260405193849283378101600d815203019020541615604051908152f35b34620001d9576020366003190112620001d9576200087e62001a84565b6200088862002047565b6001600160a01b03168015620008d057600780546001600160a01b031916821790557f7a7b5a0a132f9e0581eb8527f66eae9ee89c2a3e79d4ac7e41a1f1f4d48a7fc25f80a2005b60405162461bcd60e51b815260206004820152600f60248201526e496e76616c6964206164647265737360881b6044820152606490fd5b34620001d9575f366003190112620001d9576020600e54604051908152f35b34620001d9576020366003190112620001d9576001600160a01b03806200094c62001a84565b165f52600b60205260405f209080825416906200096c6001840162001ca3565b926200097b6002820162001ca3565b90600381015492600482015416600582015490620009ce60ff600760068601549501541694620009bf604051998a99610100908b528060208c01528a019062001ad5565b9088820360408a015262001ad5565b946060870152608086015260a085015260c0840152151560e08301520390f35b34620001d9576040366003190112620001d95762000a0b62001a84565b6024359060018060a01b038091165f52600c60205260405f208054831015620001d95760209262000a3c9162001b76565b9190546040519260031b1c168152f35b34620001d9576040366003190112620001d95762000a9060043562000a7062001a9b565b90805f525f60205262000a8a600160405f20015462002118565b620021b7565b005b34620001d9575f366003190112620001d9576020600954604051908152f35b34620001d9575f366003190112620001d9576008546040516001600160a01b039091168152602090f35b34620001d9575f366003190112620001d95760206040515f8152f35b34620001d9576040366003190112620001d95762000b2b62000b1e60243560043562001f59565b6040519182918262001b8c565b0390f35b34620001d9576040366003190112620001d95762000b4c62001a9b565b6004355f525f60205260405f209060018060a01b03165f52602052602060ff60405f2054166040519015158152f35b34620001d9576020366003190112620001d9576004356001600160401b038111620001d95736602382011215620001d95760ff62000bdf602062000bcb8194369060248160040135910162001c2d565b816040519382858094519384920162001ab2565b8101600d81520301902054166040519015158152f35b34620001d9575f366003190112620001d95762000c1162002047565b62000c1b6200222a565b600160ff19815416176001557f62e78cea01bee320cd4e420270b5ea74000d11b0c9f74754ebdbfc544b05a2586020604051338152a1005b34620001d957602080600319360112620001d9576001600160a01b038062000c7a62001a84565b165f52600c60205260405f20916040518092602085549283815201945f5260205f20925f915b83831062000cbb5762000b2b8662000b1e818a038262001bef565b845481168752958101956001948501949092019162000ca0565b34620001d9576020366003190112620001d957600435600e54811015620001d95762000d0360209162001b2c565b905460405160039290921b1c6001600160a01b03168152f35b34620001d9575f366003190112620001d9576020600a54604051908152f35b34620001d9575f366003190112620001d957602060ff600154166040519015158152f35b6060366003190112620001d9576004356001600160401b038111620001d95762000d8e90369060040162001afc565b906024356001600160401b038111620001d95762000db190369060040162001afc565b929060027f9b779b17422d0df92223018b32b4d1fa46e071723d6817e2486d003becc55f0054146200148e5760027f9b779b17422d0df92223018b32b4d1fa46e071723d6817e2486d003becc55f005562000e0b6200222a565b8115158062001482575b62000e209062001d51565b8315158062001476575b62000e359062001d8d565b62000e5960ff60405186848237602081888101600d81520301902054161562001dcb565b60025460443510158062001467575b15620014315760045490813410620013f957604051610cda808201908282106001600160401b03831117620006c557829162000eb4916200224a843933908986898b6044359462001e28565b03905ff0938415620007ad5760405162000ece8162001bd2565b6001600160a01b038616815262000ee736868462001c2d565b602082015262000ef936888562001c2d565b604082015260443560608201523360808201524260a08201528360c08201525f60e082015260018060a01b0386165f52600b60205260405f209060018060a01b038151166001600160601b0360a01b83541617825560208101518051906001600160401b038211620006c557819062000f76600186015462001c68565b601f8111620013a4575b50602090601f831160011462001331575f9262001325575b50508160011b915f199060031b1c19161760018301555b60408101518051906001600160401b038211620006c55762000fd5600285015462001c68565b601f8111620012dc575b50602090601f83116001146200126257928260079360e0936200107197965f92620012565750508160011b915f199060031b1c1916176002850155606081015160038501556004840160018060a01b036080830151166001600160601b0360a01b82541617905560a0810151600585015560c081015160068501550151151591019060ff801983541691151516179055565b335f52600c6020526200109060018060a01b03861660405f2062001eae565b620010a46001600160a01b03861662001e6e565b60405186838237602081888101600d815203019020600160ff19825416179055620010d160095462001ece565b600955620010e283600a5462001ef1565b600a5582620011f9575b82341162001198575b906020956200111562001123936040519660808852608088019162001e08565b918583038887015262001e08565b90604435604084015260608301527fc12630d761ddbf18b9530f31d91e67493535a2b635711bcff59fded8bf381cce33928060018060a01b038616930390a360017f9b779b17422d0df92223018b32b4d1fa46e071723d6817e2486d003becc55f00556040516001600160a01b039091168152f35b905f808080620011a9873462001f33565b335af1620011b662001eff565b5015620011c45790620010f5565b60405162461bcd60e51b815260206004820152600d60248201526c1499599d5b990819985a5b1959609a1b6044820152606490fd5b5f8080808660018060a01b03600754165af16200121562001eff565b50620010ec5760405162461bcd60e51b8152602060048201526013602482015272119959481d1c985b9cd9995c8819985a5b1959606a1b6044820152606490fd5b015190508d8062000471565b90600285015f5260205f20915f5b601f1985168110620012c357508360e09362001071979693600193600797601f19811610620012aa57505050811b01600285015562000488565b01515f1960f88460031b161c191690558d80806200063a565b9192602060018192868501518155019401920162001270565b600285015f5260205f20601f840160051c8101602085106200131d575b601f830160051c820181106200131157505062000fdf565b5f8155600101620012f9565b5080620012f9565b015190508a8062000f98565b9250600185015f5260205f20905f935b601f198416851062001388576001945083601f198116106200136f575b505050811b01600183015562000faf565b01515f1960f88460031b161c191690558a80806200135e565b8181015183556020948501946001909301929091019062001341565b909150600185015f5260205f20601f840160051c810160208510620013f1575b90849392915b601f830160051c82018110620013e257505062000f80565b5f8155859450600101620013ca565b5080620013c4565b60405162461bcd60e51b815260206004820152601060248201526f496e73756666696369656e742066656560801b6044820152606490fd5b60405162461bcd60e51b815260206004820152600e60248201526d496e76616c696420737570706c7960901b6044820152606490fd5b50600354604435111562000e68565b50600a84111562000e2a565b50602082111562000e15565b604051633ee5aeb560e01b8152600490fd5b34620001d95760a0366003190112620001d9576004356024356044356064359160843593841515809503620001d957620014d962002047565b81811015620015c0576127108411620015885760405160a081018181106001600160401b03821117620006c5578691608091604052838152846020820152856040820152866060820152015260025560035560045560055560ff8019600654169116176006557f3f8d0d126f4c7f870ec9de90e2f4aa192e5e721bd3c48a77547fb9a7550eed32606060405160208152600c60208201526b6c61756e6368436f6e66696760a01b6040820152a1005b60405162461bcd60e51b815260206004820152601060248201526f125b9d985b1a5908191a5cd8dbdd5b9d60821b6044820152606490fd5b60405162461bcd60e51b8152602060048201526014602482015273496e76616c696420737570706c792072616e676560601b6044820152606490fd5b34620001d9575f366003190112620001d95760a06002546003546004546005549060ff600654169260405194855260208501526040840152606083015215156080820152f35b34620001d9575f366003190112620001d9576007546040516001600160a01b039091168152602090f35b34620001d9576020366003190112620001d9576200168962001a84565b506020600454604051908152f35b34620001d9576020366003190112620001d957620016b462001a84565b620016be6200209e565b6001600160a01b039081165f818152600b6020526040902054909116156200172057805f52600b602052600760405f2001600160ff198254161790557f62f9febaf4690d6df2716e783e6c2352e1fa133b117d53882d323c316161464b5f80a2005b60405162461bcd60e51b815260206004820152600f60248201526e151bdad95b881b9bdd08199bdd5b99608a1b6044820152606490fd5b34620001d9575f366003190112620001d9576200177362002047565b60015460ff811615620017b35760ff19166001557f5db9ee0a495bf2e6ff9c91a7834c1ba4fdd244a5e8aa4e537bd38aeae4b073aa6020604051338152a1005b604051638dfc202b60e01b8152600490fd5b34620001d9576020366003190112620001d957620017e262001a84565b620017ec62002047565b600880546001600160a01b0319166001600160a01b0392909216919091179055005b34620001d9576040366003190112620001d9576200182b62001a9b565b336001600160a01b038216036200184a5762000a9090600435620021b7565b60405163334bd91960e11b8152600490fd5b34620001d9576040366003190112620001d95762000a906004356200188062001a9b565b90805f525f6020526200189a600160405f20015462002118565b6200213a565b34620001d9576020366003190112620001d9576004355f525f6020526020600160405f200154604051908152f35b34620001d957602080600319360112620001d957620018ec62001a84565b905f60e0604051620018fe8162001bd2565b828152606084820152606060408201528260608201528260808201528260a08201528260c0820152015260018060a01b038092165f52600b815260405f2090604051916200194c8362001bd2565b838154168352620019606001820162001ca3565b91808401928352620019756002830162001ca3565b91604085019283526003810154936060860194855286806004840154166080880190815262001a0760058501549360a08a0194855260ff600760068801549760c08d019889520154169660e08b0197151588526040519b8c9b828d525116908b01525196620019f3610100988960408d01526101208c019062001ad5565b90518a8203601f190160608c015262001ad5565b96516080890152511660a08701525160c08601525160e0850152511515908301520390f35b34620001d9576020366003190112620001d9576004359063ffffffff60e01b8216809203620001d957602091637965db0b60e01b811490811562001a72575b5015158152f35b6301ffc9a760e01b1490508362001a6b565b600435906001600160a01b0382168203620001d957565b602435906001600160a01b0382168203620001d957565b5f5b83811062001ac45750505f910152565b818101518382015260200162001ab4565b9060209162001af08151809281855285808601910162001ab2565b601f01601f1916010190565b9181601f84011215620001d9578235916001600160401b038311620001d95760208381860195010111620001d957565b600e5481101562001b6257600e5f527fbb7b4a454dc3493923482f07822329ed19e8244eff582cc204f8554c3620c3fd01905f90565b634e487b7160e01b5f52603260045260245ffd5b805482101562001b62575f5260205f2001905f90565b60209060206040818301928281528551809452019301915f5b82811062001bb4575050505090565b83516001600160a01b03168552938101939281019260010162001ba5565b61010081019081106001600160401b03821117620006c557604052565b90601f801991011681019081106001600160401b03821117620006c557604052565b6001600160401b038111620006c557601f01601f191660200190565b92919262001c3b8262001c11565b9162001c4b604051938462001bef565b829481845281830111620001d9578281602093845f960137010152565b90600182811c9216801562001c98575b602083101462001c8457565b634e487b7160e01b5f52602260045260245ffd5b91607f169162001c78565b9060405191825f825462001cb78162001c68565b908184526020946001916001811690815f1462001d2d575060011462001ceb575b50505062001ce99250038362001bef565b565b5f90815285812095935091905b81831062001d1457505062001ce993508201015f808062001cd8565b8554888401850152948501948794509183019162001cf8565b9250505062001ce994925060ff191682840152151560051b8201015f808062001cd8565b1562001d5957565b60405162461bcd60e51b815260206004820152600c60248201526b496e76616c6964206e616d6560a01b6044820152606490fd5b1562001d9557565b60405162461bcd60e51b815260206004820152600e60248201526d125b9d985b1a59081cde5b589bdb60921b6044820152606490fd5b1562001dd357565b60405162461bcd60e51b815260206004820152600d60248201526c53796d626f6c2065786973747360981b6044820152606490fd5b908060209392818452848401375f828201840152601f01601f1916010190565b94969592909362001e4960609562001e589460808952608089019162001e08565b91868303602088015262001e08565b60408401959095526001600160a01b0316910152565b600e54600160401b811015620006c55780600162001e909201600e5562001b2c565b60018060a09493941b038084549260031b9316831b921b1916179055565b8054600160401b811015620006c55762001e909160018201815562001b76565b5f19811462001edd5760010190565b634e487b7160e01b5f52601160045260245ffd5b9190820180921162001edd57565b3d1562001f2e573d9062001f138262001c11565b9162001f23604051938462001bef565b82523d5f602084013e565b606090565b9190820391821162001edd57565b6001600160401b038111620006c55760051b60200190565b600e5491828210156200201d5762001f72908262001ef1565b9180831162002014575b5062001f89818362001f33565b9162001fb262001f998462001f41565b9362001fa9604051958662001bef565b80855262001f41565b602090601f19013685830137825b82811062001fcf575050505090565b62001fda8162001b2c565b91905462001fe9868362001f33565b90875182101562001b62576001938591858060a01b039160031b1c169160051b880101520162001fc0565b91505f62001f7c565b505050604051602081018181106001600160401b03821117620006c5576040525f81525f36813790565b335f9081527fad3228b676f7d3cd4284a5443f17f1962b36e491b30a40b2405849e597ba5fb5602052604090205460ff16156200208057565b60405163e2517d3f60e01b81523360048201525f6024820152604490fd5b335f9081527fee57cd81e84075558e8fcc182a1f4393f91fc97f963a136e66b7f949a62f319f60205260409020547f97667070c54ef182b0f5858b034beac1b6f3089aa2d3188bb1e8929f4fa9b9299060ff1615620020fa5750565b6044906040519063e2517d3f60e01b82523360048301526024820152fd5b805f525f60205260405f20335f5260205260ff60405f20541615620020fa5750565b90815f525f60205260405f209060018060a01b031690815f5260205260ff60405f205416155f14620021b157815f525f60205260405f20815f5260205260405f20600160ff1982541617905533917f2f8788117e7eff1d82e926ec794901d17c78024a50270940304540a733656f0d5f80a4600190565b50505f90565b90815f525f60205260405f209060018060a01b031690815f5260205260ff60405f2054165f14620021b157815f525f60205260405f20815f5260205260405f2060ff19815416905533917ff6391f5c32d9c69d2a47ea670b442974b53935d1edc7fd64eb21e047a839171b5f80a4600190565b60ff600154166200223757565b60405163d93c066560e01b8152600490fdfe604060e0815234620003c25762000cda803803806200001e81620003c6565b9283398101608082820312620003c25781516001600160401b039290838111620003c2578262000050918301620003ec565b6020928383015190858211620003c2576200006d918401620003ec565b906060868401519301519060018060a01b03821695868303620003c2578151818111620002cb576003908154906001948583811c93168015620003b7575b8a841014620003a3578190601f9384811162000350575b508a90848311600114620002eb575f92620002df575b50505f1982851b1c191690851b1782555b8551928311620002cb5760049586548581811c91168015620002c0575b8a821014620002ad5782811162000265575b5088918411600114620001fe579383949184925f95620001f2575b50501b925f19911b1c19161782555b6080523360a0524260c0528315620001dc5760025490828201809211620001c957506002555f8381528083528481208054830190558451918252917fddf252ad1be2c89b69c2b068fc378daa952ba7f163c4a11628f55a4df523b3ef91a35161087d90816200045d82396080518161055f015260a05181610154015260c0518161011d0152f35b601190634e487b7160e01b5f525260245ffd5b6024905f86519163ec442f0560e01b8352820152fd5b015193505f8062000133565b9190601f19841692875f52848a5f20945f5b8c898383106200024d575050501062000233575b50505050811b01825562000142565b01519060f8845f19921b161c191690555f80808062000224565b86860151895590970196948501948893500162000210565b875f52895f208380870160051c8201928c8810620002a3575b0160051c019086905b8281106200029757505062000118565b5f815501869062000287565b925081926200027e565b602288634e487b7160e01b5f525260245ffd5b90607f169062000106565b634e487b7160e01b5f52604160045260245ffd5b015190505f80620000d8565b5f8681528c8120899550929190601f198516908e5b82821062000338575050841162000320575b505050811b018255620000e9565b01515f1983871b60f8161c191690555f808062000312565b8385015186558b979095019493840193018e62000300565b909150845f528a5f208480850160051c8201928d861062000399575b918991869594930160051c01915b8281106200038a575050620000c2565b5f81558594508991016200037a565b925081926200036c565b634e487b7160e01b5f52602260045260245ffd5b92607f1692620000ab565b5f80fd5b6040519190601f01601f191682016001600160401b03811183821017620002cb57604052565b919080601f84011215620003c25782516001600160401b038111620002cb5760209062000422601f8201601f19168301620003c6565b92818452828287010111620003c2575f5b818110620004485750825f9394955001015290565b85810183015184820184015282016200043356fe6080604090808252600480361015610015575f80fd5b5f3560e01c91826302d05d3f1461054d5750816306fdde0314610472578163095ea7b3146103ca57816318160ddd146103ac57816323b872dd14610370578163313ce5671461035557816342966c681461033957816370a082311461030357816379cc6790146102d257816395d89b41146101b357508063a9059cbb14610183578063c45a015514610140578063cf09e0d0146101065763dd62ed3e146100ba575f80fd5b346101025780600319360112610102576020906100d56105d5565b6100dd6105eb565b9060018060a01b038091165f5260018452825f2091165f528252805f20549051908152f35b5f80fd5b5034610102575f36600319011261010257602090517f00000000000000000000000000000000000000000000000000000000000000008152f35b5034610102575f36600319011261010257517f00000000000000000000000000000000000000000000000000000000000000006001600160a01b03168152602090f35b50346101025780600319360112610102576020906101ac6101a26105d5565b60243590336106ce565b5160018152f35b8234610102575f366003190112610102578051905f835460018160011c90600183169283156102c8575b60209384841081146102b5578388529081156102995750600114610245575b505050829003601f01601f191682019267ffffffffffffffff841183851017610232575082918261022e92528261058e565b0390f35b604190634e487b7160e01b5f525260245ffd5b5f878152929350837f8a35acfbc15ff81a39ae7d344fd709f28e8600b4aa8c65c6b64bfe7fe36bd19b5b83851061028557505050508301018480806101fc565b80548886018301529301928490820161026f565b60ff1916878501525050151560051b84010190508480806101fc565b602289634e487b7160e01b5f525260245ffd5b91607f16916101dd565b823461010257366003190112610102576103016102ed6105d5565b602435906102fc823383610601565b6107a8565b005b8234610102576020366003190112610102576020906001600160a01b036103286105d5565b165f525f8252805f20549051908152f35b34610102576020366003190112610102576103019035336107a8565b8234610102575f366003190112610102576020905160128152f35b8234610102576060366003190112610102576020906101ac6103906105d5565b6103986105eb565b604435916103a7833383610601565b6106ce565b8234610102575f366003190112610102576020906002549051908152f35b82346101025780600319360112610102576103e36105d5565b60243590331561045c576001600160a01b03169081156104465760209350335f5260018452825f20825f52845280835f205582519081527f8c5be1e5ebec7d5bd14f71427d1e84f3dd0314c0f7b2291e5b200ac8c7c3b925843392a35160018152f35b8251634a1406b160e11b81525f81860152602490fd5b825163e602df0560e01b81525f81860152602490fd5b8234610102575f366003190112610102578051905f60035460018160011c9060018316928315610543575b60209384841081146102b55783885290811561029957506001146104ed57505050829003601f01601f191682019267ffffffffffffffff841183851017610232575082918261022e92528261058e565b60035f908152929350837fc2575a0e9e593c00f959f8c92f12db2869c3395a3b0502d05e2516446f71f85b5b83851061052f57505050508301018480806101fc565b805488860183015293019284908201610519565b91607f169161049d565b34610102575f366003190112610102577f00000000000000000000000000000000000000000000000000000000000000006001600160a01b03168152602090f35b602080825282518183018190529093925f5b8281106105c157505060409293505f838284010152601f8019910116010190565b8181018601518482016040015285016105a0565b600435906001600160a01b038216820361010257565b602435906001600160a01b038216820361010257565b919060018060a01b0380931692835f526001602052604093845f2091831691825f52602052845f2054925f19841061063c575b505050505050565b84841061069e57508015610687578115610670575f526001602052835f20905f5260205203905f20555f8080808080610634565b8451634a1406b160e11b81525f6004820152602490fd5b845163e602df0560e01b81525f6004820152602490fd5b8551637dc7a0d960e11b81526001600160a01b039190911660048201526024810184905260448101859052606490fd5b916001600160a01b03808416928315610790571692831561077857825f525f60205260405f2054908282106107465750817fddf252ad1be2c89b69c2b068fc378daa952ba7f163c4a11628f55a4df523b3ef92602092855f525f84520360405f2055845f5260405f20818154019055604051908152a3565b60405163391434e360e21b81526001600160a01b03919091166004820152602481019190915260448101829052606490fd5b60405163ec442f0560e01b81525f6004820152602490fd5b604051634b637e8f60e11b81525f6004820152602490fd5b91906001600160a01b03831690811561079057815f525f60205260405f20549381851061081557506020817fddf252ad1be2c89b69c2b068fc378daa952ba7f163c4a11628f55a4df523b3ef925f95968587528684520360408620558060025403600255604051908152a3565b60405163391434e360e21b81526001600160a01b03919091166004820152602481018590526044810191909152606490fdfea2646970667358221220c3272d40ee08fa698fa3847555179e9d5fd74b847ca14ae4c5b7b5240b0a24a764736f6c63430008180033a2646970667358221220c109b33e5d99df7faae7af4e333aabd57b776f525d553bbfb87058f076deec4364736f6c634300081800332f8788117e7eff1d82e926ec794901d17c78024a50270940304540a733656f0dad3228b676f7d3cd4284a5443f17f1962b36e491b30a40b2405849e597ba5fb5","linkReferences":{}},"methodIdentifiers":{"DEFAULT_ADMIN_ROLE()":"a217fddf","OPERATOR_ROLE()":"f5b541a6","allTokens(uint256)":"634282af","calculateFee(address)":"465f5eb8","createToken(string,string,uint256)":"5b060530","createTokenFree(string,string,uint256,address)":"f05ff505","creatorTokens(address,uint256)":"db3fa4cc","feeRecipient()":"46904840","getAllTokens(uint256,uint256)":"9a043832","getCreatorTokens(address)":"74abfa54","getRoleAdmin(bytes32)":"248a9ca3","getTokenInfo(address)":"1f69565f","getTotalTokenCount()":"e5362667","grantRole(bytes32,address)":"2f2ff15d","hasRole(bytes32,address)":"91d14854","isSymbolAvailable(string)":"ebe4f36a","launchConfig()":"5293fc6f","pause()":"8456cb59","paused()":"5c975abb","renounceRole(bytes32,address)":"36568abe","reputationRegistry()":"c8db44e3","revokeRole(bytes32,address)":"d547741f","setFeeRecipient(address)":"e74b981b","setLaunchConfig(uint256,uint256,uint256,uint256,bool)":"59720061","setReputationRegistry(address)":"3f0ce714","supportsInterface(bytes4)":"01ffc9a7","symbolExists(string)":"8c659fb8","tokenCounter()":"d082e381","tokens(address)":"e4860339","totalFeesCollected()":"60c6d8ae","unpause()":"3f4ba83a","verifyToken(address)":"4130276b"},"id":58}