{"abi":[{"type":"constructor","inputs":[],"stateMutability":"nonpayable"},{"type":"function","name":"DEFAULT_ADMIN_ROLE","inputs":[],"outputs":[{"name":"","type":"bytes32","internalType":"bytes32"}],"stateMutability":"view"},{"type":"function","name":"OPERATOR_ROLE","inputs":[],"outputs":[{"name":"","type":"bytes32","internalType":"bytes32"}],"stateMutability":"view"},{"type":"function","name":"RELAYER_ROLE","inputs":[],"outputs":[{"name":"","type":"bytes32","internalType":"bytes32"}],"stateMutability":"view"},{"type":"function","name":"addRelayer","inputs":[{"name":"chainId","type":"uint256","internalType":"uint256"},{"name":"relayer","type":"address","internalType":"address"}],"outputs":[],"stateMutability":"nonpayable"},{"type":"function","name":"aggregatedHoldings","inputs":[{"name":"","type":"address","internalType":"address"}],"outputs":[{"name":"user","type":"address","internalType":"address"},{"name":"totalValueUsd","type":"uint256","internalType":"uint256"},{"name":"chainCount","type":"uint256","internalType":"uint256"},{"name":"tokenCount","type":"uint256","internalType":"uint256"},{"name":"lastUpdated","type":"uint256","internalType":"uint256"}],"stateMutability":"view"},{"type":"function","name":"batchSubmitVerifications","inputs":[{"name":"users","type":"address[]","internalType":"address[]"},{"name":"chainIds","type":"uint256[]","internalType":"uint256[]"},{"name":"tokens","type":"address[]","internalType":"address[]"},{"name":"balances","type":"uint256[]","internalType":"uint256[]"}],"outputs":[],"stateMutability":"nonpayable"},{"type":"function","name":"batchUpdateTokenPrices","inputs":[{"name":"chainIds","type":"uint256[]","internalType":"uint256[]"},{"name":"tokens","type":"address[]","internalType":"address[]"},{"name":"prices","type":"uint256[]","internalType":"uint256[]"}],"outputs":[],"stateMutability":"nonpayable"},{"type":"function","name":"chainConfigs","inputs":[{"name":"","type":"uint256","internalType":"uint256"}],"outputs":[{"name":"chainId","type":"uint256","internalType":"uint256"},{"name":"name","type":"string","internalType":"string"},{"name":"isActive","type":"bool","internalType":"bool"},{"name":"blockConfirmations","type":"uint256","internalType":"uint256"}],"stateMutability":"view"},{"type":"function","name":"configureChain","inputs":[{"name":"chainId","type":"uint256","internalType":"uint256"},{"name":"name","type":"string","internalType":"string"},{"name":"isActive","type":"bool","internalType":"bool"},{"name":"blockConfirmations","type":"uint256","internalType":"uint256"}],"outputs":[],"stateMutability":"nonpayable"},{"type":"function","name":"getAggregatedHolding","inputs":[{"name":"user","type":"address","internalType":"address"}],"outputs":[{"name":"","type":"tuple","internalType":"struct CrossChainVerifier.AggregatedHolding","components":[{"name":"user","type":"address","internalType":"address"},{"name":"totalValueUsd","type":"uint256","internalType":"uint256"},{"name":"chainCount","type":"uint256","internalType":"uint256"},{"name":"tokenCount","type":"uint256","internalType":"uint256"},{"name":"lastUpdated","type":"uint256","internalType":"uint256"}]}],"stateMutability":"view"},{"type":"function","name":"getChainConfig","inputs":[{"name":"chainId","type":"uint256","internalType":"uint256"}],"outputs":[{"name":"name","type":"string","internalType":"string"},{"name":"isActive","type":"bool","internalType":"bool"},{"name":"blockConfirmations","type":"uint256","internalType":"uint256"},{"name":"relayerCount","type":"uint256","internalType":"uint256"}],"stateMutability":"view"},{"type":"function","name":"getRoleAdmin","inputs":[{"name":"role","type":"bytes32","internalType":"bytes32"}],"outputs":[{"name":"","type":"bytes32","internalType":"bytes32"}],"stateMutability":"view"},{"type":"function","name":"getSupportedChains","inputs":[],"outputs":[{"name":"","type":"uint256[]","internalType":"uint256[]"}],"stateMutability":"view"},{"type":"function","name":"getUserChainValue","inputs":[{"name":"user","type":"address","internalType":"address"},{"name":"chainId","type":"uint256","internalType":"uint256"}],"outputs":[{"name":"","type":"uint256","internalType":"uint256"}],"stateMutability":"view"},{"type":"function","name":"getUserHoldings","inputs":[{"name":"user","type":"address","internalType":"address"}],"outputs":[{"name":"","type":"tuple[]","internalType":"struct CrossChainVerifier.VerifiedHolding[]","components":[{"name":"chainId","type":"uint256","internalType":"uint256"},{"name":"token","type":"address","internalType":"address"},{"name":"balance","type":"uint256","internalType":"uint256"},{"name":"verifiedAt","type":"uint256","internalType":"uint256"},{"name":"expiresAt","type":"uint256","internalType":"uint256"},{"name":"isValid","type":"bool","internalType":"bool"}]}],"stateMutability":"view"},{"type":"function","name":"getUserValidHoldings","inputs":[{"name":"user","type":"address","internalType":"address"}],"outputs":[{"name":"","type":"tuple[]","internalType":"struct CrossChainVerifier.VerifiedHolding[]","components":[{"name":"chainId","type":"uint256","internalType":"uint256"},{"name":"token","type":"address","internalType":"address"},{"name":"balance","type":"uint256","internalType":"uint256"},{"name":"verifiedAt","type":"uint256","internalType":"uint256"},{"name":"expiresAt","type":"uint256","internalType":"uint256"},{"name":"isValid","type":"bool","internalType":"bool"}]}],"stateMutability":"view"},{"type":"function","name":"grantRole","inputs":[{"name":"role","type":"bytes32","internalType":"bytes32"},{"name":"account","type":"address","internalType":"address"}],"outputs":[],"stateMutability":"nonpayable"},{"type":"function","name":"hasRole","inputs":[{"name":"role","type":"bytes32","internalType":"bytes32"},{"name":"account","type":"address","internalType":"address"}],"outputs":[{"name":"","type":"bool","internalType":"bool"}],"stateMutability":"view"},{"type":"function","name":"hasValidHolding","inputs":[{"name":"user","type":"address","internalType":"address"},{"name":"chainId","type":"uint256","internalType":"uint256"},{"name":"token","type":"address","internalType":"address"},{"name":"minBalance","type":"uint256","internalType":"uint256"}],"outputs":[{"name":"","type":"bool","internalType":"bool"}],"stateMutability":"view"},{"type":"function","name":"invalidateHolding","inputs":[{"name":"holdingId","type":"bytes32","internalType":"bytes32"}],"outputs":[],"stateMutability":"nonpayable"},{"type":"function","name":"pause","inputs":[],"outputs":[],"stateMutability":"nonpayable"},{"type":"function","name":"paused","inputs":[],"outputs":[{"name":"","type":"bool","internalType":"bool"}],"stateMutability":"view"},{"type":"function","name":"renounceRole","inputs":[{"name":"role","type":"bytes32","internalType":"bytes32"},{"name":"callerConfirmation","type":"address","internalType":"address"}],"outputs":[],"stateMutability":"nonpayable"},{"type":"function","name":"revokeRole","inputs":[{"name":"role","type":"bytes32","internalType":"bytes32"},{"name":"account","type":"address","internalType":"address"}],"outputs":[],"stateMutability":"nonpayable"},{"type":"function","name":"setTrustedSigner","inputs":[{"name":"signer","type":"address","internalType":"address"},{"name":"trusted","type":"bool","internalType":"bool"}],"outputs":[],"stateMutability":"nonpayable"},{"type":"function","name":"setVerificationValidityPeriod","inputs":[{"name":"period","type":"uint256","internalType":"uint256"}],"outputs":[],"stateMutability":"nonpayable"},{"type":"function","name":"submitVerification","inputs":[{"name":"user","type":"address","internalType":"address"},{"name":"chainId","type":"uint256","internalType":"uint256"},{"name":"token","type":"address","internalType":"address"},{"name":"balance","type":"uint256","internalType":"uint256"},{"name":"blockNumber","type":"uint256","internalType":"uint256"}],"outputs":[{"name":"holdingId","type":"bytes32","internalType":"bytes32"}],"stateMutability":"nonpayable"},{"type":"function","name":"supportedChains","inputs":[{"name":"","type":"uint256","internalType":"uint256"}],"outputs":[{"name":"","type":"uint256","internalType":"uint256"}],"stateMutability":"view"},{"type":"function","name":"supportsInterface","inputs":[{"name":"interfaceId","type":"bytes4","internalType":"bytes4"}],"outputs":[{"name":"","type":"bool","internalType":"bool"}],"stateMutability":"view"},{"type":"function","name":"tokenPrices","inputs":[{"name":"","type":"uint256","internalType":"uint256"},{"name":"","type":"address","internalType":"address"}],"outputs":[{"name":"","type":"uint256","internalType":"uint256"}],"stateMutability":"view"},{"type":"function","name":"totalValueVerified","inputs":[],"outputs":[{"name":"","type":"uint256","internalType":"uint256"}],"stateMutability":"view"},{"type":"function","name":"totalVerifications","inputs":[],"outputs":[{"name":"","type":"uint256","internalType":"uint256"}],"stateMutability":"view"},{"type":"function","name":"trustedSigners","inputs":[{"name":"","type":"address","internalType":"address"}],"outputs":[{"name":"","type":"bool","internalType":"bool"}],"stateMutability":"view"},{"type":"function","name":"unpause","inputs":[],"outputs":[],"stateMutability":"nonpayable"},{"type":"function","name":"updateAggregatedHolding","inputs":[{"name":"user","type":"address","internalType":"address"}],"outputs":[],"stateMutability":"nonpayable"},{"type":"function","name":"updateTokenPrice","inputs":[{"name":"chainId","type":"uint256","internalType":"uint256"},{"name":"token","type":"address","internalType":"address"},{"name":"priceUsd","type":"uint256","internalType":"uint256"}],"outputs":[],"stateMutability":"nonpayable"},{"type":"function","name":"userHoldings","inputs":[{"name":"","type":"address","internalType":"address"},{"name":"","type":"uint256","internalType":"uint256"}],"outputs":[{"name":"","type":"bytes32","internalType":"bytes32"}],"stateMutability":"view"},{"type":"function","name":"verificationValidityPeriod","inputs":[],"outputs":[{"name":"","type":"uint256","internalType":"uint256"}],"stateMutability":"view"},{"type":"function","name":"verifiedHoldings","inputs":[{"name":"","type":"bytes32","internalType":"bytes32"}],"outputs":[{"name":"chainId","type":"uint256","internalType":"uint256"},{"name":"token","type":"address","internalType":"address"},{"name":"balance","type":"uint256","internalType":"uint256"},{"name":"verifiedAt","type":"uint256","internalType":"uint256"},{"name":"expiresAt","type":"uint256","internalType":"uint256"},{"name":"isValid","type":"bool","internalType":"bool"}],"stateMutability":"view"},{"type":"function","name":"verifyHoldingBySignature","inputs":[{"name":"user","type":"address","internalType":"address"},{"name":"chainId","type":"uint256","internalType":"uint256"},{"name":"token","type":"address","internalType":"address"},{"name":"balance","type":"uint256","internalType":"uint256"},{"name":"blockNumber","type":"uint256","internalType":"uint256"},{"name":"timestamp","type":"uint256","internalType":"uint256"},{"name":"signature","type":"bytes","internalType":"bytes"}],"outputs":[{"name":"holdingId","type":"bytes32","internalType":"bytes32"}],"stateMutability":"nonpayable"},{"type":"event","name":"AggregatedHoldingUpdated","inputs":[{"name":"user","type":"address","indexed":true,"internalType":"address"},{"name":"totalValueUsd","type":"uint256","indexed":false,"internalType":"uint256"}],"anonymous":false},{"type":"event","name":"ChainConfigured","inputs":[{"name":"chainId","type":"uint256","indexed":true,"internalType":"uint256"},{"name":"name","type":"string","indexed":false,"internalType":"string"},{"name":"isActive","type":"bool","indexed":false,"internalType":"bool"}],"anonymous":false},{"type":"event","name":"HoldingInvalidated","inputs":[{"name":"holdingId","type":"bytes32","indexed":true,"internalType":"bytes32"}],"anonymous":false},{"type":"event","name":"HoldingVerified","inputs":[{"name":"user","type":"address","indexed":true,"internalType":"address"},{"name":"chainId","type":"uint256","indexed":true,"internalType":"uint256"},{"name":"token","type":"address","indexed":true,"internalType":"address"},{"name":"balance","type":"uint256","indexed":false,"internalType":"uint256"},{"name":"holdingId","type":"bytes32","indexed":false,"internalType":"bytes32"}],"anonymous":false},{"type":"event","name":"Paused","inputs":[{"name":"account","type":"address","indexed":false,"internalType":"address"}],"anonymous":false},{"type":"event","name":"RelayerAdded","inputs":[{"name":"chainId","type":"uint256","indexed":true,"internalType":"uint256"},{"name":"relayer","type":"address","indexed":true,"internalType":"address"}],"anonymous":false},{"type":"event","name":"RelayerRemoved","inputs":[{"name":"chainId","type":"uint256","indexed":true,"internalType":"uint256"},{"name":"relayer","type":"address","indexed":true,"internalType":"address"}],"anonymous":false},{"type":"event","name":"RoleAdminChanged","inputs":[{"name":"role","type":"bytes32","indexed":true,"internalType":"bytes32"},{"name":"previousAdminRole","type":"bytes32","indexed":true,"internalType":"bytes32"},{"name":"newAdminRole","type":"bytes32","indexed":true,"internalType":"bytes32"}],"anonymous":false},{"type":"event","name":"RoleGranted","inputs":[{"name":"role","type":"bytes32","indexed":true,"internalType":"bytes32"},{"name":"account","type":"address","indexed":true,"internalType":"address"},{"name":"sender","type":"address","indexed":true,"internalType":"address"}],"anonymous":false},{"type":"event","name":"RoleRevoked","inputs":[{"name":"role","type":"bytes32","indexed":true,"internalType":"bytes32"},{"name":"account","type":"address","indexed":true,"internalType":"address"},{"name":"sender","type":"address","indexed":true,"internalType":"address"}],"anonymous":false},{"type":"event","name":"SignerUpdated","inputs":[{"name":"signer","type":"address","indexed":true,"internalType":"address"},{"name":"trusted","type":"bool","indexed":false,"internalType":"bool"}],"anonymous":false},{"type":"event","name":"TokenPriceUpdated","inputs":[{"name":"chainId","type":"uint256","indexed":true,"internalType":"uint256"},{"name":"token","type":"address","indexed":true,"internalType":"address"},{"name":"price","type":"uint256","indexed":false,"internalType":"uint256"}],"anonymous":false},{"type":"event","name":"Unpaused","inputs":[{"name":"account","type":"address","indexed":false,"internalType":"address"}],"anonymous":false},{"type":"error","name":"AccessControlBadConfirmation","inputs":[]},{"type":"error","name":"AccessControlUnauthorizedAccount","inputs":[{"name":"account","type":"address","internalType":"address"},{"name":"neededRole","type":"bytes32","internalType":"bytes32"}]},{"type":"error","name":"ECDSAInvalidSignature","inputs":[]},{"type":"error","name":"ECDSAInvalidSignatureLength","inputs":[{"name":"length","type":"uint256","internalType":"uint256"}]},{"type":"error","name":"ECDSAInvalidSignatureS","inputs":[{"name":"s","type":"bytes32","internalType":"bytes32"}]},{"type":"error","name":"EnforcedPause","inputs":[]},{"type":"error","name":"ExpectedPause","inputs":[]}],"bytecode":{"object":"0x6080604052346200004457610e106009556200001b3362000048565b506200002733620000b8565b50620000333362000158565b506040516123319081620001f38239f35b5f80fd5b6001600160a01b03165f8181525f8051602062002544833981519152602052604090205460ff16620000b3575f8181525f805160206200254483398151915260205260408120805460ff191660011790553391905f80516020620025248339815191528180a4600190565b505f90565b6001600160a01b03165f8181527fee57cd81e84075558e8fcc182a1f4393f91fc97f963a136e66b7f949a62f319f60205260409020547f97667070c54ef182b0f5858b034beac1b6f3089aa2d3188bb1e8929f4fa9b929919060ff166200015257815f525f60205260405f20815f5260205260405f20600160ff1982541617905533915f80516020620025248339815191525f80a4600190565b50505f90565b6001600160a01b03165f8181527ffaf93c3d007e112089dc8351e013e6685ef67703975d0224b26fc45941d4f1f560205260409020547fe2b7fb3b832174769106daebcfd6d1970523240dda11281102db9363b83b0dc4919060ff166200015257815f525f60205260405f20815f5260205260405f20600160ff1982541617905533915f80516020620025248339815191525f80a460019056fe6080604090808252600480361015610015575f80fd5b5f3560e01c91826301ffc9a7146118e557508163034103cb146116de57816307246ce2146115e857816319ed16dc14611581578163248a9ca3146115585781632f2ff15d146115305781633428cebb146114bb57816336568abe146114775781633befbf4a146113bf5781633c44ec92146112925781633f4ba83a1461122b578163474a7a0b146111c657816350b02243146111a757816351bfbc3214611142578163548d496f1461110a5781635c975abb146110e75781635cb59849146110905781635fdd48e614611026578163644ae0b9146110085781637ddb3cc014610f525781638231f4f014610eba57816383271e9314610e7b5781638456cb5914610e2357816391d1485414610de0578163926d7d7f14610da6578163a217fddf14610d8c578163a670851914610ce6578163ac90c14014610cc8578163ae1e6c5114610afe578163b6c9d78d14610aa7578163bacf994614610a24578163c4bffe2b14610974578163d547741f14610939578163d77bea2014610858578163dfa7943014610720578163e7152b6c14610702578163e9f7ac0814610493578163f1bce18c1461025157508063f5b541a6146102175763f7777688146101d8575f80fd5b34610213576020366003190112610213576020906001600160a01b036101fc611937565b165f526008825260ff815f20541690519015158152f35b5f80fd5b5034610213575f36600319011261021357602090517f97667070c54ef182b0f5858b034beac1b6f3089aa2d3188bb1e8929f4fa9b9298152f35b82346102135760e03660031901126102135761026b611937565b9060243591610278611963565b9260643560a43560c4359667ffffffffffffffff97888111610213576102a19036908301611c0b565b6102a961204a565b855f5260209960028b526102c560ff60028b5f20015416611d70565b6102d160095486611c78565b421015610460578851908b82019060018060a01b03966001600160601b0319808c60601b1684528a60348601528d60601b166054850152886068850152608435608885015260a884015260a8835260e08301918383108284111761044d57828c52835190207f19457468657265756d205369676e6564204d6573736167653a0a3332000000005f52601c52603c5f2090841161043a5761037a601f8501601f19168e0183611ab8565b838252610100943685820111610213578585856103ac975f948c9a6103a39901370101526121b1565b909291926121eb565b165f526008885260ff865f20541615610406575084817fa641193c9f8c90eee445058973e44f2afc3dd842551978715b73e1211c2039c8926103f0858a888a612068565b988351958652898b87015216951692a451908152f35b855162461bcd60e51b8152908101889052600e60248201526d24b73b30b634b21039b4b3b732b960911b6044820152606490fd5b604186634e487b7160e01b5f525260245ffd5b604187634e487b7160e01b5f525260245ffd5b885162461bcd60e51b81528085018c9052600d60248201526c141c9bdbd988195e1c1a5c9959609a1b6044820152606490fd5b9050346102135760803660031901126102135780359067ffffffffffffffff90602435828111610213576104ca9036908301611c0b565b92906044359283151593848103610213576104e3611e11565b865f5260209360028552885f2080541591898255600193848301918a1161043a5761050e8254611a34565b601f81116106bc575b505f918a601f811160011461064957610558935f9161063e575b505f1960038d901b1c19168b871b1790555b600283019060ff801983541691151516179055565b836064359101556105b7575b867f1901a6448b9bddeaf428388d8702a9e50e6478250e4ddf6439854adc868cf2148760608b828a8a828b8551978689978852870152868601375f848401860152830152601f01601f19168101030190a2005b60035491600160401b83101561062b5750928580938861061b610605867f1901a6448b9bddeaf428388d8702a9e50e6478250e4ddf6439854adc868cf2149c9d9960609b9801600355611b7c565b819391549060031b91821b915f19901b19161790565b9055935050929695819450610564565b604190634e487b7160e01b5f525260245ffd5b90508801355f610531565b508792601f198c1690825f528c8b5f20925f5b8d8b83831061069a57505050610558965010610681575b5050858b811b019055610543565b8901355f1960038e901b60f8161c191690555f80610673565b9195909350848493959798990135815501940192018a95949392918e9161065c565b825f52885f20601f8c0160051c8101918a8d106106f8575b601f0160051c019086905b8281106106ed575050610517565b5f81550186906106df565b90915081906106d4565b8234610213575f36600319011261021357602090600b549051908152f35b82346102135760603660031901126102135767ffffffffffffffff8235818111610213576107519036908501611bda565b9290936024358381116102135761076b9036908301611bda565b9390916044359182116102135761078491369101611bda565b9061078d611e11565b8486148061084f575b61079f90611daf565b5f5b8681106107aa57005b8086897f376716bd86293ff8b34061b9af3cac5116f15e0f2cbf689d822b6d6d7b1eeca9610823848c6107e06001988b8b611ded565b35946107ed838383611ded565b355f52602095600787528d5f208d610815610810878e8060a01b039c8d94611ded565b611dfd565b165f5287528d5f2055611ded565b3591610833610810868d8c611ded565b9361083f868a8a611ded565b35948b519586521693a3016107a1565b50848214610796565b90503461021357816003193601126102135780359061087561194d565b9261087e611e11565b825f526002602052805f2054156108ff575f838152600260205220600301805491600160401b83101561062b5750906108bc91600182018155611bc5565b9260018060a01b038091169382549060031b9185831b921b19161790557f7e138cfddaec343f8b6242f641577a7800298cf4765d852ea0c54022cbda9bf65f80a3005b906020606492519162461bcd60e51b8352820152601460248201527310da185a5b881b9bdd0818dbdb999a59dd5c995960621b6044820152fd5b8234610213578060031936011261021357610972913561096d600161095c61194d565b93835f525f6020525f200154611f3b565b611fd8565b005b8234610213575f3660031901126102135780519081600354908181526020809101809260035f527fc2575a0e9e593c00f959f8c92f12db2869c3395a3b0502d05e2516446f71f85b905f5b818110610a1057505050846109d5910385611ab8565b825181815293518185018190528493840192915f5b8281106109f957505050500390f35b8351855286955093810193928101926001016109ea565b8254845292840192600192830192016109bf565b8234610213578060031936011261021357610a3d611937565b9060243591821515808403610213577ffcaa24b1276bfa7dbf77797c0a984b9df924acbeaabd48cd2f1b0eca379b78fa92610aa0602093610a7c611e11565b60018060a01b031695865f5260088552825f209060ff801983541691151516179055565b51908152a2005b823461021357602036600319011261021357600590823592610ac7611e11565b835f526020525f200160ff1981541690557f7080ee9dd55a221664a6f5de0ad4b65474c134883f21e3a899a61f63ce47deeb5f80a2005b82346102135760803660031901126102135767ffffffffffffffff823581811161021357610b2f9036908501611bda565b92909360243583811161021357610b499036908301611bda565b94909560443585811161021357610b639036908501611bda565b95909360643591821161021357610b7c91369101611bda565b93610b85611ee0565b610b8d61204a565b87841480610cbf575b80610cb6575b610ba590611daf565b5f5b848110610bb057005b808a83888c8b898b8f610bc660019a868a611ded565b355f52886002928d60ff602095808752885f20015416610bf2575b505050505050505050505001610ba7565b8284610c80828b8f8f8f7fa641193c9f8c90eee445058973e44f2afc3dd842551978715b73e1211c2039c89f99610c748f946108109b610c8e9f95610c6d610c879f8b97610c676108108a6108109c610c60610c7a9f8397610c5a8f86610810918195611ded565b9c611ded565b3597611ded565b94611ded565b3592612068565b9e611ded565b9f611ded565b359b611ded565b968d611ded565b3594898060a01b03928392855197885287015216951692a48a83888c8b895f8f888e8d610be1565b50868514610b9c565b50868814610b96565b8234610213575f36600319011261021357602090600a549051908152f35b82346102135760a036600319011261021357602090610d03611937565b9060243591610d10611963565b92606435610d1c611ee0565b610d2461204a565b815f5260028652610d3d60ff6002865f20015416611d70565b7fa641193c9f8c90eee445058973e44f2afc3dd842551978715b73e1211c2039c884610d6b83888688612068565b8151938452888401819052966001600160a01b03908116951692a451908152f35b8234610213575f36600319011261021357602090515f8152f35b8234610213575f36600319011261021357602090517fe2b7fb3b832174769106daebcfd6d1970523240dda11281102db9363b83b0dc48152f35b8234610213578060031936011261021357602091610dfc61194d565b90355f525f8352815f209060018060a01b03165f52825260ff815f20541690519015158152f35b8234610213575f3660031901126102135760207f62e78cea01bee320cd4e420270b5ea74000d11b0c9f74754ebdbfc544b05a25891610e60611e8a565b610e6861204a565b600160ff198154161760015551338152a1005b8234610213578060031936011261021357602091610e9761194d565b90355f5260078352815f209060018060a01b03165f528252805f20549051908152f35b8234610213576020906020600319360112610213576001600160a01b03610edf611937565b165f526005602052805f2091825490610ef782611ca7565b935f5b838110610f1257845180610f0e88826119b7565b0390f35b80610f1f60019284611bc5565b90549060031b1c5f52878452610f36865f20611d1c565b610f408289611c93565b52610f4b8188611c93565b5001610efa565b9050346102135760203660031901126102135760a091610f70611937565b905f60808251610f7f81611a6c565b82815282602082015282848201528260608201520152600180851b038092165f526006602052805f2090805192610fb584611a6c565b825416938484526001830154602085019081526080600285015492848701938452600386015495606088019687520154950194855282519586525160208601525190840152516060830152516080820152f35b8234610213575f366003190112610213576020906009549051908152f35b9050346102135760203660031901126102135760c09181355f5281602052805f2080549260018060a01b036001830154169260028301549060ff600560038601549486015495015416948151968752602087015285015260608401526080830152151560a0820152f35b82346102135780600319360112610213576110a9611937565b6001600160a01b03165f90815260056020528190208054602435929190831015610213576020926110d991611bc5565b91905490519160031b1c8152f35b8234610213575f3660031901126102135760209060ff6001541690519015158152f35b90503461021357602036600319011261021357359060035482101561021357611134602092611b7c565b90549060031b1c9051908152f35b82346102135760203660031901126102135781355f526002602052805f2080549161116f60018301611ada565b9360ff6002840154169201549061119781519586958652608060208701526080860190611979565b9215159084015260608301520390f35b34610213576020366003190112610213576111c0611e8a565b35600955005b9050346102135760203660031901126102135760a0916001600160a01b03806111ed611937565b165f526006602052815f2090815416926001820154926002830154916003840154930154938151958652602086015284015260608301526080820152f35b8234610213575f36600319011261021357611244611e8a565b6001549160ff831615611284577f5db9ee0a495bf2e6ff9c91a7834c1ba4fdd244a5e8aa4e537bd38aeae4b073aa6020838560ff191660015551338152a1005b9051638dfc202b60e01b8152fd5b8234610213576020906020600319360112610213576001600160a01b036112b7611937565b165f52600580602052815f205f945f958254965b87811061136757506112dc90611ca7565b945f925f5b8881106112f557865180610f0e8a826119b7565b6112ff8183611bc5565b90549060031b1c5f52838352865f2060ff87820154168061135b575b611329575b506001016112e1565b6001919561133961135492611d1c565b611343828c611c93565b5261134e818b611c93565b50611c85565b9490611320565b5084810154421061131b565b6113718185611bc5565b90549060031b1c5f52828752855f208360ff878301541691826113b2575b505061139e575b6001016112cb565b906113aa600191611c85565b919050611396565b015442109050838a61138f565b905034610213576080366003190112610213576020916113dd611937565b61142161142f6113eb611963565b845192839188830195602435908791926048936001600160601b0319809360601b168452601484015260601b1660348201520190565b03601f198101835282611ab8565b5190205f52818352805f2060ff600582015416928361146a575b5082611459575b50519015158152f35b60020154606435111591505f611450565b810154421092505f611449565b823461021357806003193601126102135761149061194d565b90336001600160a01b038316036114ac57506109729135611fd8565b5163334bd91960e11b81529050fd5b90503461021357606036600319011261021357357f376716bd86293ff8b34061b9af3cac5116f15e0f2cbf689d822b6d6d7b1eeca960206114fa61194d565b9360443590611507611e11565b5f858152600784528181206001600160a01b0390971680825296845281902082905551908152a3005b82346102135780600319360112610213576109729135611553600161095c61194d565b611f5c565b823461021357602036600319011261021357602091355f525f82526001815f2001549051908152f35b823461021357602036600319011261021357816115d492355f526002602052815f2060ff600282015416918101546115c0600160038401549301611ada565b938051958695608087526080870190611979565b931515602086015284015260608301520390f35b905034610213578160031936011261021357611602611937565b916024359160018060a01b038094165f526005906020946005602052835f20955f955f948854955b86811061163b576020898951908152f35b611645818b611bc5565b90549060031b1c5f52858452875f2083815414806116d1575b806116c5575b611672575b5060010161162a565b835f5260078552885f20866001830154165f528552885f20549081611698575b50611669565b99670de0b6b3a76400006116b66116bd9360026001969e0154611c51565b0490611c78565b98905f611692565b50868101544210611664565b5060ff838201541661165e565b823461021357602080600319360112610213576116f9611937565b611701611e11565b60018060a01b0380911692835f526005808452815f20955f935f885461172681611c39565b61173287519182611ab8565b818152601f1961174183611c39565b01368a8301375f955f5b8381106117ee57505050507ff1b064f1a289daa2593aa55a4b471225902e6928d5a39f44183f73c78ee7c5c897985084519361178685611a6c565b8985528785018781528686019182526060860192835260808601934285528b5f5260068a52875f209651166001600160601b0360a01b875416178655516001860155516002850155516003840155519101556117e482600b54611c78565b600b5551908152a2005b6117f8818e611bc5565b90549060031b1c5f52868b528a895f2060ff8482015416806118d9575b611824575b505060010161174b565b9095815491825f52600788528b5f206001988a8a840154165f52528b5f205490816118b1575b505061185590611c85565b95805f5b8b811061188e575b505061186f575b8b9061181a565b88611887916118816001949b87611c93565b52611c85565b9790611868565b836118998289611c93565b51146118a6578101611859565b5050505f8f80611861565b9c670de0b6b3a76400006116b6611855949f9360026118d1950154611c51565b9b905f61184a565b50888101544210611815565b903461021357602036600319011261021357359063ffffffff60e01b821680920361021357602091637965db0b60e01b8114908115611926575b5015158152f35b6301ffc9a760e01b1490508361191f565b600435906001600160a01b038216820361021357565b602435906001600160a01b038216820361021357565b604435906001600160a01b038216820361021357565b91908251928382525f5b8481106119a3575050825f602080949584010152601f8019910116010190565b602081830181015184830182015201611983565b60208082019080835283518092528060408094019401925f905b8382106119e057505050505090565b845180518752808401516001600160a01b0316878501528082015187830152606080820151908801526080808201519088015260a09081015115159087015260c090950194938201936001909101906119d1565b90600182811c92168015611a62575b6020831014611a4e57565b634e487b7160e01b5f52602260045260245ffd5b91607f1691611a43565b60a0810190811067ffffffffffffffff821117611a8857604052565b634e487b7160e01b5f52604160045260245ffd5b60c0810190811067ffffffffffffffff821117611a8857604052565b90601f8019910116810190811067ffffffffffffffff821117611a8857604052565b9060405191825f8254611aec81611a34565b908184526020946001916001811690815f14611b5a5750600114611b1c575b505050611b1a92500383611ab8565b565b5f90815285812095935091905b818310611b42575050611b1a93508201015f8080611b0b565b85548884018501529485019487945091830191611b29565b92505050611b1a94925060ff191682840152151560051b8201015f8080611b0b565b600354811015611bb15760035f527fc2575a0e9e593c00f959f8c92f12db2869c3395a3b0502d05e2516446f71f85b01905f90565b634e487b7160e01b5f52603260045260245ffd5b8054821015611bb1575f5260205f2001905f90565b9181601f840112156102135782359167ffffffffffffffff8311610213576020808501948460051b01011161021357565b9181601f840112156102135782359167ffffffffffffffff8311610213576020838186019501011161021357565b67ffffffffffffffff8111611a885760051b60200190565b81810292918115918404141715611c6457565b634e487b7160e01b5f52601160045260245ffd5b91908201809211611c6457565b5f198114611c645760010190565b8051821015611bb15760209160051b010190565b90611cb182611c39565b604090611cc16040519182611ab8565b8381528093611cd2601f1991611c39565b01915f5b838110611ce35750505050565b6020908251611cf181611a9c565b5f8152825f818301525f858301525f60608301525f60808301525f60a0830152828601015201611cd6565b90604051611d2981611a9c565b8254815260018301546001600160a01b0316602082015260028301546040820152600383015460608201526004830154608082015260059092015460ff16151560a0830152565b15611d7757565b60405162461bcd60e51b815260206004820152601060248201526f436861696e206e6f742061637469766560801b6044820152606490fd5b15611db657565b60405162461bcd60e51b815260206004820152600f60248201526e098cadccee8d040dad2e6dac2e8c6d608b1b6044820152606490fd5b9190811015611bb15760051b0190565b356001600160a01b03811681036102135790565b335f9081527fee57cd81e84075558e8fcc182a1f4393f91fc97f963a136e66b7f949a62f319f60205260409020547f97667070c54ef182b0f5858b034beac1b6f3089aa2d3188bb1e8929f4fa9b9299060ff1615611e6c5750565b6044906040519063e2517d3f60e01b82523360048301526024820152fd5b335f9081527fad3228b676f7d3cd4284a5443f17f1962b36e491b30a40b2405849e597ba5fb5602052604090205460ff1615611ec257565b60405163e2517d3f60e01b81523360048201525f6024820152604490fd5b335f9081527ffaf93c3d007e112089dc8351e013e6685ef67703975d0224b26fc45941d4f1f560205260409020547fe2b7fb3b832174769106daebcfd6d1970523240dda11281102db9363b83b0dc49060ff1615611e6c5750565b805f525f60205260405f20335f5260205260ff60405f20541615611e6c5750565b90815f525f60205260405f209060018060a01b031690815f5260205260ff60405f205416155f14611fd257815f525f60205260405f20815f5260205260405f20600160ff1982541617905533917f2f8788117e7eff1d82e926ec794901d17c78024a50270940304540a733656f0d5f80a4600190565b50505f90565b90815f525f60205260405f209060018060a01b031690815f5260205260ff60405f2054165f14611fd257815f525f60205260405f20815f5260205260405f2060ff19815416905533917ff6391f5c32d9c69d2a47ea670b442974b53935d1edc7fd64eb21e047a839171b5f80a4600190565b60ff6001541661205657565b60405163d93c066560e01b8152600490fd5b60408051606083811b6bffffffffffffffffffffffff1990811660208401908152603484018790529187901b166054830152939695919493612163916120b18160688101611421565b51902096875f526004602052600560ff81885f2001541615936120d660095442611c78565b8851936120e285611a9c565b8452602084019160018060a01b03809916835289850190815260608501904282526080860192835260a0860193600185528d5f5260046020528b5f20965187558a600188019151166001600160601b0360a01b82541617905551600286015551600385015551600484015551151591019060ff801983541691151516179055565b61217b575b505050612176600a54611c85565b600a55565b165f5260056020525f208054600160401b811015611a885761060581859360016121a794018155611bc5565b90555f8080612168565b81519190604183036121e1576121da9250602082015190606060408401519301515f1a9061226e565b9192909190565b50505f9160029190565b600481101561225a57806121fd575050565b600181036122175760405163f645eedf60e01b8152600490fd5b600281036122385760405163fce698f760e01b815260048101839052602490fd5b6003146122425750565b602490604051906335e2f38360e21b82526004820152fd5b634e487b7160e01b5f52602160045260245ffd5b91907f7fffffffffffffffffffffffffffffff5d576e7357a4501ddfe92f46681b20a084116122f0579160209360809260ff5f9560405194855216868401526040830152606082015282805260015afa156122e5575f516001600160a01b038116156122db57905f905f90565b505f906001905f90565b6040513d5f823e3d90fd5b5050505f916003919056fea2646970667358221220e726b0e4c935d98d30c3384bacbcffcb8b026feaf7e7e8e31432de00641b7f8664736f6c634300081800332f8788117e7eff1d82e926ec794901d17c78024a50270940304540a733656f0dad3228b676f7d3cd4284a5443f17f1962b36e491b30a40b2405849e597ba5fb5","linkReferences":{}},"methodIdentifiers":{"DEFAULT_ADMIN_ROLE()":"a217fddf","OPERATOR_ROLE()":"f5b541a6","RELAYER_ROLE()":"926d7d7f","addRelayer(uint256,address)":"d77bea20","aggregatedHoldings(address)":"474a7a0b","batchSubmitVerifications(address[],uint256[],address[],uint256[])":"ae1e6c51","batchUpdateTokenPrices(uint256[],address[],uint256[])":"dfa79430","chainConfigs(uint256)":"51bfbc32","configureChain(uint256,string,bool,uint256)":"e9f7ac08","getAggregatedHolding(address)":"7ddb3cc0","getChainConfig(uint256)":"19ed16dc","getRoleAdmin(bytes32)":"248a9ca3","getSupportedChains()":"c4bffe2b","getUserChainValue(address,uint256)":"07246ce2","getUserHoldings(address)":"8231f4f0","getUserValidHoldings(address)":"3c44ec92","grantRole(bytes32,address)":"2f2ff15d","hasRole(bytes32,address)":"91d14854","hasValidHolding(address,uint256,address,uint256)":"3befbf4a","invalidateHolding(bytes32)":"b6c9d78d","pause()":"8456cb59","paused()":"5c975abb","renounceRole(bytes32,address)":"36568abe","revokeRole(bytes32,address)":"d547741f","setTrustedSigner(address,bool)":"bacf9946","setVerificationValidityPeriod(uint256)":"50b02243","submitVerification(address,uint256,address,uint256,uint256)":"a6708519","supportedChains(uint256)":"548d496f","supportsInterface(bytes4)":"01ffc9a7","tokenPrices(uint256,address)":"83271e93","totalValueVerified()":"e7152b6c","totalVerifications()":"ac90c140","trustedSigners(address)":"f7777688","unpause()":"3f4ba83a","updateAggregatedHolding(address)":"034103cb","updateTokenPrice(uint256,address,uint256)":"3428cebb","userHoldings(address,uint256)":"5cb59849","verificationValidityPeriod()":"644ae0b9","verifiedHoldings(bytes32)":"5fdd48e6","verifyHoldingBySignature(address,uint256,address,uint256,uint256,uint256,bytes)":"f1bce18c"},"id":56}