{"abi":[{"type":"constructor","inputs":[{"name":"_communityPool","type":"address","internalType":"address"},{"name":"_ecosystemPool","type":"address","internalType":"address"},{"name":"_teamPool","type":"address","internalType":"address"},{"name":"_investorPool","type":"address","internalType":"address"},{"name":"_liquidityPool","type":"address","internalType":"address"}],"stateMutability":"nonpayable"},{"type":"function","name":"COMMUNITY_ALLOCATION","inputs":[],"outputs":[{"name":"","type":"uint256","internalType":"uint256"}],"stateMutability":"view"},{"type":"function","name":"DEFAULT_ADMIN_ROLE","inputs":[],"outputs":[{"name":"","type":"bytes32","internalType":"bytes32"}],"stateMutability":"view"},{"type":"function","name":"DOMAIN_SEPARATOR","inputs":[],"outputs":[{"name":"","type":"bytes32","internalType":"bytes32"}],"stateMutability":"view"},{"type":"function","name":"ECOSYSTEM_ALLOCATION","inputs":[],"outputs":[{"name":"","type":"uint256","internalType":"uint256"}],"stateMutability":"view"},{"type":"function","name":"INVESTOR_ALLOCATION","inputs":[],"outputs":[{"name":"","type":"uint256","internalType":"uint256"}],"stateMutability":"view"},{"type":"function","name":"LIQUIDITY_ALLOCATION","inputs":[],"outputs":[{"name":"","type":"uint256","internalType":"uint256"}],"stateMutability":"view"},{"type":"function","name":"MAX_SUPPLY","inputs":[],"outputs":[{"name":"","type":"uint256","internalType":"uint256"}],"stateMutability":"view"},{"type":"function","name":"MINTER_ROLE","inputs":[],"outputs":[{"name":"","type":"bytes32","internalType":"bytes32"}],"stateMutability":"view"},{"type":"function","name":"PAUSER_ROLE","inputs":[],"outputs":[{"name":"","type":"bytes32","internalType":"bytes32"}],"stateMutability":"view"},{"type":"function","name":"PUBLIC_ALLOCATION","inputs":[],"outputs":[{"name":"","type":"uint256","internalType":"uint256"}],"stateMutability":"view"},{"type":"function","name":"TEAM_ALLOCATION","inputs":[],"outputs":[{"name":"","type":"uint256","internalType":"uint256"}],"stateMutability":"view"},{"type":"function","name":"allocationMinted","inputs":[{"name":"","type":"bytes32","internalType":"bytes32"}],"outputs":[{"name":"","type":"uint256","internalType":"uint256"}],"stateMutability":"view"},{"type":"function","name":"allowance","inputs":[{"name":"owner","type":"address","internalType":"address"},{"name":"spender","type":"address","internalType":"address"}],"outputs":[{"name":"","type":"uint256","internalType":"uint256"}],"stateMutability":"view"},{"type":"function","name":"approve","inputs":[{"name":"spender","type":"address","internalType":"address"},{"name":"value","type":"uint256","internalType":"uint256"}],"outputs":[{"name":"","type":"bool","internalType":"bool"}],"stateMutability":"nonpayable"},{"type":"function","name":"balanceOf","inputs":[{"name":"account","type":"address","internalType":"address"}],"outputs":[{"name":"","type":"uint256","internalType":"uint256"}],"stateMutability":"view"},{"type":"function","name":"burn","inputs":[{"name":"amount","type":"uint256","internalType":"uint256"}],"outputs":[],"stateMutability":"nonpayable"},{"type":"function","name":"burnFrom","inputs":[{"name":"account","type":"address","internalType":"address"},{"name":"amount","type":"uint256","internalType":"uint256"}],"outputs":[],"stateMutability":"nonpayable"},{"type":"function","name":"circulatingSupply","inputs":[],"outputs":[{"name":"","type":"uint256","internalType":"uint256"}],"stateMutability":"view"},{"type":"function","name":"communityPool","inputs":[],"outputs":[{"name":"","type":"address","internalType":"address"}],"stateMutability":"view"},{"type":"function","name":"decimals","inputs":[],"outputs":[{"name":"","type":"uint8","internalType":"uint8"}],"stateMutability":"view"},{"type":"function","name":"ecosystemPool","inputs":[],"outputs":[{"name":"","type":"address","internalType":"address"}],"stateMutability":"view"},{"type":"function","name":"eip712Domain","inputs":[],"outputs":[{"name":"fields","type":"bytes1","internalType":"bytes1"},{"name":"name","type":"string","internalType":"string"},{"name":"version","type":"string","internalType":"string"},{"name":"chainId","type":"uint256","internalType":"uint256"},{"name":"verifyingContract","type":"address","internalType":"address"},{"name":"salt","type":"bytes32","internalType":"bytes32"},{"name":"extensions","type":"uint256[]","internalType":"uint256[]"}],"stateMutability":"view"},{"type":"function","name":"getAllocationMinted","inputs":[{"name":"allocation","type":"string","internalType":"string"}],"outputs":[{"name":"","type":"uint256","internalType":"uint256"}],"stateMutability":"view"},{"type":"function","name":"getAllocationRemaining","inputs":[{"name":"allocation","type":"string","internalType":"string"},{"name":"allocationBps","type":"uint256","internalType":"uint256"}],"outputs":[{"name":"","type":"uint256","internalType":"uint256"}],"stateMutability":"view"},{"type":"function","name":"getRoleAdmin","inputs":[{"name":"role","type":"bytes32","internalType":"bytes32"}],"outputs":[{"name":"","type":"bytes32","internalType":"bytes32"}],"stateMutability":"view"},{"type":"function","name":"getTokenStats","inputs":[],"outputs":[{"name":"maxSupply","type":"uint256","internalType":"uint256"},{"name":"minted","type":"uint256","internalType":"uint256"},{"name":"burned","type":"uint256","internalType":"uint256"},{"name":"circulating","type":"uint256","internalType":"uint256"}],"stateMutability":"view"},{"type":"function","name":"grantRole","inputs":[{"name":"role","type":"bytes32","internalType":"bytes32"},{"name":"account","type":"address","internalType":"address"}],"outputs":[],"stateMutability":"nonpayable"},{"type":"function","name":"hasRole","inputs":[{"name":"role","type":"bytes32","internalType":"bytes32"},{"name":"account","type":"address","internalType":"address"}],"outputs":[{"name":"","type":"bool","internalType":"bool"}],"stateMutability":"view"},{"type":"function","name":"initialDistribution","inputs":[],"outputs":[],"stateMutability":"nonpayable"},{"type":"function","name":"investorPool","inputs":[],"outputs":[{"name":"","type":"address","internalType":"address"}],"stateMutability":"view"},{"type":"function","name":"liquidityPool","inputs":[],"outputs":[{"name":"","type":"address","internalType":"address"}],"stateMutability":"view"},{"type":"function","name":"mintCommunityAllocation","inputs":[{"name":"amount","type":"uint256","internalType":"uint256"}],"outputs":[],"stateMutability":"nonpayable"},{"type":"function","name":"mintEcosystemAllocation","inputs":[{"name":"amount","type":"uint256","internalType":"uint256"}],"outputs":[],"stateMutability":"nonpayable"},{"type":"function","name":"mintInvestorAllocation","inputs":[{"name":"amount","type":"uint256","internalType":"uint256"}],"outputs":[],"stateMutability":"nonpayable"},{"type":"function","name":"mintLiquidityAllocation","inputs":[{"name":"amount","type":"uint256","internalType":"uint256"}],"outputs":[],"stateMutability":"nonpayable"},{"type":"function","name":"mintTeamAllocation","inputs":[{"name":"amount","type":"uint256","internalType":"uint256"}],"outputs":[],"stateMutability":"nonpayable"},{"type":"function","name":"name","inputs":[],"outputs":[{"name":"","type":"string","internalType":"string"}],"stateMutability":"view"},{"type":"function","name":"nonces","inputs":[{"name":"owner","type":"address","internalType":"address"}],"outputs":[{"name":"","type":"uint256","internalType":"uint256"}],"stateMutability":"view"},{"type":"function","name":"pause","inputs":[],"outputs":[],"stateMutability":"nonpayable"},{"type":"function","name":"paused","inputs":[],"outputs":[{"name":"","type":"bool","internalType":"bool"}],"stateMutability":"view"},{"type":"function","name":"permit","inputs":[{"name":"owner","type":"address","internalType":"address"},{"name":"spender","type":"address","internalType":"address"},{"name":"value","type":"uint256","internalType":"uint256"},{"name":"deadline","type":"uint256","internalType":"uint256"},{"name":"v","type":"uint8","internalType":"uint8"},{"name":"r","type":"bytes32","internalType":"bytes32"},{"name":"s","type":"bytes32","internalType":"bytes32"}],"outputs":[],"stateMutability":"nonpayable"},{"type":"function","name":"renounceRole","inputs":[{"name":"role","type":"bytes32","internalType":"bytes32"},{"name":"callerConfirmation","type":"address","internalType":"address"}],"outputs":[],"stateMutability":"nonpayable"},{"type":"function","name":"revokeRole","inputs":[{"name":"role","type":"bytes32","internalType":"bytes32"},{"name":"account","type":"address","internalType":"address"}],"outputs":[],"stateMutability":"nonpayable"},{"type":"function","name":"setCommunityPool","inputs":[{"name":"_pool","type":"address","internalType":"address"}],"outputs":[],"stateMutability":"nonpayable"},{"type":"function","name":"setEcosystemPool","inputs":[{"name":"_pool","type":"address","internalType":"address"}],"outputs":[],"stateMutability":"nonpayable"},{"type":"function","name":"setInvestorPool","inputs":[{"name":"_pool","type":"address","internalType":"address"}],"outputs":[],"stateMutability":"nonpayable"},{"type":"function","name":"setLiquidityPool","inputs":[{"name":"_pool","type":"address","internalType":"address"}],"outputs":[],"stateMutability":"nonpayable"},{"type":"function","name":"setTeamPool","inputs":[{"name":"_pool","type":"address","internalType":"address"}],"outputs":[],"stateMutability":"nonpayable"},{"type":"function","name":"supportsInterface","inputs":[{"name":"interfaceId","type":"bytes4","internalType":"bytes4"}],"outputs":[{"name":"","type":"bool","internalType":"bool"}],"stateMutability":"view"},{"type":"function","name":"symbol","inputs":[],"outputs":[{"name":"","type":"string","internalType":"string"}],"stateMutability":"view"},{"type":"function","name":"teamPool","inputs":[],"outputs":[{"name":"","type":"address","internalType":"address"}],"stateMutability":"view"},{"type":"function","name":"totalBurned","inputs":[],"outputs":[{"name":"","type":"uint256","internalType":"uint256"}],"stateMutability":"view"},{"type":"function","name":"totalMinted","inputs":[],"outputs":[{"name":"","type":"uint256","internalType":"uint256"}],"stateMutability":"view"},{"type":"function","name":"totalSupply","inputs":[],"outputs":[{"name":"","type":"uint256","internalType":"uint256"}],"stateMutability":"view"},{"type":"function","name":"transfer","inputs":[{"name":"to","type":"address","internalType":"address"},{"name":"value","type":"uint256","internalType":"uint256"}],"outputs":[{"name":"","type":"bool","internalType":"bool"}],"stateMutability":"nonpayable"},{"type":"function","name":"transferFrom","inputs":[{"name":"from","type":"address","internalType":"address"},{"name":"to","type":"address","internalType":"address"},{"name":"value","type":"uint256","internalType":"uint256"}],"outputs":[{"name":"","type":"bool","internalType":"bool"}],"stateMutability":"nonpayable"},{"type":"function","name":"unpause","inputs":[],"outputs":[],"stateMutability":"nonpayable"},{"type":"event","name":"AllocationMinted","inputs":[{"name":"allocation","type":"string","indexed":true,"internalType":"string"},{"name":"recipient","type":"address","indexed":true,"internalType":"address"},{"name":"amount","type":"uint256","indexed":false,"internalType":"uint256"}],"anonymous":false},{"type":"event","name":"Approval","inputs":[{"name":"owner","type":"address","indexed":true,"internalType":"address"},{"name":"spender","type":"address","indexed":true,"internalType":"address"},{"name":"value","type":"uint256","indexed":false,"internalType":"uint256"}],"anonymous":false},{"type":"event","name":"EIP712DomainChanged","inputs":[],"anonymous":false},{"type":"event","name":"Paused","inputs":[{"name":"account","type":"address","indexed":false,"internalType":"address"}],"anonymous":false},{"type":"event","name":"PoolAddressUpdated","inputs":[{"name":"pool","type":"string","indexed":true,"internalType":"string"},{"name":"newAddress","type":"address","indexed":true,"internalType":"address"}],"anonymous":false},{"type":"event","name":"RoleAdminChanged","inputs":[{"name":"role","type":"bytes32","indexed":true,"internalType":"bytes32"},{"name":"previousAdminRole","type":"bytes32","indexed":true,"internalType":"bytes32"},{"name":"newAdminRole","type":"bytes32","indexed":true,"internalType":"bytes32"}],"anonymous":false},{"type":"event","name":"RoleGranted","inputs":[{"name":"role","type":"bytes32","indexed":true,"internalType":"bytes32"},{"name":"account","type":"address","indexed":true,"internalType":"address"},{"name":"sender","type":"address","indexed":true,"internalType":"address"}],"anonymous":false},{"type":"event","name":"RoleRevoked","inputs":[{"name":"role","type":"bytes32","indexed":true,"internalType":"bytes32"},{"name":"account","type":"address","indexed":true,"internalType":"address"},{"name":"sender","type":"address","indexed":true,"internalType":"address"}],"anonymous":false},{"type":"event","name":"TokensBurned","inputs":[{"name":"burner","type":"address","indexed":true,"internalType":"address"},{"name":"amount","type":"uint256","indexed":false,"internalType":"uint256"}],"anonymous":false},{"type":"event","name":"Transfer","inputs":[{"name":"from","type":"address","indexed":true,"internalType":"address"},{"name":"to","type":"address","indexed":true,"internalType":"address"},{"name":"value","type":"uint256","indexed":false,"internalType":"uint256"}],"anonymous":false},{"type":"event","name":"Unpaused","inputs":[{"name":"account","type":"address","indexed":false,"internalType":"address"}],"anonymous":false},{"type":"error","name":"AccessControlBadConfirmation","inputs":[]},{"type":"error","name":"AccessControlUnauthorizedAccount","inputs":[{"name":"account","type":"address","internalType":"address"},{"name":"neededRole","type":"bytes32","internalType":"bytes32"}]},{"type":"error","name":"ECDSAInvalidSignature","inputs":[]},{"type":"error","name":"ECDSAInvalidSignatureLength","inputs":[{"name":"length","type":"uint256","internalType":"uint256"}]},{"type":"error","name":"ECDSAInvalidSignatureS","inputs":[{"name":"s","type":"bytes32","internalType":"bytes32"}]},{"type":"error","name":"ERC20InsufficientAllowance","inputs":[{"name":"spender","type":"address","internalType":"address"},{"name":"allowance","type":"uint256","internalType":"uint256"},{"name":"needed","type":"uint256","internalType":"uint256"}]},{"type":"error","name":"ERC20InsufficientBalance","inputs":[{"name":"sender","type":"address","internalType":"address"},{"name":"balance","type":"uint256","internalType":"uint256"},{"name":"needed","type":"uint256","internalType":"uint256"}]},{"type":"error","name":"ERC20InvalidApprover","inputs":[{"name":"approver","type":"address","internalType":"address"}]},{"type":"error","name":"ERC20InvalidReceiver","inputs":[{"name":"receiver","type":"address","internalType":"address"}]},{"type":"error","name":"ERC20InvalidSender","inputs":[{"name":"sender","type":"address","internalType":"address"}]},{"type":"error","name":"ERC20InvalidSpender","inputs":[{"name":"spender","type":"address","internalType":"address"}]},{"type":"error","name":"ERC2612ExpiredSignature","inputs":[{"name":"deadline","type":"uint256","internalType":"uint256"}]},{"type":"error","name":"ERC2612InvalidSigner","inputs":[{"name":"signer","type":"address","internalType":"address"},{"name":"owner","type":"address","internalType":"address"}]},{"type":"error","name":"EnforcedPause","inputs":[]},{"type":"error","name":"ExpectedPause","inputs":[]},{"type":"error","name":"InvalidAccountNonce","inputs":[{"name":"account","type":"address","internalType":"address"},{"name":"currentNonce","type":"uint256","internalType":"uint256"}]},{"type":"error","name":"InvalidShortString","inputs":[]},{"type":"error","name":"StringTooLong","inputs":[{"name":"str","type":"string","internalType":"string"}]}],"bytecode":{"object":"0x610160346200070457601f6200318738819003918201601f19168301916001600160401b03831184841017620004b45780849260a09460405283398101031262000704576200004e8162000724565b6200005c6020830162000724565b6200006a6040840162000724565b6200008660806200007e6060870162000724565b950162000724565b9160405192620000968462000708565b600f84526e20b6383430a732b9ba102a37b5b2b760891b9586602086015260405196620000c38862000708565b600f88526020880152604051620000da8162000708565b6005815264414c50484160d81b602082015260405197620000fb8962000708565b60018952603160f81b60208a01528051906001600160401b038211620004b45760035490600182811c92168015620006f9575b6020831014620005d15781601f84931162000689575b50602090601f8311600114620005fc575f92620005f0575b50508160011b915f199060031b1c1916176003555b8051906001600160401b038211620004b45760045490600182811c92168015620005e5575b6020831014620005d15781601f84931162000561575b50602090601f8311600114620004d4575f92620004c8575b50508160011b915f199060031b1c1916176004555b620001e485620008e5565b95610120968752620001f68862000a9d565b9561014096875260208151910120978860e052602081519101209361010098858a524660a0526040519560208701917f8b73c3c69bb8fe3d512ecc4cf759cc79239f7b179b0ffacaa9a75d522b39400f8352604088015260608701524660808701523060a087015260a0865260c086019086821060018060401b03831117620004b4576040829052865190206080523060c0526001600160a01b039283169586156200047057505081169485156200042b578116918215620003f2578116928315620003ad5716938415620003685760018060a01b03199384600c541617600c5583600d541617600d5582600e541617600e5581600f541617600f556010541617601055620003053362000739565b506200031133620007a9565b506200031d336200084a565b50604051916124fc938462000c4b853960805184611f13015260a05184611fdf015260c05184611edd015260e05184611f6201525183611f8801525182610e3c01525181610e660152f35b60405162461bcd60e51b815260206004820152601660248201527f496e76616c6964206c697175696469747920706f6f6c000000000000000000006044820152606490fd5b60405162461bcd60e51b815260206004820152601560248201527f496e76616c696420696e766573746f7220706f6f6c00000000000000000000006044820152606490fd5b60405162461bcd60e51b8152602060048201526011602482015270125b9d985b1a59081d19585b481c1bdbdb607a1b6044820152606490fd5b60405162461bcd60e51b815260206004820152601660248201527f496e76616c69642065636f73797374656d20706f6f6c000000000000000000006044820152606490fd5b62461bcd60e51b8252602060c4820152601660e48201527f496e76616c696420636f6d6d756e69747920706f6f6c0000000000000000000061010490910152606490fd5b634e487b7160e01b5f52604160045260245ffd5b015190505f80620001c4565b60045f90815293507f8a35acfbc15ff81a39ae7d344fd709f28e8600b4aa8c65c6b64bfe7fe36bd19b91905b601f198416851062000545576001945083601f198116106200052c575b505050811b01600455620001d9565b01515f1960f88460031b161c191690555f80806200051d565b8181015183556020948501946001909301929091019062000500565b60045f529091507f8a35acfbc15ff81a39ae7d344fd709f28e8600b4aa8c65c6b64bfe7fe36bd19b601f840160051c810160208510620005c9575b90849392915b601f830160051c82018110620005ba575050620001ac565b5f8155859450600101620005a2565b50806200059c565b634e487b7160e01b5f52602260045260245ffd5b91607f169162000196565b015190505f806200015c565b60035f90815293507fc2575a0e9e593c00f959f8c92f12db2869c3395a3b0502d05e2516446f71f85b91905b601f19841685106200066d576001945083601f1981161062000654575b505050811b0160035562000171565b01515f1960f88460031b161c191690555f808062000645565b8181015183556020948501946001909301929091019062000628565b60035f529091507fc2575a0e9e593c00f959f8c92f12db2869c3395a3b0502d05e2516446f71f85b601f840160051c810160208510620006f1575b90849392915b601f830160051c82018110620006e257505062000144565b5f8155859450600101620006ca565b5080620006c4565b91607f16916200012e565b5f80fd5b604081019081106001600160401b03821117620004b457604052565b51906001600160a01b03821682036200070457565b6001600160a01b03165f8181525f8051602062003167833981519152602052604090205460ff16620007a4575f8181525f805160206200316783398151915260205260408120805460ff191660011790553391905f80516020620031478339815191528180a4600190565b505f90565b6001600160a01b03165f8181527f51a495916474fe1a0c0fcfb65a8a97682b84a054118858cdd1f5dfd7fc0919eb60205260409020547f9f2df0fed2c77648de5860a4cc508cd0818c85b8b8a1ab4ceeef8d981c8956a6919060ff166200084457815f52600860205260405f20815f5260205260405f20600160ff1982541617905533915f80516020620031478339815191525f80a4600190565b50505f90565b6001600160a01b03165f8181527f62e8532f45d82220ddea5da89acccbf142e829ab973b22f3386ec35cb0f9290160205260409020547f65d7a28e3265b37a6474929f336521b332c1681b933f6cb9f3376673440d862a919060ff166200084457815f52600860205260405f20815f5260205260405f20600160ff1982541617905533915f80516020620031478339815191525f80a4600190565b8051602091908281101562000981575090601f8251116200092257808251920151908083106200091457501790565b825f19910360031b1b161790565b90604051809263305a27a960e01b82528060048301528251908160248401525f935b82851062000967575050604492505f838284010152601f80199101168101030190fd5b848101820151868601604401529381019385935062000944565b6001600160401b038111620004b4576005928354926001938481811c9116801562000a92575b83821014620005d157601f811162000a5e575b5081601f8411600114620009f857509282939183925f94620009ec575b50501b915f199060031b1c191617905560ff90565b015192505f80620009d7565b919083601f198116875f52845f20945f905b8883831062000a43575050501062000a2a575b505050811b01905560ff90565b01515f1960f88460031b161c191690555f808062000a1d565b85870151885590960195948501948793509081019062000a0a565b855f5284601f845f209201871c820191601f8601881c015b82811062000a86575050620009ba565b5f815501859062000a76565b90607f1690620009a7565b80516020908181101562000b295750601f82511162000aca57808251920151908083106200091457501790565b90604051809263305a27a960e01b82528060048301528251908160248401525f935b82851062000b0f575050604492505f838284010152601f80199101168101030190fd5b848101820151868601604401529381019385935062000aec565b906001600160401b038211620004b457600654926001938481811c9116801562000c3f575b83821014620005d157601f811162000c08575b5081601f841160011462000ba057509282939183925f9462000b94575b50501b915f199060031b1c19161760065560ff90565b015192505f8062000b7e565b919083601f19811660065f52845f20945f905b8883831062000bed575050501062000bd4575b505050811b0160065560ff90565b01515f1960f88460031b161c191690555f808062000bc6565b85870151885590960195948501948793509081019062000bb3565b60065f5284601f845f20920160051c820191601f860160051c015b82811062000c3357505062000b61565b5f815501859062000c23565b90607f169062000b4e56fe604060808152600480361015610013575f80fd5b5f3560e01c90816301877020146118dc57816301ffc9a714611888578163069789f0146117f957816306fdde0314611727578163095ea7b3146116fe578163097cd9bf146116b757816310b5347a1461163c57816314d140b01461161457816318160ddd146115f657816323b872dd146115ba578163248a9ca3146115905781632d8a52dd146114eb5781632f2ff15d146114c3578163313ce567146114a857816332cb6b0c146114825781633644e5151461146657816336568abe1461142257816339636504146113fa5781633f4ba83a14611393578163410a1db11461131857816342966c68146112be5781634f59f0e41461129657816351b7a2161461126f57816356a871df146111e75781635c975abb146111c4578163665a11ca1461119c5781636be63dab1461112157816370a08231146110eb57816378bfb3a51461107057816379cc679014610ffb5781637cbd26ef14610fd35781637ecebe0014610f9c5781638456cb5914610f4357816384b0196e14610e2557816388f1496614610dc85781638e8fe3be14610d3b57816390534f2414610d1f57816391d1485414610cdb5781639358928b14610cb157816395645e34146108f057816395d89b4114610804578163993eb1c5146107e85781639af8929f14610794578163a217fddf1461077a578163a2309ff81461075c578163a9059cbb1461072c578163d505accf146105cd578163d539139314610593578163d547741f14610557578163d89135cd14610539578163dd62ed3e146104f0578163dda559801461030a57508063e2571f5d14610305578063e3177e6b14610305578063e63ab1e9146102cb578063f9428f38146102af5763fd99cbed14610290575f80fd5b346102ab575f3660031901126102ab57602090516105dc8152f35b5f80fd5b50346102ab575f3660031901126102ab57602090516101f48152f35b50346102ab575f3660031901126102ab57602090517f65d7a28e3265b37a6474929f336521b332c1681b933f6cb9f3376673440d862a8152f35b6119f7565b82346102ab57602090816003193601126102ab57823591610329611bca565b60018060a01b03600d541692825161034081611a51565b60098152828101956865636f73797374656d60b81b87527f9c28c0e7f24473b02f05ded2aef7a9890c81a46c38fb26b940624dbb4dd591dd805f52601185526aa56fa5b99019a5c800000061039885885f2054611b42565b116104b7576b033b2e3c9fd0803ce80000006103b685600a54611b42565b1161047e575f5260118452845f206103cf848254611b42565b90556103dd83600a54611b42565b600a55851561046857507eb9efd5ab0446905d6e90d28b0fab5a870033585c358ff23b0d381508c0109093949561045b9161041661219a565b61042284600254611b42565b600255875f525f8552865f20848154019055875f5f805160206124a7833981519152878a51888152a38651928392839251928391611983565b81010390209351908152a3005b6024905f86519163ec442f0560e01b8352820152fd5b855162461bcd60e51b8152808301869052601360248201527213585e081cdd5c1c1b1e48195e18d959591959606a1b6044820152606490fd5b855162461bcd60e51b81528083018690526013602482015272105b1b1bd8d85d1a5bdb88195e18d959591959606a1b6044820152606490fd5b82346102ab57806003193601126102ab5760209061050c611957565b61051461196d565b9060018060a01b038091165f5260018452825f2091165f528252805f20549051908152f35b82346102ab575f3660031901126102ab57602090600b549051908152f35b82346102ab57806003193601126102ab57610591913561058c600161057a61196d565b93835f5260086020525f200154611c9e565b612005565b005b82346102ab575f3660031901126102ab57602090517f9f2df0fed2c77648de5860a4cc508cd0818c85b8b8a1ab4ceeef8d981c8956a68152f35b9050346102ab5760e03660031901126102ab576105e8611957565b6105f061196d565b906044359260643560843560ff811681036102ab578142116107155760018060a01b039081851692835f526007602052885f209081549160018301905589519060208201927f6e71edae12b1b97f4d1f60370fef10105fa2faae0126114a169c64845d6126c98452868c840152858a1660608401528a608084015260a083015260c082015260c0815260e0810181811067ffffffffffffffff821117610702578a525190206106d4916106cb916106a5611eda565b908b519161190160f01b83526002830152602282015260c43591604260a4359220612376565b90929192612403565b168181036106e757610591868686612079565b86516325c0072360e11b815292830152602482015260449150fd5b604187634e487b7160e01b5f525260245ffd5b865163313c898160e11b8152808401839052602490fd5b82346102ab57806003193601126102ab5760209061075561074b611957565b6024359033611d8d565b5160018152f35b82346102ab575f3660031901126102ab57602090600a549051908152f35b82346102ab575f3660031901126102ab57602090515f8152f35b82346102ab5760203660031901126102ab5781359167ffffffffffffffff83116102ab576107ca6107d1916020943691016119c9565b3691611afc565b8281519101205f5260118252805f20549051908152f35b82346102ab575f3660031901126102ab5760209051610fa08152f35b9050346102ab575f3660031901126102ab57815191825f835461082681611aa3565b90818452602095600191876001821691825f146108c957505060011461086d575b505050610869929161085a910385611a81565b519282849384528301906119a4565b0390f35b5f90815286935091907f8a35acfbc15ff81a39ae7d344fd709f28e8600b4aa8c65c6b64bfe7fe36bd19b5b8284106108b1575050508201018161085a610869610847565b8054848a018601528895508794909301928101610898565b60ff19168782015293151560051b8601909301935084925061085a91506108699050610847565b9050346102ab575f3660031901126102ab5761090a611bca565b6010546001600160a01b039081169290610922611b4f565b9081519060209283810192832091825f52601197888652865f2054946a295be96e6406697200000095868101809111610c9f578610610c6657600a93845495878701809711610bf3576b033b2e3c9fd0803ce8000000809711610c2d575f528a8852885f20805490888201809211610c1b57558454878101809111610bf35785558215610c05576109b161219a565b600254878101809111610bf35788999a939192899593835f8e610a0695600255828252818a528082208d8154019055518c81525f805160206124a7833981519152998a91a38c51928392839251928391611983565b81010390208a518881527eb9efd5ab0446905d6e90d28b0fab5a870033585c358ff23b0d381508c010909a8b91a3600f541698885193610a4585611a51565b6006855287850195657075626c696360d01b87527f3c0c3a2537aaf75b853bbf2b595e872d3db0359b7e792ebd8907fb017c3b71a290815f52838a528b5f2054898101809111610ba8576a52b7d2dcc80cd2e400000010610bba578254898101809111610ba85711610b6f575f52818852895f20805490888201809211610b5d5755805490878201809211610b4b57558915610b3557610ae361219a565b60025491868301809311610b255750505f61045b9493928a92600255828252818852898220878154019055878a51888152a38651928392839251928391611983565b634e487b7160e01b5f525260245ffd5b885163ec442f0560e01b81525f81840152602490fd5b8284634e487b7160e01b5f525260245ffd5b8385634e487b7160e01b5f525260245ffd5b8a5162461bcd60e51b81528085018a9052601360248201527213585e081cdd5c1c1b1e48195e18d959591959606a1b6044820152606490fd5b8486634e487b7160e01b5f525260245ffd5b8b5162461bcd60e51b81528086018b90526013602482015272105b1b1bd8d85d1a5bdb88195e18d959591959606a1b6044820152606490fd5b8b8b634e487b7160e01b5f525260245ffd5b885163ec442f0560e01b81525f818c0152602490fd5b8c8c634e487b7160e01b5f525260245ffd5b895162461bcd60e51b8152808c018a9052601360248201527213585e081cdd5c1c1b1e48195e18d959591959606a1b6044820152606490fd5b875162461bcd60e51b8152808a018890526013602482015272105b1b1bd8d85d1a5bdb88195e18d959591959606a1b6044820152606490fd5b8a8a634e487b7160e01b5f525260245ffd5b82346102ab575f3660031901126102ab57602090610cd4600a54600b5490611adb565b9051908152f35b82346102ab57806003193601126102ab57602091610cf761196d565b90355f5260088352815f209060018060a01b03165f52825260ff815f20541690519015158152f35b82346102ab575f3660031901126102ab57602090516107d08152f35b82346102ab57602090816003193601126102ab57823591610d5a611bca565b60018060a01b03600f5416928251610d7181611a51565b60088152828101956734b73b32b9ba37b960c11b87527f4defcbe185079e8fa77f7b9fc7063c614fab765cfcb6e3ee77b6d44cbd033288805f52601185526a52b7d2dcc80cd2e400000061039885885f2054611b42565b82346102ab57602090816003193601126102ab57823591610de7611bca565b6010546001600160a01b031692610dfc611b4f565b805195838201968720805f52601185526a295be96e6406697200000061039885885f2054611b42565b9050346102ab575f3660031901126102ab57610e607f00000000000000000000000000000000000000000000000000000000000000006121b8565b91610e8a7f00000000000000000000000000000000000000000000000000000000000000006122b9565b815191602091602084019484861067ffffffffffffffff871117610f305750610ee58260209287610ed899989795525f85528151988998600f60f81b8a5260e0868b015260e08a01906119a4565b91888303908901526119a4565b914660608701523060808701525f60a087015285830360c087015251918281520192915f5b828110610f1957505050500390f35b835185528695509381019392810192600101610f0a565b604190634e487b7160e01b5f525260245ffd5b82346102ab575f3660031901126102ab5760207f62e78cea01bee320cd4e420270b5ea74000d11b0c9f74754ebdbfc544b05a25891610f80611c43565b610f8861219a565b600160ff19600954161760095551338152a1005b82346102ab5760203660031901126102ab576020906001600160a01b03610fc1611957565b165f5260078252805f20549051908152f35b82346102ab575f3660031901126102ab57600d5490516001600160a01b039091168152602090f35b82346102ab57806003193601126102ab577ffd38818f5291bf0bb3a2a48aadc06ba8757865d1dabd804585338aab3009dcb66020611037611957565b60243593611046853384611cc0565b6110508583612106565b61105c85600b54611b42565b600b55519384526001600160a01b031692a2005b346102ab5760203660031901126102ab57611089611957565b611091611b74565b6001600160a01b03166110a5811515611a13565b600f80546001600160a01b031916821790557f4defcbe185079e8fa77f7b9fc7063c614fab765cfcb6e3ee77b6d44cbd0332885f805160206124878339815191525f80a3005b82346102ab5760203660031901126102ab576020906001600160a01b03611110611957565b165f525f8252805f20549051908152f35b346102ab5760203660031901126102ab5761113a611957565b611142611b74565b6001600160a01b0316611156811515611a13565b600d80546001600160a01b031916821790557f9c28c0e7f24473b02f05ded2aef7a9890c81a46c38fb26b940624dbb4dd591dd5f805160206124878339815191525f80a3005b82346102ab575f3660031901126102ab5760105490516001600160a01b039091168152602090f35b82346102ab575f3660031901126102ab5760209060ff6009541690519015158152f35b82346102ab57602090816003193601126102ab57823591611206611bca565b60018060a01b03600e541692825161121d81611a51565b85815282810195637465616d60e01b87527fe1dfd0dbf63767a45b3f20993b337a1eef2b19b117cd799475c77d789e43b92d805f52601185526a7c13bc4b2c133c5600000061039885885f2054611b42565b82346102ab5760203660031901126102ab57602091355f5260118252805f20549051908152f35b82346102ab575f3660031901126102ab57600f5490516001600160a01b039091168152602090f35b9050346102ab5760203660031901126102ab5735906112dd8233612106565b6112e982600b54611b42565b600b55519081527ffd38818f5291bf0bb3a2a48aadc06ba8757865d1dabd804585338aab3009dcb660203392a2005b346102ab5760203660031901126102ab57611331611957565b611339611b74565b6001600160a01b031661134d811515611a13565b600c80546001600160a01b031916821790557f6697469966e6db36e8e7163442550033ec984b278e48453a9cf46343df642f535f805160206124878339815191525f80a3005b82346102ab575f3660031901126102ab576113ac611c43565b6009549160ff8316156113ec577f5db9ee0a495bf2e6ff9c91a7834c1ba4fdd244a5e8aa4e537bd38aeae4b073aa6020838560ff191660095551338152a1005b9051638dfc202b60e01b8152fd5b82346102ab575f3660031901126102ab57600e5490516001600160a01b039091168152602090f35b82346102ab57806003193601126102ab5761143b61196d565b90336001600160a01b0383160361145757506105919135612005565b5163334bd91960e11b81529050fd5b82346102ab575f3660031901126102ab57602090610cd4611eda565b82346102ab575f3660031901126102ab57602090516b033b2e3c9fd0803ce80000008152f35b82346102ab575f3660031901126102ab576020905160128152f35b82346102ab57806003193601126102ab5761059191356114e6600161057a61196d565b611e5c565b82346102ab57806003193601126102ab57813567ffffffffffffffff81116102ab5761151a90369084016119c9565b90926b033b2e3c9fd0803ce8000000602435818102929183040361157d575060209361271061154c9204923691611afc565b8381519101205f5260118352815f20548082115f1461157457610cd491611adb565b51908152f35b50505f9061156e565b601190634e487b7160e01b5f525260245ffd5b82346102ab5760203660031901126102ab57602091355f52600882526001815f2001549051908152f35b82346102ab5760603660031901126102ab576020906107556115da611957565b6115e261196d565b604435916115f1833383611cc0565b611d8d565b82346102ab575f3660031901126102ab576020906002549051908152f35b82346102ab575f3660031901126102ab57600c5490516001600160a01b039091168152602090f35b346102ab5760203660031901126102ab57611655611957565b61165d611b74565b6001600160a01b0316611671811515611a13565b600e80546001600160a01b031916821790557fe1dfd0dbf63767a45b3f20993b337a1eef2b19b117cd799475c77d789e43b92d5f805160206124878339815191525f80a3005b82346102ab575f3660031901126102ab57608090600a5490600b546116dc8184611adb565b918051936b033b2e3c9fd0803ce8000000855260208501528301526060820152f35b82346102ab57806003193601126102ab5760209061075561171d611957565b6024359033612079565b82346102ab575f3660031901126102ab5780516003549091825f61174a84611aa3565b808352602094600190866001821691825f146117d757505060011461177c575b5050610869929161085a910385611a81565b9085925060035f527fc2575a0e9e593c00f959f8c92f12db2869c3395a3b0502d05e2516446f71f85b915f925b8284106117bf575050508201018161085a61176a565b8054848a0186015288955087949093019281016117a9565b60ff19168682015292151560051b8501909201925083915061085a905061176a565b82346102ab57602090816003193601126102ab57823591611818611bca565b60018060a01b03600c541692825161182f81611a51565b600981528281019568636f6d6d756e69747960b81b87527f6697469966e6db36e8e7163442550033ec984b278e48453a9cf46343df642f53805f52601185526b014adf4b7320334b9000000061039885885f2054611b42565b9050346102ab5760203660031901126102ab573563ffffffff60e01b81168091036102ab57602091637965db0b60e01b82149182156118cb575b50519015158152f35b6301ffc9a760e01b1491505f6118c2565b346102ab5760203660031901126102ab576118f5611957565b6118fd611b74565b6001600160a01b0316611911811515611a13565b601080546001600160a01b031916821790557fbb7d9f8cddc6f064ba72d0e3c1e53eb67867dd8506fa4f5d61c86189caca8ee55f805160206124878339815191525f80a3005b600435906001600160a01b03821682036102ab57565b602435906001600160a01b03821682036102ab57565b5f5b8381106119945750505f910152565b8181015183820152602001611985565b906020916119bd81518092818552858086019101611983565b601f01601f1916010190565b9181601f840112156102ab5782359167ffffffffffffffff83116102ab57602083818601950101116102ab57565b346102ab575f3660031901126102ab5760206040516103e88152f35b15611a1a57565b60405162461bcd60e51b815260206004820152600f60248201526e496e76616c6964206164647265737360881b6044820152606490fd5b6040810190811067ffffffffffffffff821117611a6d57604052565b634e487b7160e01b5f52604160045260245ffd5b90601f8019910116810190811067ffffffffffffffff821117611a6d57604052565b90600182811c92168015611ad1575b6020831014611abd57565b634e487b7160e01b5f52602260045260245ffd5b91607f1691611ab2565b91908203918211611ae857565b634e487b7160e01b5f52601160045260245ffd5b92919267ffffffffffffffff8211611a6d5760405191611b26601f8201601f191660200184611a81565b8294818452818301116102ab578281602093845f960137010152565b91908201809211611ae857565b60405190611b5c82611a51565b60098252686c697175696469747960b81b6020830152565b335f9081527f5eff886ea0ce6ca488a3d6e336d6c0f75f46d19b42c06ce5ee98e42c96d256c7602052604090205460ff1615611bac57565b60405163e2517d3f60e01b81523360048201525f6024820152604490fd5b335f9081527f51a495916474fe1a0c0fcfb65a8a97682b84a054118858cdd1f5dfd7fc0919eb60205260409020547f9f2df0fed2c77648de5860a4cc508cd0818c85b8b8a1ab4ceeef8d981c8956a69060ff1615611c255750565b6044906040519063e2517d3f60e01b82523360048301526024820152fd5b335f9081527f62e8532f45d82220ddea5da89acccbf142e829ab973b22f3386ec35cb0f9290160205260409020547f65d7a28e3265b37a6474929f336521b332c1681b933f6cb9f3376673440d862a9060ff1615611c255750565b805f52600860205260405f20335f5260205260ff60405f20541615611c255750565b919060018060a01b0380931692835f526001602052604093845f2091831691825f52602052845f2054925f198410611cfb575b505050505050565b848410611d5d57508015611d46578115611d2f575f526001602052835f20905f5260205203905f20555f8080808080611cf3565b8451634a1406b160e11b81525f6004820152602490fd5b845163e602df0560e01b81525f6004820152602490fd5b8551637dc7a0d960e11b81526001600160a01b039190911660048201526024810184905260448101859052606490fd5b916001600160a01b03808416928315611e445716928315611e2c57611db061219a565b825f525f60205260405f205490828210611dfa5750815f805160206124a783398151915292602092855f525f84520360405f2055845f5260405f20818154019055604051908152a3565b60405163391434e360e21b81526001600160a01b03919091166004820152602481019190915260448101829052606490fd5b60405163ec442f0560e01b81525f6004820152602490fd5b604051634b637e8f60e11b81525f6004820152602490fd5b90815f52600860205260405f209060018060a01b031690815f5260205260ff60405f205416155f14611ed457815f52600860205260405f20815f5260205260405f20600160ff1982541617905533917f2f8788117e7eff1d82e926ec794901d17c78024a50270940304540a733656f0d5f80a4600190565b50505f90565b307f00000000000000000000000000000000000000000000000000000000000000006001600160a01b03161480611fdc575b15611f35577f000000000000000000000000000000000000000000000000000000000000000090565b60405160208101907f8b73c3c69bb8fe3d512ecc4cf759cc79239f7b179b0ffacaa9a75d522b39400f82527f000000000000000000000000000000000000000000000000000000000000000060408201527f000000000000000000000000000000000000000000000000000000000000000060608201524660808201523060a082015260a0815260c0810181811067ffffffffffffffff821117611a6d5760405251902090565b507f00000000000000000000000000000000000000000000000000000000000000004614611f0c565b90815f52600860205260405f209060018060a01b031690815f5260205260ff60405f2054165f14611ed457815f52600860205260405f20815f5260205260405f2060ff19815416905533917ff6391f5c32d9c69d2a47ea670b442974b53935d1edc7fd64eb21e047a839171b5f80a4600190565b6001600160a01b039081169182156120ee57169182156120d65760207f8c5be1e5ebec7d5bd14f71427d1e84f3dd0314c0f7b2291e5b200ac8c7c3b92591835f526001825260405f20855f5282528060405f2055604051908152a3565b604051634a1406b160e11b81525f6004820152602490fd5b60405163e602df0560e01b81525f6004820152602490fd5b91906001600160a01b038316908115611e445761212161219a565b815f525f60205260405f20549381851061216857506020815f805160206124a7833981519152925f95968587528684520360408620558060025403600255604051908152a3565b60405163391434e360e21b81526001600160a01b03919091166004820152602481018590526044810191909152606490fd5b60ff600954166121a657565b60405163d93c066560e01b8152600490fd5b60ff81146121f65760ff811690601f82116121e457604051916121da83611a51565b8252602082015290565b604051632cd44ac360e21b8152600490fd5b50604051600554815f61220883611aa3565b808352926020906001908181169081156122955750600114612236575b505061223392500382611a81565b90565b91509260055f527f036b6384b5eca791c62761152d0c79bb0604c104a5fb6f4eb0703f3154bb3db0935f925b82841061227d57506122339450505081016020015f80612225565b85548785018301529485019486945092810192612262565b9150506020925061223394915060ff191682840152151560051b8201015f80612225565b60ff81146122db5760ff811690601f82116121e457604051916121da83611a51565b50604051600654815f6122ed83611aa3565b80835292602090600190818116908115612295575060011461231757505061223392500382611a81565b91509260065f527ff652222313e28459528d920b65115c16c04f3efc82aaedc97be59f3f377c0d3f935f925b82841061235e57506122339450505081016020015f80612225565b85548785018301529485019486945092810192612343565b91907f7fffffffffffffffffffffffffffffff5d576e7357a4501ddfe92f46681b20a084116123f8579160209360809260ff5f9560405194855216868401526040830152606082015282805260015afa156123ed575f516001600160a01b038116156123e357905f905f90565b505f906001905f90565b6040513d5f823e3d90fd5b5050505f9160039190565b60048110156124725780612415575050565b6001810361242f5760405163f645eedf60e01b8152600490fd5b600281036124505760405163fce698f760e01b815260048101839052602490fd5b60031461245a5750565b602490604051906335e2f38360e21b82526004820152fd5b634e487b7160e01b5f52602160045260245ffdfe7154bc4816488d6d8eb0c63083aaf18e8a46d93f55f7e585d1c330248f9287abddf252ad1be2c89b69c2b068fc378daa952ba7f163c4a11628f55a4df523b3efa2646970667358221220899a9bd220f4a2f9890319bdcc81adbee55f90fcb30f158acd0882bf64243bf564736f6c634300081800332f8788117e7eff1d82e926ec794901d17c78024a50270940304540a733656f0d5eff886ea0ce6ca488a3d6e336d6c0f75f46d19b42c06ce5ee98e42c96d256c7","linkReferences":{}},"methodIdentifiers":{"COMMUNITY_ALLOCATION()":"993eb1c5","DEFAULT_ADMIN_ROLE()":"a217fddf","DOMAIN_SEPARATOR()":"3644e515","ECOSYSTEM_ALLOCATION()":"90534f24","INVESTOR_ALLOCATION()":"e2571f5d","LIQUIDITY_ALLOCATION()":"f9428f38","MAX_SUPPLY()":"32cb6b0c","MINTER_ROLE()":"d5391393","PAUSER_ROLE()":"e63ab1e9","PUBLIC_ALLOCATION()":"e3177e6b","TEAM_ALLOCATION()":"fd99cbed","allocationMinted(bytes32)":"51b7a216","allowance(address,address)":"dd62ed3e","approve(address,uint256)":"095ea7b3","balanceOf(address)":"70a08231","burn(uint256)":"42966c68","burnFrom(address,uint256)":"79cc6790","circulatingSupply()":"9358928b","communityPool()":"14d140b0","decimals()":"313ce567","ecosystemPool()":"7cbd26ef","eip712Domain()":"84b0196e","getAllocationMinted(string)":"9af8929f","getAllocationRemaining(string,uint256)":"2d8a52dd","getRoleAdmin(bytes32)":"248a9ca3","getTokenStats()":"097cd9bf","grantRole(bytes32,address)":"2f2ff15d","hasRole(bytes32,address)":"91d14854","initialDistribution()":"95645e34","investorPool()":"4f59f0e4","liquidityPool()":"665a11ca","mintCommunityAllocation(uint256)":"069789f0","mintEcosystemAllocation(uint256)":"dda55980","mintInvestorAllocation(uint256)":"8e8fe3be","mintLiquidityAllocation(uint256)":"88f14966","mintTeamAllocation(uint256)":"56a871df","name()":"06fdde03","nonces(address)":"7ecebe00","pause()":"8456cb59","paused()":"5c975abb","permit(address,address,uint256,uint256,uint8,bytes32,bytes32)":"d505accf","renounceRole(bytes32,address)":"36568abe","revokeRole(bytes32,address)":"d547741f","setCommunityPool(address)":"410a1db1","setEcosystemPool(address)":"6be63dab","setInvestorPool(address)":"78bfb3a5","setLiquidityPool(address)":"01877020","setTeamPool(address)":"10b5347a","supportsInterface(bytes4)":"01ffc9a7","symbol()":"95d89b41","teamPool()":"39636504","totalBurned()":"d89135cd","totalMinted()":"a2309ff8","totalSupply()":"18160ddd","transfer(address,uint256)":"a9059cbb","transferFrom(address,address,uint256)":"23b872dd","unpause()":"3f4ba83a"},"id":55}