{"abi":[{"type":"constructor","inputs":[{"name":"_paymentToken","type":"address","internalType":"address"},{"name":"_oracle","type":"address","internalType":"address"},{"name":"_protocolFeeRate","type":"uint256","internalType":"uint256"}],"stateMutability":"nonpayable"},{"type":"function","name":"calculatePayout","inputs":[{"name":"policyId","type":"uint256","internalType":"uint256"}],"outputs":[{"name":"","type":"uint256","internalType":"uint256"}],"stateMutability":"view"},{"type":"function","name":"cancelPool","inputs":[{"name":"poolId","type":"uint256","internalType":"uint256"}],"outputs":[],"stateMutability":"nonpayable"},{"type":"function","name":"claimPayout","inputs":[{"name":"policyId","type":"uint256","internalType":"uint256"}],"outputs":[],"stateMutability":"nonpayable"},{"type":"function","name":"createPool","inputs":[{"name":"token","type":"address","internalType":"address"},{"name":"duration","type":"uint256","internalType":"uint256"},{"name":"minBet","type":"uint256","internalType":"uint256"},{"name":"maxBet","type":"uint256","internalType":"uint256"}],"outputs":[{"name":"poolId","type":"uint256","internalType":"uint256"}],"stateMutability":"nonpayable"},{"type":"function","name":"getPoolInfo","inputs":[{"name":"poolId","type":"uint256","internalType":"uint256"}],"outputs":[{"name":"token","type":"address","internalType":"address"},{"name":"totalRugBets","type":"uint256","internalType":"uint256"},{"name":"totalSafeBets","type":"uint256","internalType":"uint256"},{"name":"expiresAt","type":"uint256","internalType":"uint256"},{"name":"status","type":"uint8","internalType":"enum AlphaGuard.PoolStatus"},{"name":"outcome","type":"uint8","internalType":"enum AlphaGuard.Outcome"}],"stateMutability":"view"},{"type":"function","name":"getPoolOdds","inputs":[{"name":"poolId","type":"uint256","internalType":"uint256"}],"outputs":[{"name":"rugOdds","type":"uint256","internalType":"uint256"},{"name":"safeOdds","type":"uint256","internalType":"uint256"}],"stateMutability":"view"},{"type":"function","name":"getPoolPolicies","inputs":[{"name":"poolId","type":"uint256","internalType":"uint256"}],"outputs":[{"name":"","type":"uint256[]","internalType":"uint256[]"}],"stateMutability":"view"},{"type":"function","name":"getUserPolicies","inputs":[{"name":"user","type":"address","internalType":"address"}],"outputs":[{"name":"","type":"uint256[]","internalType":"uint256[]"}],"stateMutability":"view"},{"type":"function","name":"maxPoolDuration","inputs":[],"outputs":[{"name":"","type":"uint256","internalType":"uint256"}],"stateMutability":"view"},{"type":"function","name":"minPoolDuration","inputs":[],"outputs":[{"name":"","type":"uint256","internalType":"uint256"}],"stateMutability":"view"},{"type":"function","name":"oracle","inputs":[],"outputs":[{"name":"","type":"address","internalType":"address"}],"stateMutability":"view"},{"type":"function","name":"owner","inputs":[],"outputs":[{"name":"","type":"address","internalType":"address"}],"stateMutability":"view"},{"type":"function","name":"pause","inputs":[],"outputs":[],"stateMutability":"nonpayable"},{"type":"function","name":"paused","inputs":[],"outputs":[{"name":"","type":"bool","internalType":"bool"}],"stateMutability":"view"},{"type":"function","name":"paymentToken","inputs":[],"outputs":[{"name":"","type":"address","internalType":"contract IERC20"}],"stateMutability":"view"},{"type":"function","name":"policies","inputs":[{"name":"","type":"uint256","internalType":"uint256"}],"outputs":[{"name":"poolId","type":"uint256","internalType":"uint256"},{"name":"holder","type":"address","internalType":"address"},{"name":"position","type":"uint8","internalType":"enum AlphaGuard.Position"},{"name":"amount","type":"uint256","internalType":"uint256"},{"name":"createdAt","type":"uint256","internalType":"uint256"},{"name":"claimed","type":"bool","internalType":"bool"}],"stateMutability":"view"},{"type":"function","name":"policyCounter","inputs":[],"outputs":[{"name":"","type":"uint256","internalType":"uint256"}],"stateMutability":"view"},{"type":"function","name":"poolCounter","inputs":[],"outputs":[{"name":"","type":"uint256","internalType":"uint256"}],"stateMutability":"view"},{"type":"function","name":"poolPolicies","inputs":[{"name":"","type":"uint256","internalType":"uint256"},{"name":"","type":"uint256","internalType":"uint256"}],"outputs":[{"name":"","type":"uint256","internalType":"uint256"}],"stateMutability":"view"},{"type":"function","name":"pools","inputs":[{"name":"","type":"uint256","internalType":"uint256"}],"outputs":[{"name":"token","type":"address","internalType":"address"},{"name":"totalRugBets","type":"uint256","internalType":"uint256"},{"name":"totalSafeBets","type":"uint256","internalType":"uint256"},{"name":"createdAt","type":"uint256","internalType":"uint256"},{"name":"expiresAt","type":"uint256","internalType":"uint256"},{"name":"resolvedAt","type":"uint256","internalType":"uint256"},{"name":"status","type":"uint8","internalType":"enum AlphaGuard.PoolStatus"},{"name":"outcome","type":"uint8","internalType":"enum AlphaGuard.Outcome"},{"name":"minBet","type":"uint256","internalType":"uint256"},{"name":"maxBet","type":"uint256","internalType":"uint256"}],"stateMutability":"view"},{"type":"function","name":"protocolFeeRate","inputs":[],"outputs":[{"name":"","type":"uint256","internalType":"uint256"}],"stateMutability":"view"},{"type":"function","name":"purchasePolicy","inputs":[{"name":"poolId","type":"uint256","internalType":"uint256"},{"name":"position","type":"uint8","internalType":"enum AlphaGuard.Position"},{"name":"amount","type":"uint256","internalType":"uint256"}],"outputs":[{"name":"policyId","type":"uint256","internalType":"uint256"}],"stateMutability":"nonpayable"},{"type":"function","name":"renounceOwnership","inputs":[],"outputs":[],"stateMutability":"nonpayable"},{"type":"function","name":"resolvePool","inputs":[{"name":"poolId","type":"uint256","internalType":"uint256"},{"name":"outcome","type":"uint8","internalType":"enum AlphaGuard.Outcome"}],"outputs":[],"stateMutability":"nonpayable"},{"type":"function","name":"setFeeRate","inputs":[{"name":"_rate","type":"uint256","internalType":"uint256"}],"outputs":[],"stateMutability":"nonpayable"},{"type":"function","name":"setOracle","inputs":[{"name":"_oracle","type":"address","internalType":"address"}],"outputs":[],"stateMutability":"nonpayable"},{"type":"function","name":"setPoolDurationLimits","inputs":[{"name":"_min","type":"uint256","internalType":"uint256"},{"name":"_max","type":"uint256","internalType":"uint256"}],"outputs":[],"stateMutability":"nonpayable"},{"type":"function","name":"totalProtocolFees","inputs":[],"outputs":[{"name":"","type":"uint256","internalType":"uint256"}],"stateMutability":"view"},{"type":"function","name":"transferOwnership","inputs":[{"name":"newOwner","type":"address","internalType":"address"}],"outputs":[],"stateMutability":"nonpayable"},{"type":"function","name":"unpause","inputs":[],"outputs":[],"stateMutability":"nonpayable"},{"type":"function","name":"userPolicies","inputs":[{"name":"","type":"address","internalType":"address"},{"name":"","type":"uint256","internalType":"uint256"}],"outputs":[{"name":"","type":"uint256","internalType":"uint256"}],"stateMutability":"view"},{"type":"function","name":"withdrawFees","inputs":[{"name":"to","type":"address","internalType":"address"}],"outputs":[],"stateMutability":"nonpayable"},{"type":"event","name":"FeeRateUpdated","inputs":[{"name":"newRate","type":"uint256","indexed":false,"internalType":"uint256"}],"anonymous":false},{"type":"event","name":"OracleUpdated","inputs":[{"name":"newOracle","type":"address","indexed":true,"internalType":"address"}],"anonymous":false},{"type":"event","name":"OwnershipTransferred","inputs":[{"name":"previousOwner","type":"address","indexed":true,"internalType":"address"},{"name":"newOwner","type":"address","indexed":true,"internalType":"address"}],"anonymous":false},{"type":"event","name":"Paused","inputs":[{"name":"account","type":"address","indexed":false,"internalType":"address"}],"anonymous":false},{"type":"event","name":"PolicyClaimed","inputs":[{"name":"policyId","type":"uint256","indexed":true,"internalType":"uint256"},{"name":"holder","type":"address","indexed":true,"internalType":"address"},{"name":"payout","type":"uint256","indexed":false,"internalType":"uint256"}],"anonymous":false},{"type":"event","name":"PolicyPurchased","inputs":[{"name":"policyId","type":"uint256","indexed":true,"internalType":"uint256"},{"name":"poolId","type":"uint256","indexed":true,"internalType":"uint256"},{"name":"holder","type":"address","indexed":true,"internalType":"address"},{"name":"position","type":"uint8","indexed":false,"internalType":"enum AlphaGuard.Position"},{"name":"amount","type":"uint256","indexed":false,"internalType":"uint256"}],"anonymous":false},{"type":"event","name":"PoolCancelled","inputs":[{"name":"poolId","type":"uint256","indexed":true,"internalType":"uint256"}],"anonymous":false},{"type":"event","name":"PoolCreated","inputs":[{"name":"poolId","type":"uint256","indexed":true,"internalType":"uint256"},{"name":"token","type":"address","indexed":true,"internalType":"address"},{"name":"expiresAt","type":"uint256","indexed":false,"internalType":"uint256"},{"name":"minBet","type":"uint256","indexed":false,"internalType":"uint256"},{"name":"maxBet","type":"uint256","indexed":false,"internalType":"uint256"}],"anonymous":false},{"type":"event","name":"PoolResolved","inputs":[{"name":"poolId","type":"uint256","indexed":true,"internalType":"uint256"},{"name":"outcome","type":"uint8","indexed":false,"internalType":"enum AlphaGuard.Outcome"},{"name":"totalPayout","type":"uint256","indexed":false,"internalType":"uint256"}],"anonymous":false},{"type":"event","name":"Unpaused","inputs":[{"name":"account","type":"address","indexed":false,"internalType":"address"}],"anonymous":false},{"type":"error","name":"EnforcedPause","inputs":[]},{"type":"error","name":"ExpectedPause","inputs":[]},{"type":"error","name":"OwnableInvalidOwner","inputs":[{"name":"owner","type":"address","internalType":"address"}]},{"type":"error","name":"OwnableUnauthorizedAccount","inputs":[{"name":"account","type":"address","internalType":"address"}]},{"type":"error","name":"ReentrancyGuardReentrantCall","inputs":[]},{"type":"error","name":"SafeERC20FailedOperation","inputs":[{"name":"token","type":"address","internalType":"address"}]}],"bytecode":{"object":"0x60803461011557601f62001a5238819003918201601f19168301916001600160401b0383118484101761011957808492606094604052833981010312610115576100488161012d565b60406100566020840161012d565b9201519033156100fd575f549260018060a01b03908160018060a01b03199333858816175f5560405196823391167f8be0079c531659141344cd1fd0a4f28419497f9722a3daafe3b4186f6b6457e05f80a360017f9b779b17422d0df92223018b32b4d1fa46e071723d6817e2486d003becc55f00551683600154161760015516906002541617600255600355610e1060045562093a806005556119109081620001428239f35b604051631e4fbdf760e01b81525f6004820152602490fd5b5f80fd5b634e487b7160e01b5f52604160045260245ffd5b51906001600160a01b03821682036101155756fe604060808152600480361015610013575f80fd5b5f3560e01c908163164e68de1461137757816319ac46141461130157816328af07891461128a5781632f380b35146112045781633013ce29146111dc57816339cffcf51461117f5781633bb91c771461115a5781633d36adc5146111115781633f4ba83a146110a457816345596e2e1461101b57816358f8588014610ffd5781635c975abb14610fd85781636b63cc0d14610fa2578163715018a614610f4b5781637adbf97314610eab5781637dc0d1d014610e83578163827c788914610de15781638456cb5914610d835781638a69614e14610bb65781638da5cb5b14610b8f578163922d3e4c146108f65781639c2dcafb146108d85781639e3079cb146108ba578163ac4afa3814610813578163b6b75e461461064a578163bf7ccf2114610315578163d3e89483146102a3578163d52c1bea14610285578163e263a09514610247578163e720c0051461022b578163f2fde38b1461019e575063f526e39a1461017d575f80fd5b3461019a575f36600319011261019a57602090600c549051908152f35b5f80fd5b90503461019a57602036600319011261019a576101b96113b5565b906101c26117cf565b6001600160a01b039182169283156102155750505f54826bffffffffffffffffffffffff60a01b8216175f55167f8be0079c531659141344cd1fd0a4f28419497f9722a3daafe3b4186f6b6457e05f80a3005b905f6024925191631e4fbdf760e01b8352820152fd5b823461019a575f36600319011261019a57602091549051908152f35b823461019a5761025636611434565b91905f52600b602052805f20805483101561019a576020926102779161144a565b91905490519160031b1c8152f35b823461019a575f36600319011261019a576020906007549051908152f35b90503461019a57602036600319011261019a5760c09181355f526009602052805f20805492610302600183015460ff8060028601549460038701549601541695805197885260018060a01b038316602089015287019160a01c16611473565b60608401526080830152151560a0820152f35b90503461019a57606036600319011261019a578035916024918235600281101561019a5760443594610345611878565b61034d6118ba565b61035a60065482106114b6565b805f526020956008875260ff6006865f20015416600381101561063857610381901561172b565b815f526008875283855f20015442101561060757815f5260088752845f20936007850154821015806105f9575b156105c6576001805487516323b872dd60e01b5f908152338552308b5260448690526001600160a01b039a9398928b16908c9060648180855af1895f51148116156105a8575b828b525f60605215610595575050869086155f1461057e57016104188482546114f3565b90555b6007549761042889611788565b60075587519160c0830183811067ffffffffffffffff82111761056b57918b918b9594938b52878452828401903382528b8501908a825260608601938985526009608088019642885260a089019a5f8c525f52528d5f20965187558c87019351169083549251906002821015610559575060ff60a01b9060a01b16916affffffffffffffffffffff60a81b1617179055516002830155516003820155019051151560ff80198354169116179055335f52600a87526104e886865f20611796565b815f52600b87526104fb86865f20611796565b61050785518094611473565b86830152847ff26725c0da545e64f3a740569e636bcb944dd7b9cf59e6ea136fedba1652af3b853394a47f9b779b17422d0df92223018b32b4d1fa46e071723d6817e2486d003becc55f005551908152f35b634e487b7160e01b5f90815260218a52fd5b50634e487b7160e01b5f90815260418552fd5b600291500161058e8482546114f3565b905561041b565b91509192635274afe760e01b8352820152fd5b898115166105bd57813b15153d1516166103f4565b823d5f823e3d90fd5b855162461bcd60e51b8152908101889052600e818801526d125b9d985b1a5908185b5bdd5b9d60921b6044820152606490fd5b5060088501548211156103ae565b845162461bcd60e51b8152808501889052600c818801526b141bdbdb08195e1c1a5c995960a21b6044820152606490fd5b86602186634e487b7160e01b5f52525ffd5b823461019a578060031936011261019a578135906024358381101561019a576002546001600160a01b031633036107e25761068860065484106114b6565b825f526008602052815f2093600685019081549060ff821660038110156107cf576106b3901561172b565b8087015442106107995760018414801561078f575b1561075a57507f50f410c86989033027edfc723587abfdd5834018c23afa72ffeb2f98fefc9c7a949561070b846107469460016107219560ff1916178155611769565b42600582015560026001820154910154906114f3565b61271061073060035483611514565b049061073e82600c546114f3565b600c55611545565b61075283518093611427565b6020820152a2005b606490602086519162461bcd60e51b8352820152600f60248201526e496e76616c6964206f7574636f6d6560881b6044820152fd5b50600284146106c8565b606490602086519162461bcd60e51b8352820152601060248201526f141bdbdb081b9bdd08195e1c1a5c995960821b6044820152fd5b602182634e487b7160e01b5f525260245ffd5b815162461bcd60e51b8152602081860152600b60248201526a4f6e6c79206f7261636c6560a81b6044820152606490fd5b823461019a57602036600319011261019a578161014092355f526008602052815f206108ac60018060a01b038254169360018301549360028401549060038501549085015490600586015492600687015494600860078901549801549881519a8b5260208b01528901526060880152608087015260a086015261089c60c0860160ff8316611406565b60ff60e086019160081c16611427565b610100830152610120820152f35b823461019a575f36600319011261019a576020906006549051908152f35b823461019a575f36600319011261019a576020906005549051908152f35b90503461019a57608036600319011261019a576109116113b5565b9160249182359360443594606435916109286117cf565b6001600160a01b03908116938415610b5d57805483101580610b51575b15610b1c5787151580610b12575b15610adb576006549661096588611788565b60065561097284426114f3565b875193610140850185811067ffffffffffffffff821117610ac95792858a8996948d948f9783528c8452602084015f8152838501905f825260608601924284526080870194855260a08701955f875260c08801995f8b5261012060e08a01995f8b5261010081019e8f52019d8e525f5260086020525f209c51166bffffffffffffffffffffffff60a01b8d5416178c555160018c01555160028b01555160038a015551858901555160058801556006870192516003811015610ab75760ff80198554169116178355519280841015610aa657505094606094600860209c958c9995610a81610a91967fd8a47f46e26160e46adb255469e4fafb9c0d665dce4ac8063a774970a7074c469b611769565b51600784015551910155426114f3565b9187519283528983015286820152a351908152f35b602190634e487b7160e01b5f52525ffd5b82602186634e487b7160e01b5f52525ffd5b83604186634e487b7160e01b5f52525ffd5b606490601288602089519362461bcd60e51b855284015282015271496e76616c696420626574206c696d69747360701b6044820152fd5b5087841015610953565b606490601088602089519362461bcd60e51b85528401528201526f24b73b30b634b210323ab930ba34b7b760811b6044820152fd5b50600554831115610945565b606490600d88602089519362461bcd60e51b85528401528201526c24b73b30b634b2103a37b5b2b760991b6044820152fd5b823461019a575f36600319011261019a575f5490516001600160a01b039091168152602090f35b823461019a5760208060031936011261019a57823591610bd4611878565b5f8381526009835281902060018101546001600160a01b03919082163303610d4c578581019081549060ff8216610d1757545f526008855260ff6006855f200154166003811015610d045715610ccd5760ff19166001179055610c3684611552565b948515610c9e575090610c71857f5f2564c1ad353e58b81e7bd6cd0e6b1a3f52f46ab4c59c2cadfbaacc4b2e571694933390600154166117fa565b519384523393a360017f9b779b17422d0df92223018b32b4d1fa46e071723d6817e2486d003becc55f0055005b825162461bcd60e51b81529081018490526009602482015268139bc81c185e5bdd5d60ba1b6044820152606490fd5b835162461bcd60e51b81528088018690526011602482015270506f6f6c207374696c6c2061637469766560781b6044820152606490fd5b602188634e487b7160e01b5f525260245ffd5b845162461bcd60e51b8152808901879052600f60248201526e105b1c9958591e4818db185a5b5959608a1b6044820152606490fd5b825162461bcd60e51b815280870185905260116024820152702737ba103837b634b1bc903437b63232b960791b6044820152606490fd5b823461019a575f36600319011261019a5760207f62e78cea01bee320cd4e420270b5ea74000d11b0c9f74754ebdbfc544b05a25891610dc06117cf565b610dc86118ba565b5f805460ff60a01b1916600160a01b17905551338152a1005b90503461019a57602036600319011261019a57803591610dff6117cf565b610e0c60065484106114b6565b825f5260086020525f2090600682019081549060ff8216906003821015610e70575090610e3c610302921561172b565b61ffff19161790556005429101557f3d229dd60fc64b0903758feed58453f62e715f5d01dc0978c0a3a312dd2776c25f80a2005b602190634e487b7160e01b5f525260245ffd5b823461019a575f36600319011261019a5760025490516001600160a01b039091168152602090f35b90503461019a57602036600319011261019a57610ec66113b5565b610ece6117cf565b6001600160a01b0316918215610f1757600280546001600160a01b03191684179055827f3df77beb5db05fcdd70a30fc8adf3f83f9501b68579455adbd100b81809403945f80a2005b906020606492519162461bcd60e51b8352820152600e60248201526d496e76616c6964206f7261636c6560901b6044820152fd5b3461019a575f36600319011261019a57610f636117cf565b5f80546001600160a01b0319811682556001600160a01b03167f8be0079c531659141344cd1fd0a4f28419497f9722a3daafe3b4186f6b6457e08280a3005b90503461019a57602036600319011261019a57610fcc9035610fc760065482106114b6565b6116ab565b82519182526020820152f35b823461019a575f36600319011261019a5760209060ff5f5460a01c1690519015158152f35b823461019a575f36600319011261019a576020906003549051908152f35b90503461019a57602036600319011261019a578035906110396117cf565b6103e88211611072577f208f1b468d3d61f0f085e975bd9d04367c930d599642faad06695229f3eadcd8602083858160035551908152a1005b606490602084519162461bcd60e51b8352820152600c60248201526b08ccaca40e8dede40d0d2ced60a31b6044820152fd5b823461019a575f36600319011261019a576110bd6117cf565b5f549160ff8360a01c16156111035760ff60a01b1983165f5581513381527f5db9ee0a495bf2e6ff9c91a7834c1ba4fdd244a5e8aa4e537bd38aeae4b073aa90602090a1005b9051638dfc202b60e01b8152fd5b823461019a578060031936011261019a5761112a6113b5565b6001600160a01b03165f908152600a602052819020805460243592919083101561019a576020926102779161144a565b823461019a57602036600319011261019a5761117860209235611552565b9051908152f35b823461019a5761118e36611434565b9290916111996117cf565b838310156111a8575055600555005b906020606492519162461bcd60e51b8352820152600e60248201526d496e76616c6964206c696d69747360901b6044820152fd5b823461019a575f36600319011261019a5760015490516001600160a01b039091168152602090f35b90503461019a57602036600319011261019a5761128860c092823561122c60065482106114b6565b5f526008602052805f2060018060a01b03815416936001820154926006600284015492840154930154938151968752602087015285015260608401526112786080840160ff8316611406565b60ff60a084019160081c16611427565bf35b90503461019a57602090602060031936011261019a57355f52600b602052815f209180519182602085549182815201945f5260205f20915f905b8282106112ea576112e686866112dc828b0383611480565b51918291826113cb565b0390f35b8354875295860195600193840193909101906112c4565b823461019a5760208060031936011261019a576001600160a01b036113246113b5565b165f52600a602052815f209180519182602085549182815201945f5260205f20915f905b828210611360576112e686866112dc828b0383611480565b835487529586019560019384019390910190611348565b3461019a57602036600319011261019a576113b36113936113b5565b61139b6117cf565b600c54905f600c5560018060a01b03600154166117fa565b005b600435906001600160a01b038216820361019a57565b60209060206040818301928281528551809452019301915f5b8281106113f2575050505090565b8351855293810193928101926001016113e4565b9060038210156114135752565b634e487b7160e01b5f52602160045260245ffd5b9060048210156114135752565b604090600319011261019a576004359060243590565b805482101561145f575f5260205f2001905f90565b634e487b7160e01b5f52603260045260245ffd5b9060028210156114135752565b90601f8019910116810190811067ffffffffffffffff8211176114a257604052565b634e487b7160e01b5f52604160045260245ffd5b156114bd57565b60405162461bcd60e51b815260206004820152600e60248201526d141bdbdb081b9bdd08199bdd5b9960921b6044820152606490fd5b9190820180921161150057565b634e487b7160e01b5f52601160045260245ffd5b8181029291811591840414171561150057565b8115611531570490565b634e487b7160e01b5f52601260045260245ffd5b9190820391821161150057565b5f52600960205260405f2080545f52600860205260405f2060068101549060ff8260081c1691600490818410156107cf57600384146116a05760ff169260038410156107cf576001809403611697575f9380821480928193611668575b8115611626575b501561161c57600290840154930154916115e96115d384866114f3565b6127106115e260035483611514565b0490611545565b94610e70575061160c926116119594926002925f146116145750935b0154611514565b611527565b90565b905093611605565b5050505050505f90565b95505060025f95148061163a575b5f6115b6565b5060ff8187015460a01c166002811015611655578114611634565b602184634e487b7160e01b5f525260245ffd5b905060ff8288015460a01c1660028110156116845715906115af565b602185634e487b7160e01b5f525260245ffd5b50505050505f90565b505050506002015490565b5f52600860205260405f209060026001830154920154916116cc83826114f3565b90811561171f5780156117185761271082029061270f1983830401611500576116f491611527565b92801561171257612710808302928304036115005761161191611527565b50505f90565b505f6116f4565b50509050612710908190565b1561173257565b60405162461bcd60e51b815260206004820152600f60248201526e506f6f6c206e6f742061637469766560881b6044820152606490fd5b9060048110156114135761ff0082549160081b169061ff001916179055565b5f1981146115005760010190565b8054680100000000000000008110156114a2576117b89160018201815561144a565b819291549060031b91821b915f19901b1916179055565b5f546001600160a01b031633036117e257565b60405163118cdaa760e01b8152336004820152602490fd5b60405163a9059cbb60e01b5f9081526001600160a01b039384166004526024949094529260209060448180855af160015f5114811615611859575b836040521561184357505050565b635274afe760e01b835216600482015260249150fd5b600181151661186f57813b15153d151616611835565b833d5f823e3d90fd5b7f9b779b17422d0df92223018b32b4d1fa46e071723d6817e2486d003becc55f0060028154146118a85760029055565b604051633ee5aeb560e01b8152600490fd5b60ff5f5460a01c166118c857565b60405163d93c066560e01b8152600490fdfea264697066735822122044953b53d3e8e234aee3ff076d1761592219ca039628237f24197fa5d9dcd8af64736f6c63430008180033","linkReferences":{}},"methodIdentifiers":{"calculatePayout(uint256)":"3bb91c77","cancelPool(uint256)":"827c7889","claimPayout(uint256)":"8a69614e","createPool(address,uint256,uint256,uint256)":"922d3e4c","getPoolInfo(uint256)":"2f380b35","getPoolOdds(uint256)":"6b63cc0d","getPoolPolicies(uint256)":"28af0789","getUserPolicies(address)":"19ac4614","maxPoolDuration()":"9c2dcafb","minPoolDuration()":"e720c005","oracle()":"7dc0d1d0","owner()":"8da5cb5b","pause()":"8456cb59","paused()":"5c975abb","paymentToken()":"3013ce29","policies(uint256)":"d3e89483","policyCounter()":"d52c1bea","poolCounter()":"9e3079cb","poolPolicies(uint256,uint256)":"e263a095","pools(uint256)":"ac4afa38","protocolFeeRate()":"58f85880","purchasePolicy(uint256,uint8,uint256)":"bf7ccf21","renounceOwnership()":"715018a6","resolvePool(uint256,uint8)":"b6b75e46","setFeeRate(uint256)":"45596e2e","setOracle(address)":"7adbf973","setPoolDurationLimits(uint256,uint256)":"39cffcf5","totalProtocolFees()":"f526e39a","transferOwnership(address)":"f2fde38b","unpause()":"3f4ba83a","userPolicies(address,uint256)":"3d36adc5","withdrawFees(address)":"164e68de"},"id":52}